:100000000C94EE000C9416010C9416010C9416013D
:100010000C9416010C9416010C9416010C94160104
:100020000C9416010C9416010C94940D0C94060E6D
:100030000C9416010C9416010C9416010C941601E4
:100040000C9416010C9416010C9416010C941601D4
:100050000C9416010C9416010C9416010C942003B8
:100060000C9416010C9416010C9416010C941601B4
:100070000C9416010C9416010C9416010C941601A4
:100080000C9416010C9416010C9416010C94160194
:100090000C9416010C9416010C9416010C94160184
:1000A0000C9416010C9416010C941601700C730C30
:1000B000620C660C6C0C940C940C940C770C7B0CFE
:1000C0007F0C850C890C940C8F0C638253630001A8
:1000D00008000604000145000082000040002000E6
:1000E00000000200090F0000030401000C000000E2
:1000F0000000000000000000000000000000000000
:1001000000240027002A002D0030000000000025F8
:100110000028002B002E00310000000000230026E4
:100120000029002C002F0004040404040304050229
:100130000202020403020202020606060606060482
:10014000040202020404040802011040804010204E
:10015000408040800802040180402010020110808D
:100160001020404020080B00020202010009040098
:100170000001020200000524001001052401010114
:10018000042402060524060001070581031000402F
:1001900009040100020A00000007050202400000F5
:1001A000070583024000000403090412010002EF66
:1001B0000201404F1B0692000101020301537061CE
:1001C000726B46756E00537061726B46756E20508F
:1001D000726F204D6963726F00005A1611241FBEA2
:1001E000CFEFDAE0DEBFCDBF12E0A0E0B1E0E0EC9F
:1001F000FDE202C005900D92A631B107D9F725E0C6
:10020000A6E1B2E001C01D92A837B207E1F710E005
:10021000CEEED0E004C02197FE010E94AC16CD3E88
:10022000D107C9F70E942B120C94DE160C94000023
:100230003FB7F8948091540290915502A0915602D4
:10024000B091570226B5A89B05C02F3F19F0019623
:10025000A11DB11D3FBFBA2FA92F982F8827820F4C
:10026000911DA11DB11DBC01CD0142E0660F771F9C
:10027000881F991F4A95D1F708958091BC0290E09C
:10028000982F88272091BD02822B44972091DA0273
:1002900030E044E0359527954A95E1F7220F331F6A
:1002A000220F331F821B930B97FF02C080E090E068
:1002B00008952091D0023091CE023093D002209345
:1002C000CE022091D1023091CF023093D1022093FF
:1002D000CF0226ED32E0AAEDB2E0F9014291840F9F
:1002E000911D4E918C93662311F0408301C01082C2
:1002F000892F992744E04E0F4213F0CF1092DE026F
:100300001092DF0280E58093DA0208950F931F9325
:10031000CF93DF9370E064557D4F213021F48A0143
:10032000075F1F4F0CC0223039F000E010E0980149
:10033000DB011196EA0106C08A010250110920E092
:1003400030E0F6CFC230D10578F0FD013197E08181
:10035000F0E0FE2FEE279C91E92B0E0F1F1F211DB1
:10036000311D22971296EECFFA01EE7FE60FF71FAE
:1003700040FF0CC0408150E060E070E0762F652FB8
:10038000542F4427040F151F261F371FA901662766
:100390007727411551056105710519F0222733278B
:1003A000F1CF00951095E82FF0E0E455FD4F108354
:1003B0000183DF91CF911F910F910895ECEAF2E054
:1003C000108E118E80E4848B158A868B20E044E1A8
:1003D00050E06EE088E10C948601CF92DF92EF92BC
:1003E000FF920F931F938634910568F12091CF02FD
:1003F000233449F5C090DA02D090DB02E090DC02B1
:10040000F090DD020091210210912202209123023E
:1004100030912402C016D106E206F306A1F4E6EC00
:10042000F3E084559D4F9F012E5F3F4F41815081E6
:10043000553319F45281561741F0F901E40FF11DBB
:10044000E817F90780F380E001C081E01F910F9168
:10045000FF90EF90DF90CF900895E0911602F09119
:1004600017029F012F5F3F4F309317022093160210
:1004700080830895EF92FF920F931F93CF93DF93A2
:100480001F92CDB7DEB7062F142F59830E942D027D
:10049000802F0E942D02E12E5981F52E100F1E157E
:1004A00031F0F70181917F010E942D02F8CF0F906A
:1004B000DF91CF911F910F91FF90EF9008950895D4
:1004C00080E090E00895EF92FF920F931F93CF93F7
:1004D000DF9300D01F92CDB7DEB7F90180919C0267
:1004E00090919D02019690939D0280939C02809131
:1004F0009B02043F114021F0816080939B0250C019
:1005000091E02081213009F090E020919902922B16
:100510009093990290819230A8F481E090E031E0CC
:10052000DF01A80FB91F2C91281301C030E02091E2
:100530009B02322B30939B020196843F21E092076D
:1005400071F703C0816080939B0280919A028111B0
:1005500027C07A018B018FE49BE4A0E089839A8312
:10056000AB83CE0101960E94A011A701B801CE0174
:1005700001960E94A011A701B801CE0101960E9428
:10058000A011A701B801CE0101960E94A011A701F8
:10059000B801CE0101960E94A01181E080939A02D9
:1005A0000F900F900F90DF91CF911F910F91FF90BF
:1005B000EF9008958F929F92AF92BF92CF92DF9269
:1005C000EF92FF926B017C010E9418014B015C01CC
:1005D000C114D104E104F104F1F00E941801DC011E
:1005E000CB0188199909AA09BB09883E9340A10546
:1005F000B10570F321E0C21AD108E108F10888EED4
:10060000880E83E0981EA11CB11CC114D104E10422
:10061000F10419F7DDCFFF90EF90DF90CF90BF90FE
:10062000AF909F908F9008952FB7F89460915002EB
:100630007091510280915202909153022FBF089500
:100640001F920F920FB60F9211242F933F938F9307
:100650009F93AF93BF938091500290915102A091CC
:100660005202B091530230914F0223E0230F2D37F5
:1006700020F40196A11DB11D05C026E8230F0296A6
:10068000A11DB11D20934F028093500290935102FF
:10069000A0935202B093530280915402909155025C
:1006A000A0915602B09157020196A11DB11D8093F1
:1006B000540290935502A0935602B0935702BF91F3
:1006C000AF919F918F913F912F910F900FBE0F90FF
:1006D0001F901895DC0196E0FB0101900D929A9510
:1006E000E1F70895CF93DF93EB0144E050E0BC01C4
:1006F00088EC92E00E94D116892B39F462EC72E00A
:10070000CE010E946A0381E001C080E0DF91CF91B9
:100710000895BC018CEA92E00E946A036EE572E0E3
:1007200082EB92E00C946A03FB014081518162816B
:100730007381FC014083518362837383089582EB4C
:1007400092E00E94890366EC72E08AEC92E00E94DB
:1007500094036CE075E086EC92E00E9494030C94A4
:10076000DE01CF93DF9300D0CDB7DEB769837A8304
:100770000E94890369817A818AEC92E00E94940345
:100780006CE075E086EC92E00F900F90DF91CF91D6
:100790000C949403EF92FF920F931F93CF93DF93E8
:1007A000182F092FEB01F42EE52ECB010E947311B7
:1007B000BE01882319F08AE392E002C080E492E04F
:1007C0000E94B1032881207F203E91F08881998189
:1007D000AA81BB818F3F9F4FAF4FBF4F49F044E08D
:1007E00050E0BE0184E692E00E94D116892B31F4DC
:1007F0006EE271E08CEA92E00E946A0388E08093E6
:10080000B8021092B90249E050E066ED70E08AEB60
:1008100092E00E9481161092BC0281E18093C30293
:10082000E092D002F092D1020093CE021093CF0258
:100830001092D2021092D4021092D502DF91CF9181
:100840001F910F91FF90EF9008958EBD0DB407FE9C
:10085000FDCF089561E080915B020E9407117894BA
:100860000895F89460E080915B020C9407110F9357
:100870001F93CF93DF93EC018B010E9431042097EB
:10088000B9F08AE30E9425041EBCF801CE0101974D
:1008900039F00DB407FEFDCF2EB51EBC2193F7CF66
:1008A0002197C00FD11F0DB407FEFDCF8EB58883F1
:1008B000DF91CF911F910F910C942A04CF93DF9376
:1008C00000D01F92CDB7DEB74B836A8389830E9425
:1008D00031046A816F718981862B0E9425044B81C6
:1008E000842F0E9425040F900F900F90DF91CF91DD
:1008F0000C942A041F93CF93DF93182F1076C12FE7
:10090000D0E02091180230E0C217D307A1F043E0F5
:100910006FE180EA0E945E0410931802AE0185E048
:10092000559547958A95E1F76FE180E8DF91CF9182
:100930001F910C945E04DF91CF911F9108951F9336
:10094000CF93DF931F92CDB7DEB7182F69830E9434
:100950007A044981612F80E40F90DF91CF911F913C
:100960000C945E041F93CF93DF931F92CDB7DEB735
:10097000182F79830E949F047981672F81E0810F6E
:100980000F90DF91CF911F910C949F041F93CF93F1
:10099000DF931F92CDB7DEB7182F0E947A040E9412
:1009A0003104812F8F710E94250480E00E9425046C
:1009B00017FF03C080E00E9425048EB589830E9442
:1009C0002A0489810F90DF91CF911F9108950F9391
:1009D0001F93CF93DF9300D000D000D0CDB7DEB708
:1009E00080911B02882389F06091190270911A028C
:1009F0006115710519F46FEF7BE002C06150710958
:100A00008CE00E94B20410921B0289E30E94C6048B
:100A10008823C9F16091190270911A0280E00E9446
:100A2000B204BE016F5F7F4F86E090E00E94370402
:100A300089819A8190931A02809319020B811C81FB
:100A400080915C0290915D022D8127FF0DC001977E
:100A5000045011098017910708F48C016CEA72E0C8
:100A6000C8010E94370402C000E010E0F801E4551C
:100A7000FD4F108281E080931B0240E46EE180E82C
:100A80000E945E0402C000E010E0C80126960FB686
:100A9000F894DEBF0FBECDBFDF91CF911F910F91B4
:100AA0000895CF93DF93EC0140E86FE180E80E9466
:100AB0005E0440E86FE180EA0E945E044AE06CE177
:100AC00080EA0E945E0460E07CE082E00E94B20462
:100AD000BE01745F86E00E94B20440E060E08AE7F5
:100AE0000E945E040E943104209751F40E942A045F
:100AF00048E06FE180E80E945E04C0E0D0E01CC0E6
:100B00008AE70E9425048091AC028EBDEDEAF2E0F6
:100B1000C455DD4FEC17FD0731F081910DB407FE90
:100B2000FDCF8EBDF7CF0DB407FEFDCFDFCF2196F1
:100B3000C83E83E0D80729F08CE10E94C6048A7081
:100B4000B1F38CE10E94C60481FD03C0C83ED340CE
:100B500039F448E06FE180EADF91CF910C945E04B4
:100B6000DF91CF9108950F931F93CF938C018EE265
:100B700091E00E948903ECEAF2E088E08487C6E015
:100B8000C58748E050E06EEC70E08AEB92E00E948E
:100B90008116ECECF2E0DF011D92CA95E9F76EE5F3
:100BA00072E082EC92E00E946A03B80182ED92E06A
:100BB0000E9494036CE075E088EC92E00E9494033C
:100BC0008AE290E0CF911F910F910C9451050F9301
:100BD0001F93CF93DF93EC010CEA12E04C96F801DF
:100BE000908B818B0E94DE01CE010896F80196A3BE
:100BF00087A3AE01405F5F4F21E06AE188E20E9477
:100C00008601CE018A96DF91CF911F910F910C94AE
:100C10005105EF92FF920F931F93CF93DF938C01B7
:100C200086E191E0ECEAF2E0DF019C011D922150A7
:100C30003040E1F780913102833019F06EE271E0CB
:100C400002C06CE172E043E450E084E490E00E9472
:100C5000CA036EE271E08CEA92E00E946A0381E0CE
:100C60008093D6028093D70286E08093D802809149
:100C7000210290912202A0912302B091240280933C
:100C8000DA029093DB02A093DC02B093DD02F090D5
:100C9000310233E0F31206C06CE075E082EE92E0C0
:100CA0000E9494036EE572E082EF92E00E946A0374
:100CB00082EC93E09093170280931602CAECD0E086
:100CC000EC2E84E0E80EFE0184910E942D02219614
:100CD000EC12F9CF85E30E942D0281E00E942D02E3
:100CE000FF2011F083E001C081E00E942D028DE31E
:100CF0000E942D0287E00E942D0281E00E942D02B9
:100D0000CEE5D2E0FC2E26E0F20EFC1621F0899111
:100D10000E942D02FACF80910001882371F0E0E05B
:100D2000F1E001900020E9F73197BF016050714078
:100D300040E051E08CE00E943A020115110559F0A3
:100D4000A80164E082E30E943A024CE152E064E0D0
:100D500086E30E943A0287E30E942D0283E00E940C
:100D60002D0281E00E942D0283E00E942D0286E088
:100D70000E942D028FEF0E942D0280911602909109
:100D80001702865D9240DF91CF911F910F91FF90E6
:100D9000EF900C94E705262F20612093DB0264304E
:100DA00021F0009711F481E090E061E00E94590188
:100DB0001092BC0288E28093BD020E949F0384E0EF
:100DC0008093DC021092DD0222E04CE150E06AE107
:100DD00082E30E94860186E390E00C9451058F9295
:100DE0009F92AF92BF92CF92DF92EF92FF920F93BA
:100DF0001F93CF93DF9300D000D01F92CDB7DEB703
:100E00007C0180916E02882309F43DC180913102FA
:100E1000823009F488C030F4882381F1813009F4EC
:100E20004DC031C1833021F0843009F47CC02BC126
:100E300080902D0290902E02A0902F02B090300250
:100E40002FEF82169206A206B20609F41CC10E9478
:100E500014030091290210912A0220912B02309153
:100E60002C02DC01CB01801B910BA20BB30B88156C
:100E70009905AA05BB0508F0D7C105C10E94140356
:100E800060932102709322028093230290932402A4
:100E900010920C0510920D0510920E0510920F0580
:100EA00080E090E00E94090688E30E94C604682F53
:100EB000616088E30E949F0481E028C062E0C7016E
:100EC0000E94ED018823A9F166EE72E0CE01019641
:100ED0000E949403E6ECF3E0C70184559D4FBF01E7
:100EE0006E5F7F4F21813081363329F48CE192E0AF
:100EF0000E94940306C0FB01E20FF11DE817F907F9
:100F000070F3CE0101960E94090682E080933102BF
:100F10000E94140360932502709326028093270297
:100F200090932802B0C065E0C7010E94ED018111D5
:100F300019C00E94140300912502109126022091ED
:100F4000270230912802DC01CB01801B910BA20B00
:100F5000B30B81319742A105B10508F494C01092FA
:100F6000310291C080912002811108C088E30E9463
:100F7000C604682F6E7F88E30E949F0466EE72E0CD
:100F80008CE095E00E949403E6ECF3E0C701845501
:100F90009D4F5C018F010E5F1F4F918080818630D5
:100FA000A9F048F4813071F0833009F045C0B801F0
:100FB00084E095E00EC08A3379F08F3FD9F1833316
:100FC000D9F50AC0B80188E095E003C0B8018AE607
:100FD00092E00E94940330C0D801369620E030E0C1
:100FE000A9018D91742F632F522F44279A01AB01D1
:100FF000280F311D411D511DAE17BF0791F72093DA
:101000002D0230932E0240932F02509330022F3F37
:101010009FEF39074907590779F0A8EEB3E00E941E
:10102000B21660932D0270932E0280932F0290933C
:10103000300202C081E001C080E0F801E90DF11D3D
:10104000811104C0EA15FB0508F4A4CF0E94140323
:101050006093290270932A0280932B0290932C02B2
:1010600080910405882361F0109269021092680251
:1010700081E08093980264E075E0CB010E949403C4
:1010800083E080933102E114F10409F0B2C0809151
:101090009802857051F08091680290916902892BC5
:1010A00021F40E94F01182FDC5C0809168029091E8
:1010B00069020196909369028093680280914E02C2
:1010C000813009F070C08091980281FF6CC082E08D
:1010D00080934E02809121018F5F80932101182F10
:1010E0001F7188E492E00E94731168E472E0882323
:1010F00019F08AE392E002C080E492E00E94B1031A
:1011000008E00093B8021092B90249E050E066EDA1
:1011100070E08AEB92E00E9481168CE28093BD021F
:1011200086E08093C3020E94DE011092D0021092EA
:10113000D1028BE08093CE021093CF02E2EDF2E079
:10114000DF011D920A95E9F7809120018093D40276
:101150008D5F8093200180E68093DA0282E08093A5
:10116000DB0293E09093DC021092DD021092DE022B
:101170001092DF021092E0021092E1028093E202EC
:1011800094E09093E3028093E40286E28093E50288
:1011900022E040E250E06AE182E30E9486018AE3B5
:1011A00090E00E9451058AE692E00E947311882324
:1011B00049F080914D02811105C080914C02882335
:1011C00009F442C088E492E00E947311882309F474
:1011D000B1C0809147028111ADC08091460281115A
:1011E000A9C088E492E00E94B30581E080934602A2
:1011F000A1C0B9E2EB16F10408F49CC08091B802DA
:10120000883009F097C08091B902863009F08CC00F
:1012100044E050E06CE075E082ED92E00E94D1166F
:10122000892B09F087C018C08CE095E00E94090660
:1012300084E06CCE84E095E00E94B3058091980232
:1012400088608093980231CF8AE692E00E94B305CD
:1012500081E080934C02B6CF8091C102813029F5A4
:1012600082EB92E00E9489031092C00282E0809398
:10127000C10262EC72E08CEC92E00E946A036EE5BF
:1012800072E082EC92E00E946A0368EC72E082ED08
:1012900092E00E9494036CE075E088EC92E00E947A
:1012A00094038AE290E00E9451058091980283FFA6
:1012B0000CC01091C102123041F460E472E084E08D
:1012C00095E00E947203811126C080914D02811128
:1012D0000CC080914C02882341F06AE372E08AE6F8
:1012E00092E00E947203811119C08091470281111E
:1012F00021C0809146028823E9F06AE372E088E425
:1013000092E00E9472038823A9F081E08093470253
:10131000109246020FC010939802D7CF81E08093BD
:101320004D0210924C02E1CFF9E2EF16F10411F0F8
:10133000882319F000E010E0CEC18091BA02853414
:10134000C9F744E050E06CE075E08AEC92E00E945E
:10135000D116892BA1F044E050E064E672E08AECFB
:1013600092E00E94D116892B51F044E050E06EE2E9
:1013700071E08AEC92E00E94D116892BD9F6809117
:10138000C3028130F9F49091CE029830D9F4E09103
:101390003802F0913902309719F086EC92E0099505
:1013A0000E949F031092CE028091D002883F28F0C5
:1013B0009091D1029F5F9093D102885F8093D00279
:1013C000C70162C190919702911106C0E6E3EE1643
:1013D000F10408F04FC0AECF8131C1F77FE6A72EF0
:1013E00072E0B72E812C912C40E08091970290E022
:1013F00088169906DCF5D50112965C911297139622
:101400009C9113972091D00230E0C92ED12C2C153D
:101410003D0529F58091D102851321C014962C91A8
:1014200014972223E1F00091D30210E00850110933
:101430002091D20230E0322F2227020F131F409159
:10144000CE0250E0542F44272091CF02422BED9141
:10145000FC9126ED32E066EC72E0099541E0BFEFC9
:101460008B1A9B0AE5E0AE0EB11CBFCF442309F4F2
:10147000ADCF60CF8091C302863009F05BCF809101
:10148000D0028B3009F0BDC044E050E068E472E067
:1014900086EC92E00E94D116892B09F04BCF209167
:1014A000DB0222FF13C0E0913602F0913702309741
:1014B00059F08091D10220E030E040E050E063E05C
:1014C000829586958770099585E08FC02D830E944F
:1014D0003D018C0180914E022D81823009F043C084
:1014E000822F80712271223191F560E080E090E0DE
:1014F0000E94CB0688E18093DB02E0913402F091F8
:101500003502309741F08091CF02829586958770A1
:1015100009958C0102C000E010E083E080934E0248
:10152000C80188969093BC028093BD020E94DE01A0
:101530001092DE021092DF02A801445E5F4F22E0AB
:101540006AE182E30E948601C801C6969DC091E0CF
:1015500090934E02811103C0C801019602C080E041
:1015600090E064E04BC0833091F50115110591F1D5
:10157000E0913602F0913702309761F14091DA0242
:1015800050E024E0559547952A95E1F7440F551F03
:10159000440F551FC70108974E5D5F4F841795078D
:1015A00008F4AC01C801840F951FE816F90620F471
:1015B0009701241B350B01C098018091D10260E096
:1015C000829586958770099569E0C8010BC08530C2
:1015D00009F4B0CE20FF0CC0833009F4ABCE69E033
:1015E000C80101960E94CB0686E080934E02A2CEEF
:1015F0000115110509F49ECE60E0C8010E94CB06DA
:1016000099CE811197CE8091D102803509F092CE8A
:10161000D090DB02D1FE3BC01092BC028CE28093E2
:10162000BD020E949F0382E18093DB0260E081E0C3
:1016300090E00E9459011092D2021092D302809140
:1016400020018093D4021092D5028D5F80932001F7
:1016500082E08093E20284E08093E30285E080935D
:10166000E4021092E50290E69093DA028093DC02A5
:1016700088E78093DD0222E040E250E06AE182E305
:101680000E9486018AE390E00E94510553CED4FE69
:1016900051CE0E943D018C0190933302809332021F
:1016A000892B91F00091DA0210E084E015950795FE
:1016B0008A95E1F7000F111F000F111F0E5D1F4FDC
:1016C000E016F10640F436CED0FE34CE60E080E085
:1016D00090E00E94CB06C8010F900F900F900F90E2
:1016E0000F90DF91CF911F910F91FF90EF90DF90BE
:1016F000CF90BF90AF909F908F90089580E195E03C
:101700000E943E0C892BD1F380E195E00E943E0CB3
:10171000892B29F080E195E00E94760DF5CF0895A0
:101720004091A7025091A8022091A5023091A602F3
:1017300042175307B4F49091E8009570E1F390914B
:10174000E80092FD19C08093F1008091A70290916A
:10175000A80201968F739927892B19F48EEF809335
:10176000E8008091A7029091A80201969093A802A8
:101770008093A70281E0089580E00895DF92EF92C0
:10178000FF920F931F93CF93DF93D82E8A017B0193
:10179000E40EF51EEB01CE15DF0571F0D7FE03C098
:1017A000FE01849101C088810E94900B21968111D5
:1017B000F2CF8FEF9FEF01C0C801DF91CF911F9152
:1017C0000F91FF90EF90DF900895615030F02091DD
:1017D000F100FC0120830196F8CF289884E68093DD
:1017E000AA020895CF92DF92EF92FF920F931F9378
:1017F000CF93DF936C017A018B01C0E0D0E0CE156E
:10180000DF0589F0D8016D918D01D601ED91FC9134
:101810000190F081E02DC6010995892B11F47E011C
:1018200002C02196ECCFC701DF91CF911F910F919C
:10183000FF90EF90DF90CF900895CF93DF931F92AA
:10184000CDB7DEB76983DC01ED91FC910280F381B5
:10185000E02D41E050E0BE016F5F7F4F09950F9092
:10186000DF91CF91089583E08093E9008091F200A9
:10187000882319F08AE38093E8000895FC018485A9
:10188000958597FD0BC09FB7F89482E08093E9009F
:101890008091F2009FBF90E0019608959FB7F89461
:1018A00082E08093E9008091F2009FBF90E008956C
:1018B00090E0FC013197EF30F105B0F5EA5AFF4FA7
:1018C0000C94AC16809180008F7703C080918000CB
:1018D0008F7D80938000089580918000877FF9CF6D
:1018E00084B58F7702C084B58F7D84BD08958091C3
:1018F00090008F7707C0809190008F7D03C080910A
:101900009000877F8093900008958091C0008F772A
:1019100003C08091C0008F7D8093C00008958091A6
:10192000C200877F8093C20008950E94CC160F9357
:101930001F93CF93DF931F92CDB7DEB782E08983E9
:1019400042E450E065E671E080E80E94BE0B0E9430
:101950001712DC0112960D911C91139701151105B8
:1019600069F0D801ED91FC910280F381E02DBE0178
:101970006F5F7F4FC801099597FF07C089810F905E
:10198000DF91CF911F910F910895F8010085118586
:10199000E5CF8F929F92AF92BF92CF92DF92EF925C
:1019A000FF920F931F93CF93DF935C016B017A013A
:1019B00080912D01882309F45BC08091AB028823BC
:1019C00009F456C08091590280FF05C08091E00063
:1019D00082608093E000E70110E00AEF83E0882E48
:1019E0009AE3992E2097D9F10E94061281110AC01C
:1019F000015009F43DC061E070E080E090E00E9499
:101A0000DA02F0CF282F30E0C217D3070CF48C2F66
:101A10004FB7F8948092E9009091E80095FF1DC0BF
:101A2000282F30E0C21BD30BF601982F915020F0E5
:101A300081918093F100FACFC20ED31E112319F0C9
:101A40009092E80009C08091E80085FD06C0909260
:101A5000E80011E0209709F010E04FBFC3CF11114B
:101A6000C3CF5D9884E68093A9021E141F0444F03E
:101A700081E090E0F5019383828380E090E001C0F3
:101A8000C701DF91CF911F910F91FF90EF90DF90F1
:101A9000CF90BF90AF909F908F9008950E940612B4
:101AA00090E008950F931F93CF93DF931F92CDB7CC
:101AB000DEB78C01FC018485958597FF0EC0CE01B1
:101AC00001960E94C611019719F4298130E002C0E5
:101AD0002FEF3FEFF80135872487F801848595853E
:101AE0000F90DF91CF911F910F910895CF93DF93C6
:101AF0001F92CDB7DEB7FC018485958597FD05C0A3
:101B00002FEF3FEF358724870BC0CE0101960E944F
:101B1000C611019719F4898190E002C08FEF9FEF01
:101B20000F90DF91CF9108951F920F920FB60F92F1
:101B300011248F939F938091E1009091E100937F16
:101B40009093E10083FF0FC01092E90091E0909321
:101B5000EB001092EC0092E39093ED001092AB0238
:101B600098E09093F00082FF20C093E09093E9000A
:101B70009091F200992319F09AE39093E8009091E4
:101B8000A902992339F09091A90291509093A9024A
:101B9000992389F19091AA02992339F09091AA0290
:101BA00091509093AA02992341F184FF10C0809133
:101BB000E2008E7E81608093E2008091E1008F7E62
:101BC0008093E100809159028E7E806111C080FF78
:101BD00016C08091E2008E7E80618093E200809149
:101BE000E1008E7E8093E100809159028E7E8160BB
:101BF0008093590204C05D9ACDCF289AD6CF9F9189
:101C00008F910F900FBE0F901F9018951F920F92FB
:101C10000FB60F921124CF92DF92EF92FF920F93A3
:101C20001F932F933F934F935F936F937F938F9364
:101C30009F93AF93BF93EF93FF93CF93DF93CDB772
:101C4000DEB76C97DEBFCDBF1092E9008091E8004F
:101C500083FFEDC168E0CE0145960E94E50B82EF5F
:101C60008093E8008D8987FF05C09091E80090FF80
:101C7000FCCF03C09EEF9093E800982F907609F078
:101C8000C6C09E892F89188D91110CC0803829F407
:101C900080915A028093F10002C01092F1001092DC
:101CA000F10048C1422F50E0512B913051F4811185
:101CB00041C14130510509F03DC180915A028D7FEB
:101CC0000BC0933061F4811135C14130510509F0E9
:101CD00031C180915A02826080935A022BC19530A3
:101CE00041F48091E80080FFFCCF20682093E3005E
:101CF00021C1963009F05FC0EB8CFC8C1092E9009A
:101D00001092A8021092A702123091F51092A6022A
:101D10001092A5020E94970C99E0BE016F5F7F4F61
:101D2000DB01E92F1D92EA95E9F799831A8391E087
:101D30009E8390EA98879AEF99872091A702309125
:101D4000A802275F3F4F3C832B838D831092E900CD
:101D50001092A8021092A702F092A602E092A502A9
:101D600049E050E080E00E94BE0B0E94970CE2C068
:101D7000F092A602E092A5020E941712DC011296D0
:101D8000ED90FC901397E114F10409F4C0C0D70161
:101D9000ED91FC910480F581E02DBE016B5E7F4FDB
:101DA000C7010995009719F00CF0C4C0C7C0F7012E
:101DB000E084F184E8CF973009F4C0C0983021F472
:101DC00081E08093F100B6C0993009F0B3C0837010
:101DD00009F0B4C0E3E4F1E081E021E036E3908172
:101DE000992361F08093E9002093EB009191909307
:101DF000EC003093ED008F5F873089F78EE780939A
:101E0000EA001092EA008F898093AB0293C08B8D19
:101E10009C8D1092E9001092A8021092A702909354
:101E2000A6028093A502898D811156C08E899D8955
:101E3000913A59F4813209F081C047E050E066E2FE
:101E400071E080E00E94BE0B75C0913209F076C04F
:101E5000833289F4888D90E0982F88272F89822BF0
:101E6000A0E0B0E08093220190932301A09324018D
:101E7000B09325015FC0803269F48091E80082FF51
:101E8000FCCF67E086E291E00E94E50B8BEF809348
:101E9000E80006C0823209F04DC08F8980932D0181
:101EA00080915802882319F0EEEFFAE002C0E0E0DA
:101EB000F8E08091260190912701A0912801B0912E
:101EC0002901803B9440A105B10509F07BC08091B8
:101ED0002D0180FF93C076C00E941712DC0112967C
:101EE0000D911C9113970115110541F1D801ED9148
:101EF000FC910190F081E02DBE016B5E7F4FC80127
:101F00000995811117C0F80100851185ECCF1130BA
:101F100009F44EC0133091F48F89882309F445C029
:101F2000823081F440E862E186EC91E00E941D1667
:101F3000882321F08EEF8093E80079C081E28093BE
:101F4000EB0075C0813029F440E868E08DEB91E04A
:101F5000EDCF833099F70E941712DC011296ED90B5
:101F6000FC9013978E010F5F1F4F6801E114F1047D
:101F700079F0D701ED91FC910680F781E02DB80151
:101F8000C7010995080F111DF701E084F184EECF18
:101F9000D8011C92F60101900020E9F73197BF01AA
:101FA0006C197D0940E0C601C1CF67EA71E002C04B
:101FB0006BEA71E06115710509F2FB01449150E093
:101FC00080E840CF0FB6F894A895809160008861B2
:101FD00080936000109260000FBEA895EE3F2AE04B
:101FE000F20739F08091FE0A9091FF0A9183808375
:101FF000A1CF1092FF0A1092FE0A9CCFEE3F8AE01A
:10200000F80731F0808191819093FF0A8093FE0A56
:1020100087E797E7918380839BE088E10FB6F89488
:10202000A895809360000FBE9093600083CF6C965C
:102030000FB6F894DEBF0FBECDBFDF91CF91FF91F9
:10204000EF91BF91AF919F918F917F916F915F9130
:102050004F913F912F911F910F91FF90EF90DF9043
:10206000CF900F900FBE0F901F90189561157105BE
:1020700079F0FB0101900020E9F73197AF01461B91
:10208000570BDC01ED91FC910280F381E02D099466
:1020900080E090E008954F925F926F927F92EF926E
:1020A000FF920F931F93CF93DF93CDB7DEB7A19726
:1020B0000FB6F894DEBF0FBECDBF7C01FA01CB0195
:1020C00019A2223008F42AE08E010F5D1F4F422E24
:1020D000512C612C712CBF01A30192010E948A1620
:1020E000F901CA01015011096A3014F4605D01C0A0
:1020F000695CD8016C93232B242B252B61F7B80145
:10210000C7010E943610A1960FB6F894DEBF0FBE2D
:10211000CDBFDF91CF911F910F91FF90EF907F90F6
:102120006F905F904F9008958F929F92AF92BF9261
:10213000CF92DF92EF92FF920F931F93CF93DF9393
:102140007C01EB016C0182E0C80ED11C4701E5E087
:102150008E0E911C00E010E0F60141916F0150E0FD
:1021600060E070E02AE0CE010E944B105C01E88143
:10217000F9810190F081E02D6EE2CE0109958A0D82
:102180009B1D080F191FC814D90431F7F7014581A9
:1021900050E060E070E02AE0CE010E944B10800F1A
:1021A000911FDF91CF911F910F91FF90EF90DF90E2
:1021B000CF90BF90AF909F908F900895CF93DF9373
:1021C000282F30E0F901E152FF4F8491F901EA5BD9
:1021D000FE4FD491F901E95DFE4FC491CC2391F0FB
:1021E00081110E94580CEC2FF0E0EE0FFF1FE75E0C
:1021F000FE4FA591B491EC91ED2381E090E021F4A4
:1022000080E002C080E090E0DF91CF9108951F93BD
:10221000CF93DF93282F30E0F901E152FF4F8491F3
:10222000F901EA5BFE4FD491F901E95DFE4FC491DB
:10223000CC23C9F0162F81110E94580CEC2FF0E02E
:10224000EE0FFF1FE55FFE4FA591B4918FB7F89495
:10225000111105C09C91ED2FE095E92302C0EC918E
:10226000ED2BEC938FBFDF91CF911F910895CF930A
:10227000DF9390E0FC01EA5BFE4F2491FC01E95DF5
:10228000FE4F8491882361F190E0880F991FFC0133
:10229000E350FF4FC591D491FC01E55FFE4FA5913E
:1022A000B491611109C09FB7F89488812095822369
:1022B0008883EC912E230BC0623061F49FB7F894B1
:1022C0003881822F809583238883EC912E2B2C9349
:1022D0009FBF06C08FB7F894E8812E2B28838FBF4D
:1022E000DF91CF910895CF93DF9320910C052223A6
:1022F00019F1FC0120812223F9F0ACE0B5E0BC012A
:10230000C8E0D5E044E055E090E03D91FB018191CB
:10231000BF0129918327822379F4FA012191AF012A
:1023200081E0321301C080E0982BF5E0A031BF07B7
:1023300061F781E0892701C080E0DF91CF910895A6
:10234000CF93DF93EC018FE194E10E94CA0388816F
:1023500099819093D7028093D60282E090E0DF913A
:10236000CF910C94E705CF93DF93BC0180E195E01A
:102370000E943610EC016FEA71E080E195E00E9466
:1023800036108C0F9D1FDF91CF910895FC01809135
:10239000AB02811103C08FEF9FEF08959FB7F894B0
:1023A00082E08093E9002091F20030E012161306DB
:1023B00014F421E030E02115310559F0289884E625
:1023C0008093AA028091F10080838091F20088239B
:1023D00019F09FBFC90108958BE68093E800F9CFFB
:1023E00061E184ED0E949F0461E082ED0E949F0400
:1023F0008AEE0E94C60480FDFBCF60E082ED0E9461
:102400009F0489ED0E94C60490E008952FB7F894C8
:1024100083E08093E9009091E800892F807295FF16
:1024200004C09091F20080E4891B2FBF0895809131
:10243000640581110DC082E08093600584E0809383
:102440006105109263051092620581E08093640536
:1024500080E695E00895789484B5826084BD84B563
:10246000816084BD85B5826085BD85B5816085BD8F
:1024700080916E00816080936E0010928100809147
:1024800081008260809381008091810081608093CF
:102490008100809180008160809380008091910014
:1024A000826080939100809191008160809391007F
:1024B000809190008160809390008091C100846041
:1024C0008093C1008091C10082608093C10080919F
:1024D000C10081608093C1008091C30081608093BE
:1024E000C3008091C00082608093C0008091C200D0
:1024F00081608093C20080917A00846080937A002A
:1025000080917A00826080937A0080917A00816065
:1025100080937A0080917A00806880937A0010928C
:10252000AB0210925A02109259028091D70081603A
:102530008093D70080EA8093D80089B5806189BDF7
:1025400089B5826089BD09B400FEFDCF61E070E00D
:1025500080E090E00E94DA028091D8008F7C806158
:102560008093D8008091E000807F8093E00080918C
:10257000E1008E7E8093E1008DE08093E200559A29
:10258000209AEEEFFFE7859194918B3F9C4D19F4D3
:1025900081E0809358028FEF9FEF90931D05809309
:1025A0001C050E947E0B81E691E00E94B3110E94FF
:1025B0007E0B88E891E00E94B31110926E0287E3CF
:1025C00090E0C12CD12C7601C3940097C1F0FC019E
:1025D00023E0F595E7952A95E1F7E256FD4F282F80
:1025E0002770B701A60104C0440F551F661F771F4F
:1025F0002A95D2F72081422B40830197E6CF6CE3E6
:1026000071E08EE592E00E946A0388E592E0909383
:102610005D0280935C020CB406FC25C061E081E1A0
:102620000E94371161E081E10E94071161E080E1C1
:102630000E94371161E08FE00E94371160E08EE068
:102640000E94371161E080E10E94071160E080E1A3
:102650000E94071160E08FE00E94071180E58CBDA9
:102660008DB581608DBD83E080935B0261E00E9447
:1026700037110E942A044FEF60E08FEF0E945E0442
:1026800062E070E080E090E00E94DA020E94310493
:102690008DE10E94250480E00E942504CEB50E94B1
:1026A0002A04CC2399F360E070E088E00E94B20431
:1026B00060E070E08CE00E94B2046FEF7BE08AE0A3
:1026C0000E94B20460E07CE084E00E94B2046FEFFC
:1026D00071E186E00E94B20461EB88E30E949F04EE
:1026E0006FE370E388E20E94B20469EF77EF80E362
:1026F0000E94B2046DE080EC0E949F0460E081ECD7
:102700000E949F0442E362EC80E80E945E0462E162
:102710007CE086EC0E94B20462E184EC0E949F049B
:102720006CED75E08AEC0E94B20460915E0284EE6A
:102730000E949F0460915F0285EE0E949F04609159
:10274000600282EE0E949F046091610283EE0E940B
:102750009F046091620280EE0E949F046091630278
:1027600081EE0E949F0460E184ED0E949F0460E07E
:1027700071E086ED0E94B2048AEE0E94C60480FDDC
:10278000FBCF8FE10E947A0440EC6BE180E80E946D
:102790005E0444E06FE180E80E945E0482E70E94EC
:1027A000C604863008F08F5F811103C087E691E090
:1027B000E5C010926E0268E371E08CE095E00E9443
:1027C000940381E08093980264E371E084E095E0F3
:1027D0000E949403C8E0D5E0A4E6B2E0ECE0F5E0A6
:1027E00024E02E0F919189918095892B8D932E1342
:1027F000F9CF109269021092680268EE73E080E0EF
:1028000090E00E94DA020E94F01182FD03C082E78C
:1028100091E0B4C00E9414036B017C018091980286
:1028200081FD14C00E94E7040E94EF060E94140379
:10283000DC01CB018C199D09AE09BF09883B9B4087
:10284000A105B10558F38CE791E098C085E891E0C7
:102850000E94B31180919702883098F495E0899F87
:10286000F0011124E159FD4F23E632E0318320834A
:102870002FE134E13383228391E094838F5F80934F
:10288000970281E991E00E94B31180E195E00E94F6
:102890003E0C892B29F40E94E7040E94EF06F5CF35
:1028A00080E195E00E943E0C892B29F080E195E0C3
:1028B0000E94760DF5CF81EA91E00E94B31110924B
:1028C0009D0210929C0210929B0210929A0210920A
:1028D00099020E9414036B017C010E941403DC0125
:1028E000CB018C199D09AE09BF09883B9B40A1050E
:1028F000B10528F40E94E7040E94EF06EECFC090D5
:102900009C02D0909D020D2C000CEE08FF08F7FEF3
:1029100014C0E0911005F09111050190F081E02DB7
:102920006DE280E195E0099544275527BA014C19DD
:102930005D096E097F092AE003C02AE0B701A601FC
:1029400080E195E00E944B106FEA71E080E195E034
:102950000E94361080919B02882319F082EB91E04F
:1029600002C08FEB91E00E94B31180919902811116
:1029700003C08AEC91E002C083ED91E00E94B311A4
:102980008AED91E00E94B31160E089E00E94371166
:1029900061E08AE00E94371161E08AE00E9437110D
:1029A00060E08AE00E94071164E670E080E090E059
:1029B0000E94DA02C8ECD0E0F12C89E00E94DE101F
:1029C00021E0019709F020E0F22A61E070E080E068
:1029D00090E00E94DA02219781F761E08AE00E948C
:1029E000371161E08AE00E94071164E670E080E040
:1029F00090E00E94DA02C8ECD0E089E00E94DE108C
:102A000021E0892B09F020E0F22A61E070E080E00B
:102A100090E00E94DA02219781F7F11003C08FED58
:102A200091E002C085EE91E00E94B31160E08AE07F
:102A30000E94371161E089E00E94371161E089E06E
:102A40000E94371160E089E00E94071164E670E09F
:102A500080E090E00E94DA02C8ECD0E0F12C8AE03D
:102A60000E94DE1021E0019709F020E0F22A61E0E7
:102A700070E080E090E00E94DA02219781F761E047
:102A800089E00E94371161E089E00E94071164E645
:102A900070E080E090E00E94DA02C8ECD0E08AE0CA
:102AA0000E94DE1021E0892B09F020E0F22A61E08B
:102AB00070E080E090E00E94DA02219781F7F11047
:102AC00003C08DEE91E002C082EF91E00E94B3114D
:102AD00060E085E00E94371161E086E00E943711D6
:102AE00061E086E00E94371160E086E00E940711F5
:102AF00064E670E080E090E00E94DA02C8ECD0E08A
:102B0000F12C85E00E94DE1021E0019709F020E021
:102B1000F22A61E070E080E090E00E94DA02219702
:102B200081F761E086E00E94371161E086E00E9453
:102B3000071164E670E080E090E00E94DA02C8ECE1
:102B4000D0E085E00E94DE1021E0892B09F020E032
:102B5000F22A61E070E080E090E00E94DA022197C2
:102B600081F7F11003C089EF91E002C08EEF91E090
:102B70000E94B31160E086E00E94371161E085E0B9
:102B80000E94371161E085E00E94371160E085E026
:102B90000E94071164E670E080E090E00E94DA0293
:102BA000C8ECD0E0F12C86E00E94DE1021E0019715
:102BB00009F020E0F22A61E070E080E090E00E94FD
:102BC000DA02219781F761E085E00E94371161E028
:102BD00085E00E94071164E670E080E090E00E94CA
:102BE000DA02C8ECD0E086E00E94DE1021E0892BFA
:102BF00009F020E0F22A61E070E080E090E00E94BD
:102C0000DA02219781F7F11003C085E092E002C05B
:102C10008AE092E00E94B31181E192E00E94B31138
:102C2000C0E0D0E060E876E988E990E00E94DA024E
:102C30002097C1F30E940000F5CFCF92DF92EF9270
:102C4000FF920F931F93CF93DF931F92CDB7DEB701
:102C5000182F062FE42E862F880F8E5F99830E94EF
:102C6000900B83E00E94900BF12EC12E9981D92EFA
:102C70008C2D8F19801798F4F601E7FE02C084911D
:102C800001C080810E94900B182F80E00E94900B61
:102C90008123FFEFCF1ADF0A8111EACF01C081E063
:102CA0000F90DF91CF911F910F91FF90EF90DF90E8
:102CB000CF900895ECE6F5E08FE591E09183808375
:102CC0001282138214821582E0E1F5E013821282EF
:102CD00048EE53E060E070E0448355836683778379
:102CE0002DE431E0318320832FEF3FEF35872487B8
:102CF000E2E7F5E0918380831282138214821582C9
:102D00000895FB01DC0102C005900D924150504036
:102D1000D8F70895A1E21A2EAA1BBB1BFD010DC016
:102D2000AA1FBB1FEE1FFF1FA217B307E407F5077B
:102D300020F0A21BB30BE40BF50B661F771F881F57
:102D4000991F1A9469F760957095809590959B01ED
:102D5000AC01BD01CF010895EE0FFF1F0590F49166
:102D6000E02D09940E94BD16A59F900DB49F900D73
:102D7000A49F800D911D11240895A29FB001B39FBF
:102D8000C001A39F700D811D1124911DB29F700D74
:102D9000811D1124911D089581E090E0F8940C9418
:102DA000DE16FB01DC0104C08D910190801921F435
:102DB00041505040C8F7881B990B0895F894FFCFF5
:102DC00041726475696E6F2D454E4332386A3630F4
:102DD0002D30300000000000000000000000000066
:102DE0000A01FFFFFFFF00E1000000000000FFFFFD
:102DF000FFFFFFFFC0A80201C0A8020A7469692D85
:102E0000301000C18081000000000000001D0CC9CE
:102E10000C4E0D330C3E0C760D520D00000000944C
:102E20001048454C4C4F004641494C2042454749CB
:102E30004E004641494C204C494E4B004641494CBE
:102E400020415250004F4B2045544845524E455466
:102E5000004E4554574F524B5F50524550415245DA
:102E6000004E4554574F524B5F5354415254000D3E
:102E70000A004641494C20434F5252555054004F8E
:102E80004B20434F5252555054004641494C20412B
:102E9000434B004F4B2041434B0050494E53004F92
:102EA0004B203130004641494C203130004F4B20FF
:102EB00039004641494C2039004F4B2036004641ED
:102EC000494C2036004F4B2035004641494C2035B7
:062ED00000454E44000025
:1070000055C000006EC000006CC000006AC00000E7
:1070100068C0000066C0000064C0000062C00000DC
:1070200060C000005EC00000FCC400005AC0000048
:1070300058C0000056C0000054C0000052C00000FC
:1070400050C000005DC000004CC000004AC00000FD
:1070500048C0000046C0000044C0000042C000001C
:1070600040C000003EC000003CC000003AC000002C
:1070700038C0000036C0000034C0000032C000003C
:1070800030C000002EC000002CC000002AC000004C
:1070900028C0000026C0000024C0000022C000005C
:1070A00020C000001EC000001CC0000011241FBE34
:1070B000CFEFDAE0DEBFCDBF11E0A0E0B1E0E6E463
:1070C000FFE702C005900D92A43BB107D9F711E08C
:1070D000A4EBB1E001C01D92AD3CB107E1F74FD385
:1070E00030C78ECFF89410926F001092810081E02B
:1070F00085BF15BE47985D9A289A0C9400000895A4
:107100001F920F920FB60F9211242F938F939F937C
:10711000EF93FF9310928500109284008091B40148
:107120009091B501009741F001979093B50180933C
:10713000B401892B09F45D9A8091B6019091B70151
:10714000009741F001979093B7018093B601892B86
:1071500009F4289A8091BA019091BB01019690930D
:10716000BB018093BA01E0E0F0E0859194918F5FDC
:107170009F4F49F08091B8019091B9010196909389
:10718000B9018093B801FF91EF919F918F912F9159
:107190000F900FBE0F901F90189584E08093E90028
:1071A0000DC08091E8008B778093E80003C08EB318
:1071B000882351F08091E80082FFF9CF8091E800A8
:1071C00085FFEFCF8091F1000895982F83E08093A1
:1071D000E9008091E80085FD0DC08091E8008E7780
:1071E0008093E80003C08EB3882369F08091E800A3
:1071F00080FFF9CF9093F1005D9884E690E0909342
:10720000B5018093B40108954F925F926F927F927F
:107210008F929F92AF92BF92CF92DF92EF92FF92A6
:107220000F931F93CF93DF9384E08093E9008091C5
:10723000E80082FF57C2289884E690E09093B70157
:107240008093B601AADF182F853481F48CE49DE188
:107250009093B9018093B80107B600FCFDCFF9996E
:10726000FECF81E180935700E89503C0843519F47F
:1072700094DF8DE00DC28C34E1F38035D1F3843797
:1072800021F484E4A2DF80E003C2813611F489E5B1
:10729000FFC18134B1F481DF182F7FDF90E0880FC8
:1072A000991FAA2797FDA095BA2F312F330F20E001
:1072B000442737FD4095542F822B932BA42BB52BBD
:1072C000B8C1803711F483E5E3C1833549F4C0E0E8
:1072D000D1E089917ADF21E0C730D207D1F7D9C157
:1072E000863521F481E371DF80E3D2C1833731F445
:1072F00087E86BDF85E969DF8EE1CAC18536B9F4BD
:10730000E0E0F0E093E085E090935700E89507B661
:1073100000FCFDCF80935700E89507B600FCFDCF39
:10732000E058FF4FA0E7E030FA0771F7A2CF8237AD
:1073300039F4E1E0F0E089E0809357008491A8C13E
:10734000863439F4E0E0F0E089E0809357008491DE
:107350009FC18E3439F4E3E0F0E089E08093570078
:10736000849196C1813539F4E2E0F0E089E08093C0
:10737000570084918DC1823631F489E526DF80E0A3
:1073800024DF80E885C1823419F0873609F0E5C032
:107390001092B9011092B80100DF082FFEDEF82E1E
:1073A000FCDE682E8554823008F071C1902F80E099
:1073B000CF2DD0E0C82BD92B10926F00173609F0D3
:1073C0004BC081E180935700E895DD24CC24C39421
:1073D0003FC0E090BD01F090BE010091BF0110914F
:1073E000C001B6E46B16D9F4ED2DF0E0EE29FF29CB
:1073F000E4918E2FEADEDD2081F082E090E0A0E0D3
:10740000B0E0E80EF91E0A1F1B1FE092BD01F092CA
:10741000BE010093BF011093C001DC2418C0D80145
:10742000C701B695A7959795879575D5CEDE82E06D
:1074300090E0A0E0B0E0E80EF91E0A1F1B1FE092EA
:10744000BD01F092BE010093BF011093C0012197CE
:10745000209709F0BECF7DC08090BD019090BE0105
:10746000A090BF01B090C00196E4691609F05DC01C
:1074700083E0F40180935700E89507B600FCFDCF48
:1074800054C0F6E46F1661F5772031F1E090BD014C
:10749000F090BE010091BF011091C0017EDED82E98
:1074A000CC24852D90E08C299D29F7010C01409278
:1074B0005700E895112482E090E0A0E0B0E0E80EEB
:1074C000F91E0A1F1B1FE092BD01F092BE0100933E
:1074D000BF011093C00102C060DE582E742423C087
:1074E000E090BD01F090BE010091BF011091C0017C
:1074F00016950795F794E79450DE682FC70113D5CA
:107500008091BD019091BE01A091BF01B091C001D9
:107510000296A11DB11D8093BD019093BE01A09361
:10752000BF01B093C001219704C05524772444249F
:107530004394209709F0A5CF96E4691641F485E0BD
:10754000F40180935700E89507B600FCFDCF8DE06D
:107550003CDE82E080936F009CC0833471F4009124
:10756000BD011091BE0119DE90E021E0F8010C018F
:1075700020935700E89511247CCE833619F5E090CE
:10758000BD01F090BE010091BF011091C00105DE68
:10759000F701E16090E021E00C0120935700E895AD
:1075A000112482E090E0A0E0B0E0E80EF91E0A1F8E
:1075B0001B1FE092BD01F092BE010093BF0110932A
:1075C000C00157CE8D3661F4E091BD01F091BE014E
:1075D00085E080935700E89507B600FCFDCF49CEC3
:1075E000823551F4E091BD01F091BE0105911491F5
:1075F000812FEBDD802F4CC0843421F5E090BD015C
:10760000F090BE010091BF011091C0011695079541
:10761000F794E794C2DD682FC70185D48091BD013E
:107620009091BE01A091BF01B091C0010296A11D31
:10763000B11D8093BD019093BE01A093BF01B09393
:10764000C00117CE843609F5E090BD01F090BE016F
:107650000091BF011091C001D801C701B695A7954F
:107660009795879558D4B1DD82E090E0A0E0B0E036
:10767000E80EF91E0A1F1B1FE092BD01F092BE0129
:107680000093BF011093C00104C08B3111F08FE350
:107690009CDD83E08093E9009091E8008091E80010
:1076A0008E778093E80095FF04C010C08EB38823C6
:1076B000C9F08091E80080FFF9CF8091E8008E77D3
:1076C0008093E80003C08EB3882361F08091E800C6
:1076D00080FFF9CF84E08093E9008091E8008B7708
:1076E0008093E800DF91CF911F910F91FF90EF9071
:1076F000DF90CF90BF90AF909F908F907F906F90D2
:107700005F904F9008959091C501892F8F778132B6
:1077100049F58091C6018032A1F0813219F5913A84
:1077200009F58091E800877F8093E8008CE091E084
:1077300067E070E027D28091E8008B778093E800C3
:107740000895913279F48091E800877F8093E80072
:107750008CE091E067E070E079D28091E8008E776C
:107760008093E800089582E061EC42E0D1D083E0AC
:1077700061E842E1CDD084E060E842E1C9C01F93F6
:10778000209100081092000844B714BE88E10FB69B
:10779000F89480936000109260000FBE80E8E0E0F3
:1077A000F0E00FB6F89480936100E09361000FBEA3
:1077B00031E035BF92E095BF3F9A209A559A809369
:1077C00061001092610047985D9A289A1092890092
:1077D0008AEF8093880090936F0083E0809381000C
:1077E000859194918F5F9F4F11F03093BC01942F3E
:1077F00041FF19C0809109012817A9F08093000862
:10780000789480911301882339F08091BA01909186
:10781000BB018F5E9240C8F3F8941092000881E09B
:10782000809313010CC090FF04C08091BC01882399
:1078300051F493FF09C080910901281729F0809124
:10784000BC01882309F04EDCD4D078941092B901A1
:107850001092B8011EEF20C0D7DC4BD38091B80145
:107860009091B90181549F4110F0109213018091C1
:10787000C1019091C20101969093C2018093C10110
:10788000292F97FF03C0512F591B252F220F28178F
:1078900010F4479801C0479A809113018823E1F6BC
:1078A0008091E00081608093E0001CDC80E090E04B
:1078B0001F910895FA01923049F0933061F09130B0
:1078C000F9F484E191E022E130E01EC086E291E02B
:1078D0002EE330E019C0882329F484E691E024E007
:1078E00030E012C0813029F488E691E02EE130E0EA
:1078F0000BC0823029F488E891E02AE230E004C02D
:1079000080E090E020E030E091838083C901089519
:107910008093E9008091EB0081608093EB001092EE
:10792000ED006093EC004093ED008091EE00881F25
:107930008827881F08958091C50188238CF403C08F
:107940008EB38823B1F08091E80082FFF9CF809157
:10795000E8008B778093E80008958EB3882349F080
:107960008091E80080FFF9CF8091E8008E778093C6
:10797000E8000895EF92FF920F931F9345D04CD0EB
:1079800008ED10E0F80180818F7780838081806826
:10799000808380818F7D808319BC1EBA1092C301C1
:1079A00080EEE82EF12CF70180818B7F8083F80137
:1079B00080818160808380E060E042E0A9DFE1EEC9
:1079C000F0E080818E7F8083E2EEF0E08081816054
:1079D0008083808188608083F70180818E7F8083AF
:1079E000F8018081806180831F910F91FF90EF905B
:1079F0000895E7EDF0E08081816080838AE482BFB2
:107A000081E08093C401B6CFE8EDF0E080818E7F05
:107A100080831092E20008951092DA001092E10043
:107A200008951F920F920FB60F9211242F933F9338
:107A30004F935F936F937F938F939F93AF93BF9376
:107A4000EF93FF938091DA0080FF1BC08091D800F4
:107A500080FF17C08091DA008E7F8093DA008091DA
:107A6000D90080FF0BC080E189BD82E189BD09B4E6
:107A700000FEFDCF81E08EBB3BD203C019BC1EBA15
:107A800037D28091E10080FF17C08091E20080FF33
:107A900013C08091E2008E7F8093E2008091E2002B
:107AA00080618093E2008091D80080628093D8004A
:107AB00019BC85E08EBB1CD28091E10084FF2CC0F4
:107AC0008091E20084FF28C080E189BD82E189BD08
:107AD00009B400FEFDCF8091D8008F7D8093D8003F
:107AE0008091E1008F7E8093E1008091E2008F7EA3
:107AF0008093E2008091E20081608093E2008091B7
:107B0000C301882331F48091E30087FD02C081E046
:107B100001C084E08EBBECD18091E10083FF21C0E5
:107B20008091E20083FF1DC08091E100877F8093F8
:107B3000E10082E08EBB1092C3018091E1008E7F54
:107B40008093E1008091E2008E7F8093E20080913B
:107B5000E20080618093E20080E060E042E0D8DEF5
:107B6000C7D1FF91EF91BF91AF919F918F917F917D
:107B70006F915F914F913F912F910F900FBE0F909A
:107B80001F9018959C014091CB015091CC01461754
:107B9000570718F4F90190E044C06115710511F020
:107BA000AB01F8CF8091E8008E778093E80040E049
:107BB00050E0F0CF8EB3882309F444C0853009F437
:107BC00043C08091E80083FF02C081E00895809166
:107BD000E80082FD31C08091E80080FF22C08091E2
:107BE000F3009091F200782F60E0292F30E0262BEF
:107BF000372B07C081918093F100415050402F5F97
:107C00003F4F4115510519F02830310598F390E0A8
:107C10002830310509F491E08091E8008E77809357
:107C2000E8004115510531F6992321F605C08EB3C0
:107C3000882341F0853041F08091E80082FFF7CF42
:107C400080E0089582E0089583E008959C01611525
:107C5000710529F48091E8008B778093E800F901A1
:107C600026C08EB3882391F1853091F18091E80090
:107C700083FF02C081E008958091E80082FFF1CF88
:107C800006C08091F10081936150704059F02091BD
:107C9000F3008091F200322F20E090E0822B932BB2
:107CA000892B79F78091E8008B778093E800611544
:107CB0007105B9F605C08EB3882341F0853041F0D7
:107CC0008091E80080FFF7CF80E0089582E008957A
:107CD00083E008950F931F93DF93CF9300D0CDB728
:107CE000DEB7E5ECF1E08091F100819381E0ED3CBD
:107CF000F807C9F708DD8091E80083FFE4C08091B0
:107D0000C5019091C601953009F46DC0963040F4DC
:107D1000913081F1913070F0933009F0D4C02AC0D5
:107D2000983009F4A3C0993009F4B2C0963009F034
:107D3000CAC07CC0803809F4C6C0823809F0C3C00C
:107D40008091C90187708093E9008091EB001092C7
:107D5000E9002091E800277F2093E80090E025E0EB
:107D6000969587952A95E1F781708093F10010929E
:107D7000F10087C0882319F0823009F0A4C08F7108
:107D8000823009F0A0C08091C701882331F520918D
:107D9000C901277009F497C02093E9008091EB0096
:107DA00080FF1BC0933021F48091EB00806213C0F0
:107DB0008091EB0080618093EB0081E090E002C055
:107DC000880F991F2A95E2F78093EA001092EA0043
:107DD0008091EB0088608093EB001092E900809125
:107DE000E800877F51C0882309F06DC01091C7015A
:107DF0001F770FB7F8948091E800877F8093E800A1
:107E00009ADD8091E80080FFFCCF8091E3008078CC
:107E1000812B8093E30080688093E300112311F4A9
:107E200082E001C083E08EBB0FBF4DC0805882301E
:107E300008F049C08091C7019091C8016091C901C3
:107E4000AE014F5F5F4F36DDBC01009709F43BC0C8
:107E50008091E800877F8093E80089819A8192DE93
:107E60008091E8008B778093E8002DC0803859F529
:107E70008091E800877F8093E8008091C301809320
:107E8000F1008091E8008E778093E80054DD1BC0FC
:107E90008823C9F49091C7019230A8F48091E8003A
:107EA000877F8093E8009093C30145DD8091C301F3
:107EB000882331F48091E30087FD02C081E001C096
:107EC00084E08EBB50DC8091E80083FF0AC0809183
:107ED000EB0080628093EB008091E800877F8093C5
:107EE000E8000F900F90CF91DF911F910F910895AF
:107EF00008951F938EB3882361F01091E9001092CA
:107F0000E9008091E80083FF01C0E4DE1770109360
:107F1000E9001F910895F999FECF92BD81BDF89AAD
:107F2000992780B50895262FF999FECF1FBA92BDE3
:107F300081BD20BD0FB6F894FA9AF99A0FBE01964A
:067F40000895F894FFCF44
:107F46004341544552494E41007700080000000065
:107F56000000080112011001020000084F1B0592E3
:107F660001000201000109023E00020100803209FF
:107F7600040000010202010005240010010424028D
:107F8600040524060001070582030800FF09040111
:107F960000020A000000070504021000010705831D
:107FA60002100001040309041E03500072006F0052
:107FB60020004D006900630072006F00200035004C
:107FC60056002000200000002A03530070006100C4
:107FD60072006B00460075006E00200045006C00C4
:107FE60065006300740072006F006E006900630034
:047FF6007300000014
:040000030000700089
:00000001FF
