:100000000C94EE000C9416010C9416010C9416013D
:100010000C9416010C9416010C9416010C94160104
:100020000C9416010C9416010C949B0D0C940D0E5F
:100030000C9416010C9416010C9416010C941601E4
:100040000C9416010C9416010C9416010C941601D4
:100050000C9416010C9416010C9416010C942003B8
:100060000C9416010C9416010C9416010C941601B4
:100070000C9416010C9416010C9416010C941601A4
:100080000C9416010C9416010C9416010C94160194
:100090000C9416010C9416010C9416010C94160184
:1000A0000C9416010C9416010C941601770C7A0C22
:1000B000690C6D0C730C9B0C9B0C9B0C7E0C820CC6
:1000C000860C8C0C900C9B0C960C63825363000185
:1000D00008000604000145000082000040002000E6
:1000E00000000200090F0000030401000C000000E2
:1000F0000000000000000000000000000000000000
:1001000000240027002A002D0030000000000025F8
:100110000028002B002E00310000000000230026E4
:100120000029002C002F0004040404040304050229
:100130000202020403020202020606060606060482
:10014000040202020404040802011040804010204E
:10015000408040800802040180402010020110808D
:100160001020404020080B00020202010009040098
:100170000001020200000524001001052401010114
:10018000042402060524060001070581031000402F
:1001900009040100020A00000007050202400000F5
:1001A000070583024000000403090412010002EF66
:1001B0000201404F1B0692000101020301537061CE
:1001C000726B46756E00537061726B46756E20508F
:1001D000726F204D6963726F0000C01511241FBE3D
:1001E000CFEFDAE0DEBFCDBF12E0A0E0B1E0ECE897
:1001F000FCE202C005900D92AC30B107D9F725E0C2
:10020000ACE0B2E001C01D92AE36B207E1F710E0FB
:10021000CEEED0E004C02197FE010E941216CD3E22
:10022000D107C9F70E9423120C9444160C940000C5
:100230003FB7F89480914A0290914B02A0914C02F2
:10024000B0914D0226B5A89B05C02F3F19F001962D
:10025000A11DB11D3FBFBA2FA92F982F8827820F4C
:10026000911DA11DB11DBC01CD0142E0660F771F9C
:10027000881F991F4A95D1F708958091B60290E0A2
:10028000982F88272091B702822B44972091D4027F
:1002900030E044E0359527954A95E1F7220F331F6A
:1002A000220F331F821B930B97FF02C080E090E068
:1002B00008952091CA023091C8023093CA02209357
:1002C000C8022091CB023091C9023093CB02209317
:1002D000C90220ED32E0A4EDB2E0F9014291840FB1
:1002E000911D4E918C93662311F0408301C01082C2
:1002F000892F992744E04E0F4213F0CF1092D80275
:100300001092D90280E58093D40208950F931F9331
:10031000CF93DF9370E06A557D4F213021F48A013D
:10032000075F1F4F0CC0223039F000E010E0980149
:10033000DB011196EA0106C08A010250110920E092
:1003400030E0F6CFC230D10578F0FD013197E08181
:10035000F0E0FE2FEE279C91E92B0E0F1F1F211DB1
:10036000311D22971296EECFFA01EE7FE60FF71FAE
:1003700040FF0CC0408150E060E070E0762F652FB8
:10038000542F4427040F151F261F371FA901662766
:100390007727411551056105710519F0222733278B
:1003A000F1CF00951095E82FF0E0EA55FD4F10834E
:1003B0000183DF91CF911F910F910895E6EAF2E05A
:1003C000108E118E80E4848B158A868B20E044E1A8
:1003D00050E06EE088E10C948601CF92DF92EF92BC
:1003E000FF920F931F938634910568F12091C90203
:1003F000233449F5C090D402D090D502E090D602C3
:10040000F090D70200911702109118022091190262
:1004100030911A02C016D106E206F306A1F4E0EC10
:10042000F3E08A559D4F9F012E5F3F4F41815081E0
:10043000553319F45281561741F0F901E40FF11DBB
:10044000E817F90780F380E001C081E01F910F9168
:10045000FF90EF90DF90CF900895E0910C02F09123
:100460000D029F012F5F3F4F30930D0220930C022E
:1004700080830895EF92FF920F931F93CF93DF93A2
:100480001F92CDB7DEB7062F142F59830E942D027D
:10049000802F0E942D02E12E5981F52E100F1E157E
:1004A00031F0F70181917F010E942D02F8CF0F906A
:1004B000DF91CF911F910F91FF90EF9008950895D4
:1004C00080E090E00895EF92FF920F931F93CF93F7
:1004D000DF9300D01F92CDB7DEB7F901809196026D
:1004E0009091970201969093970280939602809143
:1004F0009502043F114021F081608093950250C025
:1005000091E02081213009F090E020919302922B1C
:100510009093930290819230A8F481E090E031E0D2
:10052000DF01A80FB91F2C91281301C030E02091E2
:100530009502322B309395020196843F21E0920779
:1005400071F703C0816080939502809194028111BC
:1005500027C07A018B018FE49BE4A0E089839A8312
:10056000AB83CE0101960E949811A701B801CE017C
:1005700001960E949811A701B801CE0101960E9430
:100580009811A701B801CE0101960E949811A70108
:10059000B801CE0101960E94981181E080939402E7
:1005A0000F900F900F90DF91CF911F910F91FF90BF
:1005B000EF9008958F929F92AF92BF92CF92DF9269
:1005C000EF92FF926B017C010E9418014B015C01CC
:1005D000C114D104E104F104F1F00E941801DC011E
:1005E000CB0188199909AA09BB09883E9340A10546
:1005F000B10570F321E0C21AD108E108F10888EED4
:10060000880E83E0981EA11CB11CC114D104E10422
:10061000F10419F7DDCFFF90EF90DF90CF90BF90FE
:10062000AF909F908F9008952FB7F89460914602F5
:100630007091470280914802909149022FBF08951E
:100640001F920F920FB60F9211242F933F938F9307
:100650009F93AF93BF938091460290914702A091E0
:100660004802B09149023091450223E0230F2D3713
:1006700020F40196A11DB11D05C026E8230F0296A6
:10068000A11DB11D2093450280934602909347021D
:10069000A0934802B093490280914A0290914B0284
:1006A000A0914C02B0914D020196A11DB11D809305
:1006B0004A0290934B02A0934C02B0934D02BF911B
:1006C000AF919F918F913F912F910F900FBE0F90FF
:1006D0001F901895DC0196E0FB0101900D929A9510
:1006E000E1F70895CF93DF93EB0144E050E0BC01C4
:1006F00082EC92E00E943716892B39F46CEB72E0A1
:10070000CE010E946A0381E001C080E0DF91CF91B9
:100710000895BC0186EA92E00E946A0364E572E0F3
:100720008CEA92E00C946A03FB0140815181628162
:100730007381FC01408351836283738308958CEA43
:1007400092E00E94890360EC72E084EC92E00E94E7
:10075000940362E075E080EC92E00E9494030C94B4
:10076000DE01CF93DF9300D0CDB7DEB769837A8304
:100770000E94890369817A8184EC92E00E9494034B
:1007800062E075E080EC92E00F900F90DF91CF91E6
:100790000C949403EF92FF920F931F93CF93DF93E8
:1007A000182F092FEB01F42EE52ECB010E947A11B0
:1007B000BE01882319F080E392E002C086E392E054
:1007C0000E94B1032881207F203E91F08881998189
:1007D000AA81BB818F3F9F4FAF4FBF4F49F044E08D
:1007E00050E0BE018AE592E00E943716892B31F471
:1007F0006EE271E086EA92E00E946A0388E08093EC
:10080000B2021092B30249E050E066ED70E084EB72
:1008100092E00E94E7151092B60281E18093BD023A
:10082000E092CA02F092CB020093C8021093C90270
:100830001092CC021092CE021092CF02DF91CF9193
:100840001F910F91FF90EF9008958EBD0DB407FE9C
:10085000FDCF089561E0809151020E940E117894BD
:100860000895F89460E0809151020C940E110F935A
:100870001F93CF93DF93EC018B010E9431042097EB
:10088000B9F08AE30E9425041EBCF801CE0101974D
:1008900039F00DB407FEFDCF2EB51EBC2193F7CF66
:1008A0002197C00FD11F0DB407FEFDCF8EB58883F1
:1008B000DF91CF911F910F910C942A04CF93DF9376
:1008C00000D01F92CDB7DEB74B836A8389830E9425
:1008D00031046A816F718981862B0E9425044B81C6
:1008E000842F0E9425040F900F900F90DF91CF91DD
:1008F0000C942A041F93CF93DF93182F1076C12FE7
:10090000D0E020910E0230E0C217D307A1F043E0FF
:100910006FE180EA0E945E0410930E02AE0185E052
:10092000559547958A95E1F76FE180E8DF91CF9182
:100930001F910C945E04DF91CF911F9108951F9336
:10094000CF93DF931F92CDB7DEB7182F69830E9434
:100950007A044981612F80E40F90DF91CF911F913C
:100960000C945E041F93CF93DF931F92CDB7DEB735
:10097000182F79830E949F047981672F81E0810F6E
:100980000F90DF91CF911F910C949F041F93CF93F1
:10099000DF931F92CDB7DEB7182F0E947A040E9412
:1009A0003104812F8F710E94250480E00E9425046C
:1009B00017FF03C080E00E9425048EB589830E9442
:1009C0002A0489810F90DF91CF911F9108950F9391
:1009D0001F93CF93DF9300D000D000D0CDB7DEB708
:1009E00080911102882389F060910F0270911002AA
:1009F0006115710519F46FEF7BE002C06150710958
:100A00008CE00E94B2041092110289E30E94C60495
:100A10008823C9F160910F027091100280E00E945A
:100A2000B204BE016F5F7F4F86E090E00E94370402
:100A300089819A819093100280930F020B811C810F
:100A400080915202909153022D8127FF0DC0019792
:100A5000045011098017910708F48C0166EA72E0CE
:100A6000C8010E94370402C000E010E0F801EA5516
:100A7000FD4F108281E08093110240E46EE180E836
:100A80000E945E0402C000E010E0C80126960FB686
:100A9000F894DEBF0FBECDBFDF91CF911F910F91B4
:100AA0000895CF93DF93EC0140E86FE180E80E9466
:100AB0005E0440E86FE180EA0E945E044AE06CE177
:100AC00080EA0E945E0460E07CE082E00E94B20462
:100AD000BE01745F86E00E94B20440E060E08AE7F5
:100AE0000E945E040E943104209751F40E942A045F
:100AF00048E06FE180E80E945E04C0E0D0E01CC0E6
:100B00008AE70E9425048091A6028EBDE7EAF2E002
:100B1000CA55DD4FEC17FD0731F081910DB407FE8A
:100B2000FDCF8EBDF7CF0DB407FEFDCFDFCF2196F1
:100B3000C83E83E0D80729F08CE10E94C6048A7081
:100B4000B1F38CE10E94C60481FD03C0C83ED340CE
:100B500039F448E06FE180EADF91CF910C945E04B4
:100B6000DF91CF9108950F931F93CF938C018EE265
:100B700091E00E948903E6EAF2E088E08487C6E01B
:100B8000C58748E050E06EEC70E084EB92E00E9494
:100B9000E715E6ECF2E0DF011D92CA95E9F764E59E
:100BA00072E08CEB92E00E946A03B8018CEC92E058
:100BB0000E94940362E075E082EC92E00E9494034C
:100BC0008AE290E0CF911F910F910C9451050F9301
:100BD0001F93CF93DF93EC0106EA12E04C96F801E5
:100BE000908B818B0E94DE01CE010896F80196A3BE
:100BF00087A3AE01405F5F4F21E06AE188E20E9477
:100C00008601CE018A96DF91CF911F910F910C94AE
:100C10005105EF92FF920F931F93CF93DF938C01B7
:100C200086E191E0E6EAF2E0DF019C011D922150AD
:100C30003040E1F780912702833019F06EE271E0D5
:100C400002C062E172E043E450E084E490E00E947C
:100C5000CA036EE271E086EA92E00E946A0381E0D4
:100C60008093D0028093D10286E08093D20280915B
:100C7000170290911802A0911902B0911A02809364
:100C8000D4029093D502A093D602B093D702F090ED
:100C9000270233E0F31206C062E075E08CED92E0CB
:100CA0000E94940364E572E08CEE92E00E946A0375
:100CB0008CEB93E090930D0280930C02CAECD0E091
:100CC000EC2E84E0E80EFE0184910E942D02219614
:100CD000EC12F9CF85E30E942D0281E00E942D02E3
:100CE000FF2011F083E001C081E00E942D028DE31E
:100CF0000E942D0287E00E942D0281E00E942D02B9
:100D0000C4E5D2E0FC2E26E0F20EFC1621F089911B
:100D10000E942D02FACF80910001882371F0E0E05B
:100D2000F1E001900020E9F73197BF016050714078
:100D300040E051E08CE00E943A020115110559F0A3
:100D4000A80164E082E30E943A0242E152E064E0DA
:100D500086E30E943A0287E30E942D0283E00E940C
:100D60002D0281E00E942D0283E00E942D0286E088
:100D70000E942D028FEF0E942D0280910C02909113
:100D80000D02805D9240DF91CF911F910F91FF90F6
:100D9000EF900C94E705262F20612093D502643054
:100DA00021F0009711F481E090E061E00E94590188
:100DB0001092B60288E28093B7020E949F0384E0FB
:100DC0008093D6021092D70222E04CE150E06AE113
:100DD00082E30E94860186E390E00C9451058F9295
:100DE0009F92AF92BF92CF92DF92EF92FF920F93BA
:100DF0001F93CF93DF9300D000D01F92CDB7DEB703
:100E00007C0180916902882309F43DC18091270209
:100E1000823009F488C030F4882381F1813009F4EC
:100E20004DC031C1833021F0843009F47CC02BC126
:100E30008090230290902402A0902502B090260278
:100E40002FEF82169206A206B20609F41CC10E9478
:100E5000140300911F021091200220912102309171
:100E60002202DC01CB01801B910BA20BB30B881576
:100E70009905AA05BB0508F0D7C105C10E94140356
:100E800060931702709318028093190290931A02CC
:100E900010920205109203051092040510920505A8
:100EA00080E090E00E94090688E30E94C604682F53
:100EB000616088E30E949F0481E028C062E0C7016E
:100EC0000E94ED018823A9F160EE72E0CE01019647
:100ED0000E949403E0ECF3E0C7018A559D4FBF01E7
:100EE0006E5F7F4F21813081363329F482E192E0B9
:100EF0000E94940306C0FB01E20FF11DE817F907F9
:100F000070F3CE0101960E94090682E080932702C9
:100F10000E94140360931B0270931C0280931D02B5
:100F200090931E02B0C065E0C7010E94ED018111DF
:100F300019C00E94140300911B0210911C02209101
:100F40001D0230911E02DC01CB01801B910BA20B14
:100F5000B30B81319742A105B10508F494C01092FA
:100F6000270291C080911602811108C088E30E9477
:100F7000C604682F6E7F88E30E949F0460EE72E0D3
:100F800082E095E00E949403E0ECF3E0C7018A550B
:100F90009D4F5C018F010E5F1F4F918080818630D5
:100FA000A9F048F4813071F0833009F045C0B801F0
:100FB0008EE592E00EC08A3379F08F3FD9F183330A
:100FC000D9F50AC0B8018EEF94E003C0B80185E6F8
:100FD00092E00E94940330C0D801369620E030E0C1
:100FE000A9018D91742F632F522F44279A01AB01D1
:100FF000280F311D411D511DAE17BF0791F72093DA
:1010000023023093240240932502509326022F3F5F
:101010009FEF39074907590779F0A8EEB3E00E941E
:1010200018166093230270932402809325029093F4
:10103000260202C081E001C080E0F801E90DF11D47
:10104000811104C0EA15FB0508F4A4CF0E94140323
:1010500060931F02709320028093210290932202DA
:1010600080915E02882361F0109264021092630204
:1010700081E0809362026EE572E0CB010E949403EE
:1010800083E080932702E114F10409F0B2C080915B
:101090006202857051F08091630290916402892B05
:1010A00021F40E94E81182FDC5C0809163029091F5
:1010B00064020196909364028093630280914402DB
:1010C000813009F070C08091620281FF6CC082E0C3
:1010D00080934402809121018F5F80932101182F1A
:1010E0001F718EE392E00E947A116EE372E0882312
:1010F00019F080E392E002C086E392E00E94B1031F
:1011000008E00093B2021092B30249E050E066EDAD
:1011100070E084EB92E00E94E7158CE28093B702C6
:1011200086E08093BD020E94DE011092CA021092F6
:10113000CB028BE08093C8021093C902ECECF2E082
:10114000DF011D920A95E9F7809120018093CE027C
:101150008D5F8093200180E68093D40282E08093AB
:10116000D50293E09093D6021092D7021092D80243
:101170001092D9021092DA021092DB028093DC0204
:1011800094E09093DD028093DE0286E28093DF029A
:1011900022E040E250E06AE182E30E9486018AE3B5
:1011A00090E00E94510585E692E00E947A11882322
:1011B00049F080914302811105C080914202882349
:1011C00009F442C08EE392E00E947A11882309F468
:1011D000B1C080913D028111ADC080913C0281116E
:1011E000A9C08EE392E00E94B30581E080933C02A7
:1011F000A1C0B9E2EB16F10408F49CC08091B202E0
:10120000883009F097C08091B302863009F08CC015
:1012100044E050E062E075E08CEC92E00E9437160A
:10122000892B09F087C018C082E095E00E9409066A
:1012300084E06CCE8EE592E00E94B305809162025C
:1012400088608093620231CF85E692E00E94B30508
:1012500081E080934202B6CF8091BB02813029F5B4
:101260008CEA92E00E9489031092BA0282E0809395
:10127000BB026CEB72E086EC92E00E946A0364E5CC
:1012800072E08CEB92E00E946A0362EC72E08CECFC
:1012900092E00E94940362E075E082EC92E00E948A
:1012A00094038AE290E00E9451058091620283FFDC
:1012B0000CC01091BB02123041F466E372E08EE57F
:1012C00092E00E947203811126C080914302811135
:1012D0000CC080914202882341F060E372E085E611
:1012E00092E00E947203811119C080913D02811128
:1012F00021C080913C028823E9F060E372E08EE334
:1013000092E00E9472038823A9F081E080933D025D
:1013100010923C020FC010936202D7CF81E08093FD
:10132000430210924202E1CFF9E2EF16F10411F00C
:10133000882319F000E010E0CEC18091B40285341A
:10134000C9F744E050E062E075E084EC92E00E946E
:101350003716892BA1F044E050E06AE572E084EC96
:1013600092E00E943716892B51F044E050E06EE283
:1013700071E084EC92E00E943716892BD9F68091B7
:10138000BD028130F9F49091C8029830D9F4E0910F
:101390002E02F0912F02309719F080EC92E009951F
:1013A0000E949F031092C8028091CA02883F28F0D1
:1013B0009091CB029F5F9093CB02885F8093CA028B
:1013C000C70162C190919202911106C0E6E3EE1648
:1013D000F10408F04FC0AECF8131C1F77AE6A72EF5
:1013E00072E0B72E812C912C40E08091920290E027
:1013F00088169906DCF5D50112965C911297139622
:101400009C9113972091CA0230E0C92ED12C2C1543
:101410003D0529F58091CB02851321C014962C91AE
:1014200014972223E1F00091CD0210E00850110939
:101430002091CC0230E0322F2227020F131F40915F
:10144000C80250E0542F44272091C902422BED914D
:10145000FC9120ED32E060EC72E0099541E0BFEFD5
:101460008B1A9B0AE5E0AE0EB11CBFCF442309F4F2
:10147000ADCF60CF8091BD02863009F05BCF809107
:10148000CA028B3009F0BDC044E050E06EE372E068
:1014900080EC92E00E943716892B09F04BCF209107
:1014A000D50222FF13C0E0912C02F0912D0230975B
:1014B00059F08091CB0220E030E040E050E063E062
:1014C000829586958770099585E08FC02D830E944F
:1014D0003D018C01809144022D81823009F043C08E
:1014E000822F80712271223191F560E080E090E0DE
:1014F0000E94CB0688E18093D502E0912A02F09108
:101500002B02309741F08091C902829586958770B1
:1015100009958C0102C000E010E083E08093440252
:10152000C80188969093B6028093B7020E94DE01AC
:101530001092D8021092D902A801445E5F4F22E0B7
:101540006AE182E30E948601C801C6969DC091E0CF
:1015500090934402811103C0C801019602C080E04B
:1015600090E064E04BC0833091F50115110591F1D5
:10157000E0912C02F0912D02309761F14091D4025C
:1015800050E024E0559547952A95E1F7440F551F03
:10159000440F551FC70108974E5D5F4F841795078D
:1015A00008F4AC01C801840F951FE816F90620F471
:1015B0009701241B350B01C098018091CB0260E09C
:1015C000829586958770099569E0C8010BC08530C2
:1015D00009F4B0CE20FF0CC0833009F4ABCE69E033
:1015E000C80101960E94CB0686E080934402A2CEF9
:1015F0000115110509F49ECE60E0C8010E94CB06DA
:1016000099CE811197CE8091CB02803509F092CE90
:10161000D090D502D1FE3BC01092B6028CE28093EE
:10162000B7020E949F0382E18093D50260E081E0CF
:1016300090E00E9459011092CC021092CD0280914C
:1016400020018093CE021092CF028D5F8093200103
:1016500082E08093DC0284E08093DD0285E0809369
:10166000DE021092DF0290E69093D4028093D602BD
:1016700088E78093D70222E040E250E06AE182E30B
:101680000E9486018AE390E00E94510553CED4FE69
:1016900051CE0E943D018C01909329028093280233
:1016A000892B91F00091D40210E084E01595079504
:1016B0008A95E1F7000F111F000F111F0E5D1F4FDC
:1016C000E016F10640F436CED0FE34CE60E080E085
:1016D00090E00E94CB06C8010F900F900F900F90E2
:1016E0000F90DF91CF911F910F91FF90EF90DF90BE
:1016F000CF90BF90AF909F908F90089586E095E037
:101700000E94450C892B39F464E670E080E090E09B
:101710000E94DA02F3CF86E095E00E94450C892B07
:1017200029F086E095E00E94590DF5CF089540918B
:10173000A1025091A20220919F023091A002421773
:101740005307B4F49091E8009570E1F39091E800AC
:1017500092FD19C08093F1008091A1029091A202A4
:1017600001968F739927892B19F48EEF8093E800E7
:101770008091A1029091A20201969093A20280937F
:10178000A10281E0089580E00895DF92EF92FF9238
:101790000F931F93CF93DF93D82E8A017B01E40E22
:1017A000F51EEB01CE15DF0571F0D7FE03C0FE017B
:1017B000849101C088810E94970B21968111F2CFFC
:1017C0008FEF9FEF01C0C801DF91CF911F910F9163
:1017D000FF90EF90DF900895615030F02091F1007C
:1017E000FC0120830196F8CF289884E68093A40218
:1017F0000895CF92DF92EF92FF920F931F93CF93B2
:10180000DF936C017A018B01C0E0D0E0CE15DF05DB
:1018100089F0D8016D918D01D601ED91FC91019077
:10182000F081E02DC6010995892B11F47E0102C0DB
:101830002196ECCFC701DF91CF911F910F91FF90BF
:10184000EF90DF90CF900895CF93DF931F92CDB7A5
:10185000DEB76983DC01ED91FC910280F381E02D1C
:1018600041E050E0BE016F5F7F4F09950F90DF911F
:10187000CF91089583E08093E9008091F20088235E
:1018800019F08AE38093E8000895FC01848595852A
:1018900097FD0BC09FB7F89482E08093E900809198
:1018A000F2009FBF90E0019608959FB7F89482E000
:1018B0008093E9008091F2009FBF90E0089590E04E
:1018C000FC013197EF30F105B0F5EA5AFF4F0C9467
:1018D0001216809180008F7703C0809180008F7DE9
:1018E00080938000089580918000877FF9CF84B530
:1018F0008F7702C084B58F7D84BD0895809190005C
:101900008F7707C0809190008F7D03C080919000F9
:10191000877F8093900008958091C0008F7703C0E7
:101920008091C0008F7D8093C00008958091C20097
:10193000877F8093C20008950E9432160F931F93F1
:10194000CF93DF931F92CDB7DEB782E0898342E465
:1019500050E065E671E080E80E94C50B0E940F121E
:10196000DC0112960D911C9113970115110569F078
:10197000D801ED91FC910280F381E02DBE016F5FF3
:101980007F4FC801099597FF07C089810F90DF91AC
:10199000CF911F910F910895F80100851185E5CF32
:1019A0008F929F92AF92BF92CF92DF92EF92FF926F
:1019B0000F931F93CF93DF935C016B017A018091AA
:1019C0002D01882309F45BC08091A502882309F4C6
:1019D00056C080914F0280FF05C08091E000826078
:1019E0008093E000E70110E00AEF83E0882E9AE39D
:1019F000992E2097D9F10E94FE1181110AC0015041
:101A000009F43DC061E070E080E090E00E94DA02FD
:101A1000F0CF282F30E0C217D3070CF48C2F4FB72C
:101A2000F8948092E9009091E80095FF1DC0282F5E
:101A300030E0C21BD30BF601982F915020F081911A
:101A40008093F100FACFC20ED31E112319F09092A9
:101A5000E80009C08091E80085FD06C09092E8008A
:101A600011E0209709F010E04FBFC3CF1111C3CF91
:101A70005D9884E68093A3021E141F0444F081E065
:101A800090E0F5019383828380E090E001C0C7017C
:101A9000DF91CF911F910F91FF90EF90DF90CF904A
:101AA000BF90AF909F908F9008950E94FE1190E09C
:101AB0000895CF93DF931F92CDB7DEB7FC018485E5
:101AC000958597FD05C02FEF3FEF358724870BC025
:101AD000CE0101960E94BE11019719F4898190E010
:101AE00002C08FEF9FEF0F90DF91CF9108950F937A
:101AF0001F93CF93DF931F92CDB7DEB78C01FC010C
:101B00008485958597FF0EC0CE0101960E94BE1177
:101B1000019719F4298130E002C02FEF3FEFF8015F
:101B200035872487F801848595850F90DF91CF91C3
:101B30001F910F9108951F920F920FB60F921124CB
:101B40008F939F938091E1009091E100937F909318
:101B5000E10083FF0FC01092E90091E09093EB0049
:101B60001092EC0092E39093ED001092A50298E0A1
:101B70009093F00082FF20C093E09093E900909151
:101B8000F200992319F09AE39093E8009091A30250
:101B9000992339F09091A30291509093A302992335
:101BA00089F19091A402992339F09091A402915067
:101BB0009093A402992341F184FF10C08091E20028
:101BC0008E7E81608093E2008091E1008F7E809321
:101BD000E10080914F028E7E806111C080FF16C0AF
:101BE0008091E2008E7E80618093E2008091E1002E
:101BF0008E7E8093E10080914F028E7E8160809383
:101C00004F0204C05D9ACDCF289AD6CF9F918F9175
:101C10000F900FBE0F901F9018951F920F920FB646
:101C20000F921124CF92DF92EF92FF920F931F93A6
:101C30002F933F934F935F936F937F938F939F93D4
:101C4000AF93BF93EF93FF93CF93DF93CDB7DEB7FF
:101C50006C97DEBFCDBF1092E9008091E80083FF52
:101C6000EDC168E0CE0145960E94EC0B82EF8093B7
:101C7000E8008D8987FF05C09091E80090FFFCCFB8
:101C800003C09EEF9093E800982F907609F0C6C0AD
:101C90009E892F89188D91110CC0803829F480916C
:101CA00050028093F10002C01092F1001092F100F6
:101CB00048C1422F50E0512B913051F4811141C164
:101CC0004130510509F03DC1809150028D7F0BC01C
:101CD000933061F4811135C14130510509F031C1B2
:101CE000809150028260809350022BC1953041F464
:101CF0008091E80080FFFCCF20682093E30021C1A1
:101D0000963009F05FC0EB8CFC8C1092E9001092C9
:101D1000A2021092A102123091F51092A00210922C
:101D20009F020E949E0C99E0BE016F5F7F4FDB0116
:101D3000E92F1D92EA95E9F799831A8391E09E8332
:101D400090EA98879AEF99872091A1023091A20298
:101D5000275F3F4F3C832B838D831092E9001092C5
:101D6000A2021092A102F092A002E0929F0249E02A
:101D700050E080E00E94C50B0E949E0CE2C0F092F1
:101D8000A002E0929F020E940F12DC011296ED90D9
:101D9000FC901397E114F10409F4C0C0D701ED9150
:101DA000FC910480F581E02DBE016B5E7F4FC70181
:101DB0000995009719F00CF0C4C0C7C0F701E08482
:101DC000F184E8CF973009F4C0C0983021F481E065
:101DD0008093F100B6C0993009F0B3C0837009F068
:101DE000B4C0E3E4F1E081E021E036E3908199239F
:101DF00061F08093E9002093EB0091919093EC00C7
:101E00003093ED008F5F873089F78EE78093EA008B
:101E10001092EA008F898093A50293C08B8D9C8DD0
:101E20001092E9001092A2021092A1029093A002D7
:101E300080939F02898D811156C08E899D89913A28
:101E400059F4813209F081C047E050E066E271E068
:101E500080E00E94C50B75C0913209F076C08332D4
:101E600089F4888D90E0982F88272F89822BA0E015
:101E7000B0E08093220190932301A0932401B093BA
:101E800025015FC0803269F48091E80082FFFCCFB9
:101E900067E086E291E00E94EC0B8BEF8093E80014
:101EA00006C0823209F04DC08F8980932D01809148
:101EB0004E02882319F0EEEFFAE002C0E0E0F8E00D
:101EC0008091260190912701A0912801B0912901CC
:101ED000803B9440A105B10509F07BC080912D01A4
:101EE00080FF93C076C00E940F12DC0112960D9104
:101EF0001C9113970115110541F1D801ED91FC9149
:101F00000190F081E02DBE016B5E7F4FC801099505
:101F1000811117C0F80100851185ECCF113009F44B
:101F20004EC0133091F48F89882309F445C0823064
:101F300081F440E862E186EC91E00E9483158823F9
:101F400021F08EEF8093E80079C081E28093EB006E
:101F500075C0813029F440E868E08DEB91E0EDCF69
:101F6000833099F70E940F12DC011296ED90FC90DD
:101F700013978E010F5F1F4F6801E114F10479F090
:101F8000D701ED91FC910680F781E02DB801C701E2
:101F90000995080F111DF701E084F184EECFD801F7
:101FA0001C92F60101900020E9F73197BF016C19EE
:101FB0007D0940E0C601C1CF67EA71E002C06BEA6B
:101FC00071E06115710509F2FB01449150E080E870
:101FD00040CF0FB6F894A8958091600088618093F7
:101FE0006000109260000FBEA895EE3F2AE0F20755
:101FF00039F08091FE0A9091FF0A91838083A1CFEE
:102000001092FF0A1092FE0A9CCFEE3F8AE0F8077A
:1020100031F0808191819093FF0A8093FE0A87E7D7
:1020200097E7918380839BE088E10FB6F894A895A9
:10203000809360000FBE9093600083CF6C960FB6C4
:10204000F894DEBF0FBECDBFDF91CF91FF91EF912E
:10205000BF91AF919F918F917F916F915F914F91C0
:102060003F912F911F910F91FF90EF90DF90CF90B4
:102070000F900FBE0F901F9018956115710579F0A4
:10208000FB0101900020E9F73197AF01461B570B88
:10209000DC01ED91FC910280F381E02D099480E058
:1020A00090E008954F925F926F927F92EF92FF922D
:1020B0000F931F93CF93DF93CDB7DEB7A1970FB6E2
:1020C000F894DEBF0FBECDBF7C01FA01CB0119A28F
:1020D000223008F42AE08E010F5D1F4F422E512C52
:1020E000612C712CBF01A30192010E94F015F9012E
:1020F000CA01015011096A3014F4605D01C0695CC5
:10210000D8016C93232B242B252B61F7B801C70131
:102110000E943D10A1960FB6F894DEBF0FBECDBF52
:10212000DF91CF911F910F91FF90EF907F906F9073
:102130005F904F9008958F929F92AF92BF92CF92EF
:10214000DF92EF92FF920F931F93CF93DF937C0167
:10215000EB016C0182E0C80ED11C4701E5E08E0E58
:10216000911C00E010E0F60141916F0150E060E049
:1021700070E02AE0CE010E9452105C01E881F981F2
:102180000190F081E02D6EE2CE0109958A0D9B1D34
:10219000080F191FC814D90431F7F701458150E021
:1021A00060E070E02AE0CE010E945210800F911F83
:1021B000DF91CF911F910F91FF90EF90DF90CF9023
:1021C000BF90AF909F908F900895CF93DF93282F6B
:1021D00030E0F901E152FF4F8491F901EA5BFE4FD3
:1021E000D491F901E95DFE4FC491CC2391F08111A6
:1021F0000E945F0CEC2FF0E0EE0FFF1FE75EFE4F3A
:10220000A591B491EC91ED2381E090E021F480E080
:1022100002C080E090E0DF91CF9108951F93CF93AB
:10222000DF93282F30E0F901E152FF4F8491F9014B
:10223000EA5BFE4FD491F901E95DFE4FC491CC23D6
:10224000C9F0162F81110E945F0CEC2FF0E0EE0F09
:10225000FF1FE55FFE4FA591B4918FB7F894111160
:1022600005C09C91ED2FE095E92302C0EC91ED2B88
:10227000EC938FBFDF91CF911F910895CF93DF93A0
:1022800090E0FC01EA5BFE4F2491FC01E95DFE4F0A
:102290008491882361F190E0880F991FFC01E3503D
:1022A000FF4FC591D491FC01E55FFE4FA591B4911C
:1022B000611109C09FB7F894888120958223888393
:1022C000EC912E230BC0623061F49FB7F8943881F3
:1022D000822F809583238883EC912E2B2C939FBF94
:1022E00006C08FB7F894E8812E2B28838FBFDF912B
:1022F000CF910895CF93DF93209102052223A1F07F
:10230000FC012081222381F0A2E0B5E0CEEFD4E0F1
:102310008D91219199918227892331F485E0A6300E
:10232000B807B1F781E001C080E0DF91CF91089557
:10233000CF93DF93EC018FE194E10E94CA0388817F
:1023400099819093D1028093D00282E090E0DF9156
:10235000CF910C94E705CF93DF93BC0186E095E025
:102360000E943D10EC0166EA71E086E095E00E9473
:102370003D108C0F9D1FDF91CF910895FC0180913E
:10238000A502811103C08FEF9FEF08959FB7F894C6
:1023900082E08093E9002091F20030E012161306EB
:1023A00014F421E030E02115310559F0289884E635
:1023B0008093A4028091F10080838091F2008823B1
:1023C00019F09FBFC90108958BE68093E800F9CF0B
:1023D00061E184ED0E949F0461E082ED0E949F0410
:1023E0008AEE0E94C60480FDFBCF60E082ED0E9471
:1023F0009F0489ED0E94C60490E008952FB7F894D9
:1024000083E08093E9009091E800892F807295FF26
:1024100004C09091F20080E4891B2FBF0895809141
:102420005A0581110DC082E08093560584E08093A7
:102430005705109259051092580581E080935A056E
:1024400086E595E00895789484B5826084BD84B56E
:10245000816084BD85B5826085BD85B5816085BD9F
:1024600080916E00816080936E0010928100809157
:1024700081008260809381008091810081608093DF
:102480008100809180008160809380008091910024
:10249000826080939100809191008160809391008F
:1024A000809190008160809390008091C100846051
:1024B0008093C1008091C10082608093C1008091AF
:1024C000C10081608093C1008091C30081608093CE
:1024D000C3008091C00082608093C0008091C200E0
:1024E00081608093C20080917A00846080937A003A
:1024F00080917A00826080937A0080917A00816076
:1025000080937A0080917A00806880937A0010929C
:10251000A5021092500210924F028091D700816064
:102520008093D70080EA8093D80089B5806189BD07
:1025300089B5826089BD09B400FEFDCF61E070E01D
:1025400080E090E00E94DA028091D8008F7C806168
:102550008093D8008091E000807F8093E00080919C
:10256000E1008E7E8093E1008DE08093E200559A39
:10257000209AEEEFFFE7859194918B3F9C4D19F4E3
:1025800081E080934E028FEF9FEF9093130580932D
:1025900012050E947E0B81E691E00E94AB110E9421
:1025A0007E0B8FE791E00E94AB111092690287E3E6
:1025B00090E0C12CD12C7601C3940097C1F0FC01AE
:1025C00023E0F595E7952A95E1F7E856FD4F282F8A
:1025D0002770B701A60104C0440F551F661F771F5F
:1025E0002A95D2F72081422B40830197E6CF6CE3F6
:1025F00071E084E592E00E946A0388E592E090939E
:102600005302809352020CB406FC25C061E081E1C4
:102610000E943E1161E081E10E940E1161E080E1C3
:102620000E943E1161E08FE00E943E1160E08EE06A
:102630000E943E1161E080E10E940E1160E080E1A5
:102640000E940E1160E08FE00E940E1180E58CBDAB
:102650008DB581608DBD83E08093510261E00E9461
:102660003E110E942A044FEF60E08FEF0E945E044B
:1026700062E070E080E090E00E94DA020E943104A3
:102680008DE10E94250480E00E942504CEB50E94C1
:102690002A04CC2399F360E070E088E00E94B20441
:1026A00060E070E08CE00E94B2046FEF7BE08AE0B3
:1026B0000E94B20460E07CE084E00E94B2046FEF0C
:1026C00071E186E00E94B20461EB88E30E949F04FE
:1026D0006FE370E388E20E94B20469EF77EF80E372
:1026E0000E94B2046DE080EC0E949F0460E081ECE7
:1026F0000E949F0442E362EC80E80E945E0462E173
:102700007CE086EC0E94B20462E184EC0E949F04AB
:102710006CED75E08AEC0E94B2046091540284EE84
:102720000E949F046091550285EE0E949F04609173
:10273000560282EE0E949F046091570283EE0E942F
:102740009F046091580280EE0E949F04609159029C
:1027500081EE0E949F0460E184ED0E949F0460E08E
:1027600071E086ED0E94B2048AEE0E94C60480FDEC
:10277000FBCF8FE10E947A0440EC6BE180E80E947D
:102780005E0444E06FE180E80E945E0482E70E94FC
:10279000C604863008F08F5F811103C087E691E0A0
:1027A000C3C01092690268E371E082E095E00E9484
:1027B000940381E08093620264E371E08EE592E02D
:1027C0000E949403CEEFD4E0AAE5B2E0E2E0F5E0A7
:1027D00024E02E0F919189918095892B8D932E1352
:1027E000F9CF10926402109263020E94E81182FDF8
:1027F00003C082E791E098C08CE791E00E94AB11A2
:1028000080919202883098F495E0899FF00111241C
:10281000E659FD4F23E632E0318320832FE134E196
:102820003383228391E094838F5F8093920288E8C0
:1028300091E00E94AB1186E095E00E94450C892B47
:1028400029F40E94E7040E94EF06F5CF86E095E0A8
:102850000E94450C892B29F086E095E00E94590DD5
:10286000F5CF88E991E00E94AB1110929702109287
:1028700096021092950210929402109293020E9476
:1028800014036B017C010E941403DC01CB018C1941
:102890009D09AE09BF09883B9B40A105B10528F4FD
:1028A0000E94E7040E94EF06EECFC0909602D090FF
:1028B00097020D2C000CEE08FF08F7FE14C0E09103
:1028C0000605F09107050190F081E02D6DE286E0AC
:1028D00095E0099544275527BA014C195D096E0901
:1028E0007F092AE003C02AE0B701A60186E095E04F
:1028F0000E94521066EA71E086E095E00E943D1069
:1029000080919502811103C089EA91E002C086EBB3
:1029100091E00E94AB1180919302811103C081EC80
:1029200091E002C08AEC91E00E94AB1181ED91E050
:102930000E94AB1160E089E00E943E1161E08AE0F4
:102940000E943E1161E08AE00E943E1160E08AE050
:102950000E940E1164E670E080E090E00E94DA02CE
:1029600089E00E94E510EC0161E08AE00E943E11DE
:1029700061E08AE00E940E1164E670E080E090E081
:102980000E94DA0289E00E94E510892B29F0219744
:1029900019F086ED91E002C08CED91E00E94AB1140
:1029A00060E08AE00E943E1161E089E00E943E11F1
:1029B00061E089E00E943E1160E089E00E940E1112
:1029C00064E670E080E090E00E94DA028AE00E9413
:1029D000E510EC0161E089E00E943E1161E089E0D0
:1029E0000E940E1164E670E080E090E00E94DA023E
:1029F0008AE00E94E510892B29F0219719F084EED6
:102A000091E002C089EE91E00E94AB1160E085E0A8
:102A10000E943E1161E086E00E943E1161E086E086
:102A20000E943E1160E086E00E940E1164E670E0B4
:102A300080E090E00E94DA0285E00E94E510EC015F
:102A400061E086E00E943E1161E086E00E940E1186
:102A500064E670E080E090E00E94DA0285E00E9487
:102A6000E510892B29F0219719F080EF91E002C041
:102A700085EF91E00E94AB1160E086E00E943E117C
:102A800061E085E00E943E1161E085E00E943E1118
:102A900060E085E00E940E1164E670E080E090E066
:102AA0000E94DA0286E00E94E510EC0161E085E018
:102AB0000E943E1161E085E00E940E1164E670E024
:102AC00080E090E00E94DA0286E00E94E510892B07
:102AD00029F0219719F08CEF91E002C081E092E09B
:102AE0000E94AB1188E092E00E94AB11C0E0D0E000
:102AF00060E876E988E990E00E94DA022097C1F365
:102B00000E940000F5CFCF92DF92EF92FF920F93D9
:102B10001F93CF93DF931F92CDB7DEB7182F062FE9
:102B2000E42E862F880F8E5F99830E94970B83E097
:102B30000E94970BF12EC12E9981D92E8C2D8F19C1
:102B4000801798F4F601E7FE02C0849101C08081ED
:102B50000E94970B182F80E00E94970B8123FFEFB4
:102B6000CF1ADF0A8111EACF01C081E00F90DF9117
:102B7000CF911F910F91FF90EF90DF90CF9008952C
:102B8000E2E6F5E08FE591E0918380831282138283
:102B900014821582E6E0F5E01382128248EE53E0DB
:102BA00060E070E044835583668377832DE431E0F1
:102BB000318320832FEF3FEF35872487E8E6F5E068
:102BC0009183808312821382148215820895FB01FF
:102BD000DC0102C005900D9241505040D8F7089595
:102BE000A1E21A2EAA1BBB1BFD010DC0AA1FBB1F11
:102BF000EE1FFF1FA217B307E407F50720F0A21B83
:102C0000B30BE40BF50B661F771F881F991F1A94EF
:102C100069F760957095809590959B01AC01BD0119
:102C2000CF010895EE0FFF1F0590F491E02D099458
:102C30000E942316A59F900DB49F900DA49F800D18
:102C4000911D11240895A29FB001B39FC001A39FBD
:102C5000700D811D1124911DB29F700D811D1124D5
:102C6000911D089581E090E0F8940C944416FB01C6
:102C7000DC0104C08D910190801921F44150504035
:0C2C8000C8F7881B990B0895F894FFCF4B
:102C8C0041726475696E6F2D454E4332386A363029
:102C9C002D3030000000000000000000000000009B
:102CAC000A01FFFFFFFF00E1000000000000FFFF32
:102CBC00FFFFFFFFC0A80201C0A8020B7469692DB9
:102CCC00301100C1808100000000000000240CD0F5
:102CDC000C550D3A0C450C590D770D000000009B5E
:102CEC001048454C4C4F004641494C204245474901
:102CFC004E004641494C204C494E4B004F4B204511
:102D0C00544845524E4554004E4554574F524B5F14
:102D1C0050524550415245004E4554574F524B5F0F
:102D2C005354415254000D0A004641494C20434F24
:102D3C005252555054004F4B20434F525255505401
:102D4C00004641494C2041434B004F4B2041434BE3
:102D5C000050494E53004F4B203130004641494CF6
:102D6C00203130004F4B2039004641494C2039006E
:102D7C004F4B2036004641494C2036004F4B2035F6
:0C2D8C00004641494C203500454E4400F3
:00000001FF
