:100000000C94E7000C940F010C940F010C940F0159
:100010000C940F010C940F010C940F010C940F0120
:100020000C940F010C940F010C9443100C94B51018
:100030000C940F010C940F010C940F010C940F0100
:100040000C940F010C940F010C940F010C940F01F0
:100050000C940F010C940F010C940F010C94691D6A
:100060000C940F010C940F010C940F010C940F01D0
:100070000C940F010C940F010C940F010C940F01C0
:100080000C940F010C940F010C940F010C940F01B0
:100090000C940F010C940F010C940F010C940F01A0
:1000A0000C940F010C940F010C940F01051C081CFB
:1000B000F71BFB1BFF1B291C291C291C0C1C101CDB
:1000C000141C1A1C1E1C291C241C080B00020202F2
:1000D00001000904000001020200000524001001D3
:1000E0000524010101042402060524060001070578
:1000F000810310004009040100020A000000070506
:1001000002024000000705830240000004030904C6
:1001100012010002EF0201404F1B06920001010292
:100120000301537061726B46756E00537061726BA0
:1001300046756E2050726F204D6963726F0000012A
:100140000800060400014500008200004000200075
:10015000000000240027002A002D003000000000CD
:1001600000250028002B002E0031000404040404A4
:10017000030405020202020403020202020606064A
:1001800006060604040202020404040802011040E8
:1001900080401020408040800802040180402010F0
:1001A0000201108010204040200000000200090FD2
:1001B0000000030401000C0000000000000000002B
:1001C000000000000000006382536300E623112456
:1001D0001FBECFEFDAE0DEBFCDBF11E0A0E0B1E09F
:1001E000E2ECF9E402C005900D92A03DB107D9F709
:1001F00028E0A0EDB1E001C01D92AF36B207E1F7F3
:1002000010E0C7EED0E004C02197FE010E948924CF
:10021000C63ED107C9F70E9426210C94DF240C9416
:10022000000080E991E00895579A089580E991E0EF
:1002300008953E9A089580E090E00895FC01858538
:1002400096850895CF93DF9300D000D000D0CDB72E
:10025000DEB7AB011C821D821E82DC01ED91FC9198
:100260000190F081E02D19821A821B829E012F5F7E
:100270003F4FBE016C5F7F4F099526960FB6F894ED
:10028000DEBF0FBECDBFDF91CF9108954F925F9239
:100290006F927F928F929F92BF92CF92DF92EF9256
:1002A000FF921F93CF93DF933C01EB010F960E94C7
:1002B000F81FF894E881F98178B1706488B18F7B78
:1002C00088B9C9849E812C2D291B922F2E83BF842F
:1002D0004A805B80FC84ED84DE84F394E394D394C1
:1002E0003F8148859A848B841081D20120E0522F6F
:1002F000622F6081112788946111690F08F46FEFF4
:1003000091958894F0FC160F17958894F1FC160FC0
:1003100017958894F2FC160F17958894F3FC160F26
:1003200017958894F4FC160F17958894F5FC160F12
:1003300017958894F6FC160F17958894F7FC160FFE
:1003400017958894262FF110212F9C0D122F002C29
:1003500078B900C000C000C017FF88B961812227AA
:10036000889400C000C000C000C000C000C000C031
:10037000002C00C000C088B96111630F00C000C02C
:10038000002C78B900C000C000C016FF88B908F47E
:100390006FEF3195889400C000C000C000C000C05D
:1003A00000C000C0002C00C000C088B9E0FC260FCF
:1003B00000C000C0002C78B900C000C000C015FF0C
:1003C00088B927958894E1FC260F00C000C000C0C2
:1003D00000C000C000C000C0002C00C000C088B930
:1003E0002795889400C000C0002C78B900C000C0D8
:1003F00000C014FF88B9E2FC260F2795889400C03E
:1004000000C000C000C000C000C000C0002C00C080
:1004100000C088B9E3FC260F00C000C0002C78B9EA
:1004200000C000C000C013FF88B927958894E4FC81
:10043000260F00C000C000C000C000C000C000C047
:10044000002C00C000C088B92795889400C000C067
:10045000002C78B900C000C000C012FF88B9E5FCCC
:10046000260F2795889400C000C000C000C000C0BF
:1004700000C000C0002C00C000C088B9E6FC260FF8
:1004800000C000C0002C78B900C000C000C011FF3F
:1004900088B927958894E7FC260F00C000C000C0EB
:1004A00000C000C000C000C0002C00C000C088B95F
:1004B0002795889400C000C0002C78B900C000C007
:1004C00000C010FF88B9162FE110122F390D00C09F
:1004D00000C000C000C000C000C000C0002C00C0B0
:1004E00000C088B900C000C000C0002C78B900C0AE
:1004F00000C000C017FF88B962812227889400C01D
:1005000000C000C000C000C000C000C0002C00C07F
:1005100000C088B96111640F00C000C0002C78B918
:1005200000C000C000C016FF88B908F46FEFEB0DE3
:10053000F11D00C000C000C000C000C000C000C06D
:10054000002C00C000C088B9D0FC260F00C000C03D
:10055000002C78B900C000C000C015FF88B92795ED
:100560008894D1FC260F00C000C000C000C000C0AD
:1005700000C000C0002C00C000C088B92795889436
:1005800000C000C0002C78B900C000C000C014FF3B
:1005900088B9D2FC260F2795889400C000C000C0FF
:1005A00000C000C000C000C0002C00C000C088B95E
:1005B000D3FC260F00C000C0002C78B900C000C0DA
:1005C00000C013FF88B927958894D4FC260F00C07B
:1005D00000C000C000C000C000C000C0002C00C0AF
:1005E00000C088B92795889400C000C0002C78B955
:1005F00000C000C000C012FF88B9D5FC260F2795A7
:10060000889400C000C000C000C000C000C000C08E
:10061000002C00C000C088B9D6FC260F00C000C066
:10062000002C78B900C000C000C011FF88B9279520
:100630008894D7FC260F00C000C000C000C000C0D6
:1006400000C000C0002C00C000C088B92795889465
:1006500000C000C0002C78B900C000C000C010FF6E
:1006600088B9162FD110122F419500C000C000C0CC
:1006700000C000C000C000C0002C00C000C088B98D
:10068000480D00C000C000C078B900C000C000C064
:1006900017FF88B960812227889400C000C000C07D
:1006A00000C000C000C000C0002C00C000C088B95D
:1006B0006111690F00C000C0002C78B900C000C0F3
:1006C00000C016FF88B908F46FEF9195889400C0B8
:1006D00000C000C000C000C000C000C0002C00C0AE
:1006E00000C088B9F0FC260F00C000C0002C78B90B
:1006F00000C000C000C015FF88B927958894F1FCA0
:10070000260F00C000C000C000C000C000C000C074
:10071000002C00C000C088B92795889400C000C094
:10072000002C78B900C000C000C014FF88B9F2FCEA
:10073000260F2795889400C000C000C000C000C0EC
:1007400000C000C0002C00C000C088B9F3FC260F18
:1007500000C000C0002C78B900C000C000C013FF6A
:1007600088B927958894F4FC260F00C000C000C00B
:1007700000C000C000C000C0002C00C000C088B98C
:100780002795889400C000C0002C78B900C000C034
:1007900000C012FF88B9F5FC260F2795889400C089
:1007A00000C000C000C000C000C000C0002C00C0DD
:1007B00000C088B9F6FC260F00C000C0002C78B934
:1007C00000C000C000C011FF88B927958894F7FCCD
:1007D000260F00C000C000C000C000C000C000C0A4
:1007E000002C00C000C088B92795889400C000C0C4
:1007F000002C78B900C000C000C010FF88B9162FC7
:10080000F110122F9C0D00C000C000C000C000C03D
:1008100000C000C0002C00C000C088B900C0119703
:1008200009F096CD20EC33E0D2010E948F24DC0148
:10083000CB01F4E0B695A79597958795FA95D1F7F2
:1008400020E030E0A9016AE9469E412D569E400D08
:10085000511D1124840F951FA11DB11D893E43E038
:100860009407A105B10588F1885E9340A109B109FB
:1008700042E0B695A795979587954A95D1F747E0B9
:10088000849F212D949F200D311D11246091DE0144
:1008900070E0860F971F820F931F4091DF075091E2
:1008A000E0076091E1077091E207292F3327420F9B
:1008B000531F611D711D4093DF075093E007609344
:1008C000E1077093E2078093DE0178940E94791C1F
:1008D000F301708B6787DF91CF911F91FF90EF90AD
:1008E000DF90CF90BF909F908F907F906F905F90A0
:1008F0004F9008950F931F93CF93DF93CDB7DEB73B
:1009000062970FB6F894DEBF0FBECDBF8C01F90120
:10091000DC011C968C917A8369835C834B835E83B4
:100920004D8390819D8791819E8792819F878130A1
:1009300029F4CE0101960E94AB1F06C01C861B86BF
:100940001A86198618861F82188A1A8A198AD80167
:10095000ED91FC910484F585E02DBE016F5F7F4F22
:10096000C801099562960FB6F894DEBF0FBECDBFE1
:10097000DF91CF911F910F9108950F931F93CF9304
:10098000DF93CDB7DEB762970FB6F894DEBF0FBE28
:10099000CDBF8C01F901DC011C968C917A836983AF
:1009A0005C834B835E834D8390819D8791819E877D
:1009B00092819F87813029F4CE0101960E94AB1F5E
:1009C00006C01C861B861A86198618861F8283E03D
:1009D000888B1A8A198AD801ED91FC910484F585D7
:1009E000E02DBE016F5F7F4FC801099562960FB67B
:1009F000F894DEBF0FBECDBFDF91CF911F910F9155
:100A000008953F924F925F926F927F928F929F9242
:100A1000AF92BF92CF92DF92EF92FF920F931F930C
:100A2000CF93DF9300D01F92CDB7DEB7A801B901F5
:100A300085EE91E00E94D624F090FA078091FD07A0
:100A40009091FE07A091FF07B0910008892B8A2B97
:100A50008B2BE9F00E94791C0091D6011091D701EF
:100A60002091D8013091D901DC01CB01801B910B81
:100A7000A20BB30B0091FD071091FE072091FF0719
:100A80003091000880179107A207B307B8F20E94BF
:100A9000791C6093D6017093D7018093D80190930D
:100AA000D901E0910508F0910608309759F040917E
:100AB00001085091020860910308709104088F2D7D
:100AC0000995F82E0091DC011091DD014F2C512C7D
:100AD000612C712C0115110509F461C0D8011C9617
:100AE000EC901C978091FB079091FC078436910550
:100AF00010F41C961C92D801ED91FC91A280B38059
:100B000019821A821B82F11014C0F801458556859E
:100B1000628173819E012F5F3F4FC801F5010995E6
:100B2000D8011C96EC921C9714960D911C91159768
:100B3000D1CFF8013996CE0101966C0148019CE0B5
:100B4000890E911CDF0113973C902191332001F114
:100B50002223F1F0822F90E0A0E0B0E09C01AD01F3
:100B60002F5F3F4F4F4F5F4FC301B2010E942424BC
:100B70009B01AC01832D90E0A0E0B0E0BC01CD0171
:100B80006F5F7F4F8F4F9F4F0E942424D6018C931D
:100B9000BFEFCB1ADB0AE815F905A1F6B6CF8091B5
:100BA000D4019091D5018C010F5F1F4F1093D50197
:100BB0000093D40149979CF10E945D1D4B015C019B
:100BC00088EE93E0089FB001099F700D189F700D8B
:100BD0001124072E000C880B990BC090D001D090E7
:100BE000D101E090D201F090D301A50194012C191C
:100BF0003D094E095F090E9448243093FC07209369
:100C0000FB071092D5011092D4010E945D1D6093E4
:100C1000D0017093D1018093D2019093D3010E94AF
:100C20005D1D609337077093380780933907909361
:100C30003A0780913B078F5F80933B070F900F909F
:100C40000F90DF91CF911F910F91FF90EF90DF9068
:100C5000CF90BF90AF909F908F907F906F905F905C
:100C60004F903F900895FC0186E391E0918380834B
:100C7000138212828FEF86838783808781878287A2
:100C8000838781E084871686158615821482809179
:100C9000DC019091DD01892B21F4F093DD01E093DB
:100CA000DC01A091DA01B091DB01109721F01596DB
:100CB000FC93EE931497F093DB01E093DA0186E462
:100CC00091E09183808308955D9A0E945D1D28EED6
:100CD00033E040E050E00E94482420FD02C0289804
:100CE0000895289A08954F925F926F927F928F9203
:100CF0009F92BF92CF92DF92EF92FF921F93CF937A
:100D0000DF933C01EB010F960E94F81FF894E881F5
:100D1000F98175B1706485B18F7B85B9C9849E8175
:100D20002C2D291B922F2E83BF844A805B80FC844C
:100D3000ED84DE84F394E394D3943F8148859A84D0
:100D40008B841081D20120E0522F622F6081112705
:100D500088946111690F08F46FEF91958894F0FC05
:100D6000160F17958894F1FC160F17958894F2FCCE
:100D7000160F17958894F3FC160F17958894F4FCBA
:100D8000160F17958894F5FC160F17958894F6FCA6
:100D9000160F17958894F7FC160F17958894262F31
:100DA000F110212F9C0D122F002C75B900C000C02E
:100DB00000C017FF85B961812227889400C000C058
:100DC00000C000C000C000C000C0002C00C000C0B7
:100DD00085B96111630F00C000C0002C75B900C057
:100DE00000C000C016FF85B908F46FEF31958894F4
:100DF00000C000C000C000C000C000C000C0002C87
:100E000000C000C085B9E0FC260F00C000C0002C67
:100E100075B900C000C000C015FF85B9279588943A
:100E2000E1FC260F00C000C000C000C000C000C030
:100E300000C0002C00C000C085B92795889400C070
:100E400000C0002C75B900C000C000C014FF85B9F7
:100E5000E2FC260F2795889400C000C000C000C0A7
:100E600000C000C000C0002C00C000C085B9E3FC79
:100E7000260F00C000C0002C75B900C000C000C023
:100E800013FF85B927958894E4FC260F00C000C0A5
:100E900000C000C000C000C000C0002C00C000C0E6
:100EA00085B92795889400C000C0002C75B900C092
:100EB00000C000C012FF85B9E5FC260F2795889475
:100EC00000C000C000C000C000C000C000C0002CB6
:100ED00000C000C085B9E6FC260F00C000C0002C91
:100EE00075B900C000C000C011FF85B9279588946E
:100EF000E7FC260F00C000C000C000C000C000C05A
:100F000000C0002C00C000C085B92795889400C09F
:100F100000C0002C75B900C000C000C010FF85B92A
:100F2000162FE110122F390D00C000C000C000C004
:100F300000C000C000C0002C00C000C085B900C0C7
:100F400000C000C0002C75B900C000C000C017FF71
:100F500085B962812227889400C000C000C000C00B
:100F600000C000C000C0002C00C000C085B96111E5
:100F7000640F00C000C0002C75B900C000C000C0E4
:100F800016FF85B908F46FEFEB0DF11D00C000C02E
:100F900000C000C000C000C000C0002C00C000C0E5
:100FA00085B9D0FC260F00C000C0002C75B900C068
:100FB00000C000C015FF85B927958894D1FC260F85
:100FC00000C000C000C000C000C000C000C0002CB5
:100FD00000C000C085B92795889400C000C0002CCF
:100FE00075B900C000C000C014FF85B9D2FC260F3F
:100FF0002795889400C000C000C000C000C000C099
:1010000000C0002C00C000C085B9D3FC260F00C072
:1010100000C0002C75B900C000C000C013FF85B926
:1010200027958894D4FC260F00C000C000C000C0E3
:1010300000C000C000C0002C00C000C085B92795CA
:10104000889400C000C0002C75B900C000C000C06A
:1010500012FF85B9D5FC260F2795889400C000C0E3
:1010600000C000C000C000C000C0002C00C000C014
:1010700085B9D6FC260F00C000C0002C75B900C091
:1010800000C000C011FF85B927958894D7FC260FB2
:1010900000C000C000C000C000C000C000C0002CE4
:1010A00000C000C085B92795889400C000C0002CFE
:1010B00075B900C000C000C010FF85B9162FD1104F
:1010C000122F419500C000C000C000C000C000C089
:1010D00000C0002C00C000C085B9480D00C000C091
:1010E00000C075B900C000C000C017FF85B960819D
:1010F0002227889400C000C000C000C000C000C00B
:1011000000C0002C00C000C085B96111690F00C08B
:1011100000C0002C75B900C000C000C016FF85B922
:1011200008F46FEF9195889400C000C000C000C023
:1011300000C000C000C0002C00C000C085B9F0FC99
:10114000260F00C000C0002C75B900C000C000C050
:1011500015FF85B927958894F1FC260F00C000C0C3
:1011600000C000C000C000C000C0002C00C000C013
:1011700085B92795889400C000C0002C75B900C0BF
:1011800000C000C014FF85B9F2FC260F2795889493
:1011900000C000C000C000C000C000C000C0002CE3
:1011A00000C000C085B9F3FC260F00C000C0002CB1
:1011B00075B900C000C000C013FF85B92795889499
:1011C000F4FC260F00C000C000C000C000C000C07A
:1011D00000C0002C00C000C085B92795889400C0CD
:1011E00000C0002C75B900C000C000C012FF85B956
:1011F000F5FC260F2795889400C000C000C000C0F1
:1012000000C000C000C0002C00C000C085B9F6FCC2
:10121000260F00C000C0002C75B900C000C000C07F
:1012200011FF85B927958894F7FC260F00C000C0F0
:1012300000C000C000C000C000C0002C00C000C042
:1012400085B92795889400C000C0002C75B900C0EE
:1012500000C000C010FF85B9162FF110122F9C0D91
:1012600000C000C000C000C000C000C000C0002C12
:1012700000C000C085B900C0119709F096CD20ECE0
:1012800033E0D2010E948F24DC01CB01F4E0B6955B
:10129000A79597958795FA95D1F720E030E0A901B9
:1012A0006AE9469E412D569E400D511D1124840F22
:1012B000951FA11DB11D893E43E09407A105B1050D
:1012C00088F1885E9340A109B10942E0B695A795DF
:1012D000979587954A95D1F747E0849F212D949F54
:1012E000200D311D11246091DE0170E0860F971FE3
:1012F000820F931F4091DF075091E0076091E10753
:101300007091E207292F3327420F531F611D711D72
:101310004093DF075093E0076093E1077093E20783
:101320008093DE0178940E94791CF301708B6787AB
:10133000DF91CF911F91FF90EF90DF90CF90BF9002
:101340009F908F907F906F905F904F9008954F92F5
:101350005F926F927F928F929F92BF92CF92DF9215
:10136000EF92FF921F93CF93DF933C01EB010F9617
:101370000E94F81FF894E881F98175B1706285B117
:101380008F7D85B9C9849E812C2D291B922F2E8398
:10139000BF844A805B80FC84ED84DE84F394E39414
:1013A000D3943F8148859A848B841081D20120E0B8
:1013B000522F622F6081112788946111690F08F400
:1013C0006FEF91958894F0FC160F17958894F1FCB7
:1013D000160F17958894F2FC160F17958894F3FC56
:1013E000160F17958894F4FC160F17958894F5FC42
:1013F000160F17958894F6FC160F17958894F7FC2E
:10140000160F17958894262FF110212F9C0D122F5F
:10141000002C75B900C000C000C017FF85B96181FC
:101420002227889400C000C000C000C000C000C0D7
:1014300000C0002C00C000C085B96111630F00C05E
:1014400000C0002C75B900C000C000C016FF85B9EF
:1014500008F46FEF3195889400C000C000C000C050
:1014600000C000C000C0002C00C000C085B9E0FC76
:10147000260F00C000C0002C75B900C000C000C01D
:1014800015FF85B927958894E1FC260F00C000C0A0
:1014900000C000C000C000C000C0002C00C000C0E0
:1014A00085B92795889400C000C0002C75B900C08C
:1014B00000C000C014FF85B9E2FC260F2795889470
:1014C00000C000C000C000C000C000C000C0002CB0
:1014D00000C000C085B9E3FC260F00C000C0002C8E
:1014E00075B900C000C000C013FF85B92795889466
:1014F000E4FC260F00C000C000C000C000C000C057
:1015000000C0002C00C000C085B92795889400C099
:1015100000C0002C75B900C000C000C012FF85B922
:10152000E5FC260F2795889400C000C000C000C0CD
:1015300000C000C000C0002C00C000C085B9E6FC9F
:10154000260F00C000C0002C75B900C000C000C04C
:1015500011FF85B927958894E7FC260F00C000C0CD
:1015600000C000C000C000C000C0002C00C000C00F
:1015700085B92795889400C000C0002C75B900C0BB
:1015800000C000C010FF85B9162FE110122F390DD1
:1015900000C000C000C000C000C000C000C0002CDF
:1015A00000C000C085B900C000C000C0002C75B9E3
:1015B00000C000C000C017FF85B96281222788944F
:1015C00000C000C000C000C000C000C000C0002CAF
:1015D00000C000C085B96111640F00C000C0002CBC
:1015E00075B900C000C000C016FF85B908F46FEFE0
:1015F000EB0DF11D00C000C000C000C000C000C065
:1016000000C0002C00C000C085B9D0FC260F00C06F
:1016100000C0002C75B900C000C000C015FF85B91E
:1016200027958894D1FC260F00C000C000C000C0E0
:1016300000C000C000C0002C00C000C085B92795C4
:10164000889400C000C0002C75B900C000C000C064
:1016500014FF85B9D2FC260F2795889400C000C0DE
:1016600000C000C000C000C000C0002C00C000C00E
:1016700085B9D3FC260F00C000C0002C75B900C08E
:1016800000C000C013FF85B927958894D4FC260FAD
:1016900000C000C000C000C000C000C000C0002CDE
:1016A00000C000C085B92795889400C000C0002CF8
:1016B00075B900C000C000C012FF85B9D5FC260F67
:1016C0002795889400C000C000C000C000C000C0C2
:1016D00000C0002C00C000C085B9D6FC260F00C099
:1016E00000C0002C75B900C000C000C011FF85B952
:1016F00027958894D7FC260F00C000C000C000C00A
:1017000000C000C000C0002C00C000C085B92795F3
:10171000889400C000C0002C75B900C000C000C093
:1017200010FF85B9162FD110122F419500C000C0AF
:1017300000C000C000C000C000C0002C00C000C03D
:1017400085B9480D00C000C000C075B900C000C018
:1017500000C017FF85B960812227889400C000C0AF
:1017600000C000C000C000C000C0002C00C000C00D
:1017700085B96111690F00C000C0002C75B900C0A7
:1017800000C000C016FF85B908F46FEF91958894EA
:1017900000C000C000C000C000C000C000C0002CDD
:1017A00000C000C085B9F0FC260F00C000C0002CAE
:1017B00075B900C000C000C015FF85B92795889491
:1017C000F1FC260F00C000C000C000C000C000C077
:1017D00000C0002C00C000C085B92795889400C0C7
:1017E00000C0002C75B900C000C000C014FF85B94E
:1017F000F2FC260F2795889400C000C000C000C0EE
:1018000000C000C000C0002C00C000C085B9F3FCBF
:10181000260F00C000C0002C75B900C000C000C079
:1018200013FF85B927958894F4FC260F00C000C0EB
:1018300000C000C000C000C000C0002C00C000C03C
:1018400085B92795889400C000C0002C75B900C0E8
:1018500000C000C012FF85B9F5FC260F27958894BB
:1018600000C000C000C000C000C000C000C0002C0C
:1018700000C000C085B9F6FC260F00C000C0002CD7
:1018800075B900C000C000C011FF85B927958894C4
:10189000F7FC260F00C000C000C000C000C000C0A0
:1018A00000C0002C00C000C085B92795889400C0F6
:1018B00000C0002C75B900C000C000C010FF85B981
:1018C000162FF110122F9C0D00C000C000C000C0E8
:1018D00000C000C000C0002C00C000C085B900C01E
:1018E000119709F096CD20EC33E0D2010E948F24AD
:1018F000DC01CB01F4E0B695A79597958795FA950D
:10190000D1F720E030E0A9016AE9469E412D569EBC
:10191000400D511D1124840F951FA11DB11D893E3D
:1019200043E09407A105B10588F1885E9340A109C1
:10193000B10942E0B695A795979587954A95D1F755
:1019400047E0849F212D949F200D311D112460912B
:10195000DE0170E0860F971F820F931F4091DF0713
:101960005091E0076091E1077091E207292F33273A
:10197000420F531F611D711D4093DF075093E00715
:101980006093E1077093E2078093DE0178940E94F0
:10199000791CF301708B6787DF91CF911F91FF90C6
:1019A000EF90DF90CF90BF909F908F907F906F903F
:1019B0005F904F9008954F925F926F927F928F92B7
:1019C0009F92BF92CF92DF92EF92FF921F93CF939D
:1019D000DF933C01EB010F960E94F81FF894E88119
:1019E000F9817BB170688BB18F778BB9C9849E8187
:1019F0002C2D291B922F2E83BF844A805B80FC8470
:101A0000ED84DE84F394E394D3943F8148859A84F3
:101A10008B841081D20120E0522F622F6081112728
:101A200088946111690F08F46FEF91958894F0FC28
:101A3000160F17958894F1FC160F17958894F2FCF1
:101A4000160F17958894F3FC160F17958894F4FCDD
:101A5000160F17958894F5FC160F17958894F6FCC9
:101A6000160F17958894F7FC160F17958894262F54
:101A7000F110212F9C0D122F002C7BB900C000C04B
:101A800000C017FF8BB961812227889400C000C075
:101A900000C000C000C000C000C0002C00C000C0DA
:101AA0008BB96111630F00C000C0002C7BB900C06E
:101AB00000C000C016FF8BB908F46FEF3195889411
:101AC00000C000C000C000C000C000C000C0002CAA
:101AD00000C000C08BB9E0FC260F00C000C0002C85
:101AE0007BB900C000C000C015FF8BB92795889452
:101AF000E1FC260F00C000C000C000C000C000C054
:101B000000C0002C00C000C08BB92795889400C08D
:101B100000C0002C7BB900C000C000C014FF8BB90E
:101B2000E2FC260F2795889400C000C000C000C0CA
:101B300000C000C000C0002C00C000C08BB9E3FC96
:101B4000260F00C000C0002C7BB900C000C000C040
:101B500013FF8BB927958894E4FC260F00C000C0C2
:101B600000C000C000C000C000C0002C00C000C009
:101B70008BB92795889400C000C0002C7BB900C0A9
:101B800000C000C012FF8BB9E5FC260F2795889492
:101B900000C000C000C000C000C000C000C0002CD9
:101BA00000C000C08BB9E6FC260F00C000C0002CAE
:101BB0007BB900C000C000C011FF8BB92795889485
:101BC000E7FC260F00C000C000C000C000C000C07D
:101BD00000C0002C00C000C08BB92795889400C0BD
:101BE00000C0002C7BB900C000C000C010FF8BB942
:101BF000162FE110122F390D00C000C000C000C028
:101C000000C000C000C0002C00C000C08BB900C0E4
:101C100000C000C0002C7BB900C000C000C017FF8E
:101C20008BB962812227889400C000C000C000C028
:101C300000C000C000C0002C00C000C08BB9611102
:101C4000640F00C000C0002C7BB900C000C000C001
:101C500016FF8BB908F46FEFEB0DF11D00C000C04B
:101C600000C000C000C000C000C0002C00C000C008
:101C70008BB9D0FC260F00C000C0002C7BB900C07F
:101C800000C000C015FF8BB927958894D1FC260FA2
:101C900000C000C000C000C000C000C000C0002CD8
:101CA00000C000C08BB92795889400C000C0002CEC
:101CB0007BB900C000C000C014FF8BB9D2FC260F56
:101CC0002795889400C000C000C000C000C000C0BC
:101CD00000C0002C00C000C08BB9D3FC260F00C090
:101CE00000C0002C7BB900C000C000C013FF8BB93E
:101CF00027958894D4FC260F00C000C000C000C007
:101D000000C000C000C0002C00C000C08BB92795E7
:101D1000889400C000C0002C7BB900C000C000C087
:101D200012FF8BB9D5FC260F2795889400C000C000
:101D300000C000C000C000C000C0002C00C000C037
:101D40008BB9D6FC260F00C000C0002C7BB900C0A8
:101D500000C000C011FF8BB927958894D7FC260FCF
:101D600000C000C000C000C000C000C000C0002C07
:101D700000C000C08BB92795889400C000C0002C1B
:101D80007BB900C000C000C010FF8BB9162FD11066
:101D9000122F419500C000C000C000C000C000C0AC
:101DA00000C0002C00C000C08BB9480D00C000C0AE
:101DB00000C07BB900C000C000C017FF8BB96081B4
:101DC0002227889400C000C000C000C000C000C02E
:101DD00000C0002C00C000C08BB96111690F00C0A9
:101DE00000C0002C7BB900C000C000C016FF8BB93A
:101DF00008F46FEF9195889400C000C000C000C047
:101E000000C000C000C0002C00C000C08BB9F0FCB6
:101E1000260F00C000C0002C7BB900C000C000C06D
:101E200015FF8BB927958894F1FC260F00C000C0E0
:101E300000C000C000C000C000C0002C00C000C036
:101E40008BB92795889400C000C0002C7BB900C0D6
:101E500000C000C014FF8BB9F2FC260F27958894B0
:101E600000C000C000C000C000C000C000C0002C06
:101E700000C000C08BB9F3FC260F00C000C0002CCE
:101E80007BB900C000C000C013FF8BB927958894B0
:101E9000F4FC260F00C000C000C000C000C000C09D
:101EA00000C0002C00C000C08BB92795889400C0EA
:101EB00000C0002C7BB900C000C000C012FF8BB96D
:101EC000F5FC260F2795889400C000C000C000C014
:101ED00000C000C000C0002C00C000C08BB9F6FCE0
:101EE000260F00C000C0002C7BB900C000C000C09D
:101EF00011FF8BB927958894F7FC260F00C000C00E
:101F000000C000C000C000C000C0002C00C000C065
:101F10008BB92795889400C000C0002C7BB900C005
:101F200000C000C010FF8BB9162FF110122F9C0DAE
:101F300000C000C000C000C000C000C000C0002C35
:101F400000C000C08BB900C0119709F096CD20ECFD
:101F500033E0D2010E948F24DC01CB01F4E0B6957E
:101F6000A79597958795FA95D1F720E030E0A901DC
:101F70006AE9469E412D569E400D511D1124840F45
:101F8000951FA11DB11D893E43E09407A105B10530
:101F900088F1885E9340A109B10942E0B695A79502
:101FA000979587954A95D1F747E0849F212D949F77
:101FB000200D311D11246091DE0170E0860F971F06
:101FC000820F931F4091DF075091E0076091E10776
:101FD0007091E207292F3327420F531F611D711D96
:101FE0004093DF075093E0076093E1077093E207A7
:101FF0008093DE0178940E94791CF301708B6787CF
:10200000DF91CF911F91FF90EF90DF90CF90BF9025
:102010009F908F907F906F905F904F9008950E9457
:10202000C4240F931F93CF93DF931F92CDB7DEB7D6
:1020300082E0898342E450E06AEC70E080E80E942C
:10204000A61B0E94CB20DC0112960D911C911397C8
:102050000115110569F0D801ED91FC910280F38121
:10206000E02DBE016F5F7F4FC801099597FF07C044
:1020700089810F90DF91CF911F910F910895F80101
:1020800000851185E5CF1F920F920FB60F92112494
:102090008F939F938091E1009091E100937F9093C3
:1020A000E10083FF0FC01092E90091E09093EB00F4
:1020B0001092EC0092E39093ED001092ED0798E0FF
:1020C0009093F00082FF20C093E09093E9009091FC
:1020D000F200992319F09AE39093E8009091E301BC
:1020E000992339F09091E30191509093E301992362
:1020F00089F19091EC07992339F09091EC07915078
:102100009093EC07992341F184FF10C08091E20085
:102110008E7E81608093E2008091E1008F7E8093CB
:10212000E1008091E4018E7E806111C080FF16C0C5
:102130008091E2008E7E80618093E2008091E100D8
:102140008E7E8093E1008091E4018E7E8160809399
:10215000E40104C05D9ACDCF289AD6CF9F918F918C
:102160000F900FBE0F901F9018951F920F920FB6F1
:102170000F921124CF92DF92EF92FF920F931F9351
:102180002F933F934F935F936F937F938F939F937F
:10219000AF93BF93EF93FF93CF93DF93CDB7DEB7AA
:1021A0006C97DEBFCDBF1092E9008091E80083FFFD
:1021B000EDC168E0CE0145960E94CD1B82EF809371
:1021C000E8008D8987FF05C09091E80090FFFCCF63
:1021D00003C09EEF9093E800982F907609F0C6C058
:1021E0009E892F89188D91110CC0803829F4809117
:1021F0003D078093F10002C01092F1001092F100AF
:1022000048C1422F50E0512B913051F4811141C10E
:102210004130510509F03DC180913D078D7F0BC0D4
:10222000933061F4811135C14130510509F031C15C
:1022300080913D07826080933D072BC1953041F42A
:102240008091E80080FFFCCF20682093E30021C14B
:10225000963009F05FC0EB8CFC8C1092E900109274
:10226000E2011092E101123091F51092E00110921A
:10227000DF010E94111099E0BE016F5F7F4FDB010B
:10228000E92F1D92EA95E9F799831A8391E09E83DD
:1022900090EA98879AEF99872091E1013091E201C5
:1022A000275F3F4F3C832B838D831092E900109270
:1022B000E2011092E101F092E001E092DF0149E0D9
:1022C00050E080E00E94A61B0E941110E2C0F09234
:1022D000E001E092DF010E94CB20DC011296ED903C
:1022E000FC901397E114F10409F4C0C0D701ED91FB
:1022F000FC910480F581E02DBE016B5E7F4FC7012C
:102300000995009719F00CF0C4C0C7C0F701E0842C
:10231000F184E8CF973009F4C0C0983021F481E00F
:102320008093F100B6C0993009F0B3C0837009F012
:10233000B4C0E5E5F1E081E021E036E39081992346
:1023400061F08093E9002093EB0091919093EC0071
:102350003093ED008F5F873089F78EE78093EA0036
:102360001092EA008F898093ED0793C08B8D9C8D2E
:102370001092E9001092E2011092E1019093E001C5
:102380008093DF01898D811156C08E899D89913A94
:1023900059F4813209F081C047E050E064E071E017
:1023A00080E00E94A61B75C0913209F076C083328E
:1023B00089F4888D90E0982F88272F89822BA0E0C0
:1023C000B0E08093000190930101A0930201B093CB
:1023D00003015FC0803269F48091E80082FFFCCF86
:1023E00067E084E091E00E94CD1B8BEF8093E800D2
:1023F00006C0823209F04DC08F8980930B01809115
:102400003C07882319F0EEEFFAE002C0E0E0F8E0C4
:102410008091040190910501A0910601B0910701FE
:10242000803B9440A105B10509F07BC080910B0170
:1024300080FF93C076C00E94CB20DC0112960D91E4
:102440001C9113970115110541F1D801ED91FC91F3
:102450000190F081E02DBE016B5E7F4FC8010995B0
:10246000811117C0F80100851185ECCF113009F4F6
:102470004EC0133091F48F89882309F445C082300F
:1024800081F440E862E18BE291E00E94E920882338
:1024900021F08EEF8093E80079C081E28093EB0019
:1024A00075C0813029F440E868E082E291E0EDCF28
:1024B000833099F70E94CB20DC011296ED90FC90BE
:1024C00013978E010F5F1F4F6801E114F10479F03B
:1024D000D701ED91FC910680F781E02DB801C7018D
:1024E0000995080F111DF701E084F184EECFD801A2
:1024F0001C92F60101900020E9F73197BF016C1999
:102500007D0940E0C601C1CF6CE071E002C060E12E
:1025100071E06115710509F2FB01449150E080E81A
:1025200040CF0FB6F894A8958091600088618093A1
:102530006000109260000FBEA895EE3F2AE0F207FF
:1025400039F08091FE0A9091FF0A91838083A1CF98
:102550001092FF0A1092FE0A9CCFEE3F8AE0F80725
:1025600031F0808191819093FF0A8093FE0A87E782
:1025700097E7918380839BE088E10FB6F894A89554
:10258000809360000FBE9093600083CF6C960FB66F
:10259000F894DEBF0FBECDBFDF91CF91FF91EF91D9
:1025A000BF91AF919F918F917F916F915F914F916B
:1025B0003F912F911F910F91FF90EF90DF90CF905F
:1025C0000F900FBE0F901F90189580918B0490E094
:1025D000982F882720918C04822B44972091A9045E
:1025E00030E044E0359527954A95E1F7220F331FF7
:1025F000220F331F821B930B97FF02C080E090E0F5
:10260000089520919F0430919D0430939F0420935E
:102610009D042091A00430919E043093A004209347
:102620009E0425EA34E0A9EAB4E0F9014291840F5E
:10263000911D4E918C93662311F0408301C010824E
:10264000892F992744E04E0F4213F0CF1092AD042A
:102650001092AE0480E58093A90408950F931F9310
:10266000CF93DF9370E065587B4F213021F48A01CE
:10267000075F1F4F0CC0223039F000E010E09801D6
:10268000DB011196EA0106C08A010250110920E01F
:1026900030E0F6CFC230D10578F0FD013197E0810E
:1026A000F0E0FE2FEE279C91E92B0E0F1F1F211D3E
:1026B000311D22971296EECFFA01EE7FE60FF71F3B
:1026C00040FF0CC0408150E060E070E0762F652F45
:1026D000542F4427040F151F261F371FA9016627F3
:1026E0007727411551056105710519F02227332718
:1026F000F1CF00951095E82FF0E0E558FB4F1083DF
:102700000183DF91CF911F910F910895EBE7F4E0E2
:10271000108E118E80E4848B158A868B20E044E134
:1027200050E06EE088E10C942E13CF93DF93EB0121
:1027300044E050E0BC0187E994E00E94C924892B61
:1027400039F461E974E0CE010E94B31D81E001C05B
:1027500080E0DF91CF910895BC018BE794E00E9467
:10276000B31D60E474E081E894E00C94B31D81E84B
:1027700094E00E94AC1365E974E089E994E00E945A
:10278000BB1D66EF77E085E994E00E94BB1D0C94C9
:102790008613CF93DF9300D0CDB7DEB769837A83FA
:1027A0000E94AC1369817A8189E994E00E94BB1D83
:1027B00066EF77E085E994E00F900F90DF91CF917D
:1027C0000C94BB1DEF92FF920F931F93CF93DF9357
:1027D000182F092FEB01F42EE52ECB010E940720C4
:1027E000BE01882319F08AEC97E002C080ED97E0E3
:1027F0000E94C9132881207F203E91F08881998111
:10280000AA81BB818F3F9F4FAF4FBF4F49F044E03C
:1028100050E0BE0186E494E00E94C924892B31F483
:1028200062EB71E08BE794E00E94B31D88E0809337
:1028300087041092880449E050E066E471E089E87A
:1028400094E00E941B2410928B0481E180939204F7
:10285000E0929F04F092A00400939D0410939E04C4
:102860001092A1041092A3041092A404DF91CF91BE
:102870001F910F91FF90EF9008951F93CF93DF93D7
:102880001F92CDB7DEB7182F79830E94761E79810B
:10289000672F81E0810F0F90DF91CF911F910C94F2
:1028A000761E0F931F93CF93DF9300D000D000D0FC
:1028B000CDB7DEB78091B407882389F06091B20765
:1028C0007091B3076115710519F46FEF7BE002C0D9
:1028D000615071098CE00E943D141092B40789E3A5
:1028E0000E94891E8823C9F16091B2077091B307D5
:1028F00080E00E943D14BE016F5F7F4F86E090E054
:102900000E940E1E89819A819093B3078093B2072B
:102910000B811C8180913E0490913F042D8127FF03
:102920000DC00197045011098017910708F48C011C
:102930006BE774E0C8010E940E1E02C000E010E0C8
:10294000F801E558FB4F108281E08093B40740E422
:102950006EE180E80E94351E02C000E010E0C80170
:1029600026960FB6F894DEBF0FBECDBFDF91CF9194
:102970001F910F910895CF93DF93EC0140E86FE131
:1029800080E80E94351E40E86FE180EA0E94351E13
:102990004AE06CE180EA0E94351E60E07CE082E063
:1029A0000E943D14BE01745F86E00E943D1440E029
:1029B00060E08AE70E94351E0E94081E209751F4AD
:1029C0000E94011E48E06FE180E80E94351EC0E0D1
:1029D000D0E01CC08AE70E94FC1D80917B048EBD64
:1029E000ECE7F4E0C558DB4FEC17FD0731F08191BF
:1029F0000DB407FEFDCF8EBDF7CF0DB407FEFDCFA2
:102A0000DFCF2196C83E83E0D80729F08CE10E94F1
:102A1000891E8A70B1F38CE10E94891E81FD03C07A
:102A2000C83ED34039F448E06FE180EADF91CF91AE
:102A30000C94351EDF91CF9108950F931F93CF9380
:102A40008C0182EB91E00E94AC13EBE7F4E088E0AC
:102A50008487C6E0C58748E050E06EE371E089E80E
:102A600094E00E941B24EBE9F4E0DF011D92CA957B
:102A7000E9F760E474E081E994E00E94B31DB801D5
:102A800081EA94E00E94BB1D66EF77E087E994E05D
:102A90000E94BB1D8AE290E0CF911F910F910C9490
:102AA000BB140F931F93CF93DF93EC010BE714E05C
:102AB0004C96F801908B818B0E948613CE0108966C
:102AC000F80196A387A3AE01405F5F4F21E06AE162
:102AD00088E20E942E13CE018A96DF91CF911F913A
:102AE0000F910C94BB14262F20612093AA0464300C
:102AF00021F0009711F481E090E061E00E94011361
:102B000010928B0488E280938C040E94B71384E0B7
:102B10008093AB041092AC0422E04CE150E06AE1F7
:102B200082E30E942E1386E390E00C94BB148F92F4
:102B30009F92AF92BF92CF92DF92EF92FF920F934C
:102B40001F93CF93DF9300D000D01F92CDB7DEB795
:102B50007C0180915004882309F43DC18091B10724
:102B6000823009F488C030F4882381F1813009F47F
:102B70004DC031C1833021F0843009F47CC02BC1B9
:102B80008090BE079090BF07A090C007B090C1078B
:102B90002FEF82169206A206B20609F41CC10E940B
:102BA0005D1D0091BA071091BB072091BC073091C1
:102BB000BD07DC01CB01801B910BA20BB30B881569
:102BC0009905AA05BB0508F0D7C105C10E945D1D86
:102BD0006093AD077093AE078093AF079093B007F3
:102BE0001092F6071092F7071092F8071092F90763
:102BF00080E090E00E94EA1E88E30E94891E682F10
:102C0000616088E30E94761E81E028C062E0C7010F
:102C10000E94AA1E8823A9F165EB74E0CE010196FB
:102C20000E94BB1DE5E9F5E0C70185589B4FBF0138
:102C30006E5F7F4F21813081363329F489EA97E036
:102C40000E94BB1D06C0FB01E20FF11DE817F9074A
:102C500070F3CE0101960E94EA1E82E08093B107D4
:102C60000E945D1D6093B6077093B7078093B80705
:102C70009093B907B0C065E0C7010E94AA1E8111F8
:102C800019C00E945D1D0091B6071091B7072091F1
:102C9000B8073091B907DC01CB01801B910BA20B67
:102CA000B30B81319742A105B10508F494C010928D
:102CB000B10791C08091B507811108C088E30E94D7
:102CC000891E682F6E7F88E30E94761E65EB74E094
:102CD00086EF97E00E94BB1DE5E9F5E0C701855846
:102CE0009B4F5C018F010E5F1F4F9180808186306A
:102CF000A9F048F4813071F0833009F045C0B80183
:102D00008EEE97E00EC08A3379F08F3FD9F183338E
:102D1000D9F50AC0B80182EF97E003C0B8018CE48E
:102D200094E00E94BB1D30C0D801369620E030E010
:102D3000A9018D91742F632F522F44279A01AB0163
:102D4000280F311D411D511DAE17BF0791F720936C
:102D5000BE073093BF074093C0075093C1072F3F72
:102D60009FEF39074907590779F0A8EEB3E00E94B1
:102D700096246093BE077093BF078093C00790931B
:102D8000C10702C081E001C080E0F801E90DF11D3A
:102D9000811104C0EA15FB0508F4A4CF0E945D1D53
:102DA0006093BA077093BB078093BC079093BD07ED
:102DB0008091EE07882361F010924B0410924A0430
:102DC00081E0809351046EEE77E0CB010E94BB1D41
:102DD00083E08093B107E114F10409F0B2C080915F
:102DE0005104857051F080914A0490914B04892BD5
:102DF00021F40E94342082FDC5C080914A04909144
:102E00004B04019690934B0480934A048091DE0713
:102E1000813009F070C08091510481FF6CC082E064
:102E20008093DE07809111018F5F80931101182F2D
:102E30001F7188ED97E00E94072068ED77E08823F6
:102E400019F08AEC97E002C080ED97E00E94C91368
:102E500008E0009387041092880449E050E066E49B
:102E600071E089E894E00E941B248CE280938C043A
:102E700086E0809392040E94861310929F04109221
:102E8000A0048BE080939D0410939E04E1EAF4E09B
:102E9000DF011D920A95E9F7809110018093A30448
:102EA0008D5F8093100180E68093A90482E0809377
:102EB000AA0493E09093AB041092AC041092AD047A
:102EC0001092AE041092AF041092B0048093B1043B
:102ED00094E09093B2048093B30486E28093B404A8
:102EE00022E040E250E06AE182E30E942E138AE38E
:102EF00090E00E94BB148CE494E00E940720882399
:102F000049F08091DD07811105C08091DC0788239D
:102F100009F442C088ED97E00E940720882309F455
:102F2000B1C08091D7078111ADC08091D6078111C2
:102F3000A9C088ED97E00E941D1581E08093D60717
:102F4000A1C0B9E2EB16F10408F49CC0809187049B
:102F5000883009F097C080918804863009F08CC0D1
:102F600044E050E066EF77E081EA94E00E94C924F3
:102F7000892B09F087C018C086EF97E00E94EA1EEF
:102F800084E06CCE8EEE97E00E941D158091510476
:102F900088608093510431CF8CE494E00E941D1529
:102FA00081E08093DC07B6CF80919004813029F5D1
:102FB00081E894E00E94AC1310928F0482E0809329
:102FC000900461E974E08BE994E00E94B31D60E431
:102FD00074E081E994E00E94B31D67E974E081EA3E
:102FE00094E00E94BB1D66EF77E087E994E00E94C1
:102FF000BB1D8AE290E00E94BB148091510483FFC4
:103000000CC010919004123041F460ED77E08EEE28
:1030100097E00E949513811126C08091DD078111F0
:103020000CC08091DC07882341F06AEC77E08CE4E7
:1030300094E00E949513811119C08091D7078111E6
:1030400021C08091D6078823E9F06AEC77E088ED0B
:1030500097E00E9495138823A9F081E08093D70719
:103060001092D6070FC010935104D7CF81E0809300
:10307000DD071092DC07E1CFF9E2EF16F10411F061
:10308000882319F000E010E0CEC1809189048534D6
:10309000C9F744E050E066EF77E089E994E00E94E8
:1030A000C924892BA1F044E050E066E474E089E98A
:1030B00094E00E94C924892B51F044E050E062EB77
:1030C00071E089E994E00E94C924892BD9F68091A6
:1030D00092048130F9F490919D049830D9F4E091F4
:1030E000C807F091C907309719F085E994E0099570
:1030F0000E94B71310929D0480919F04883F28F08E
:103100009091A0049F5F9093A004885F80939F0498
:10311000C70162C190917A04911106C0E6E3EE16F0
:10312000F10408F04FC0AECF8131C1F772E5A72E90
:1031300074E0B72E812C912C40E080917A0490E0CD
:1031400088169906DCF5D50112965C9112971396B4
:103150009C91139720919F0430E0C92ED12C2C15FF
:103160003D0529F58091A004851321C014962C916A
:1031700014972223E1F00091A20410E008501109F5
:103180002091A10430E0322F2227020F131F40911B
:103190009D0450E0542F442720919E04422BED9132
:1031A000FC9125EA34E065E974E0099541E0BFEF60
:1031B0008B1A9B0AE5E0AE0EB11CBFCF442309F485
:1031C000ADCF60CF80919204863009F05BCF8091C3
:1031D0009F048B3009F0BDC044E050E068ED77E01B
:1031E00085E994E00E94C924892B09F04BCF2091F6
:1031F000AA0422FF13C0E091C607F091C7073097D9
:1032000059F08091A00420E030E040E050E063E01D
:10321000829586958770099585E08FC02D830E94E1
:10322000E5128C018091DE072D81823009F043C0C8
:10323000822F80712271223191F560E080E090E070
:103240000E94731588E18093AA04E091C407F0916D
:10325000C507309741F080919E04829586958770CE
:1032600009958C0102C000E010E083E08093DE0746
:10327000C801889690938B0480938C040E948613D7
:103280001092AD041092AE04A801445E5F4F22E09C
:103290006AE182E30E942E13C801C6969DC091E0A8
:1032A0009093DE07811103C0C801019602C080E03F
:1032B00090E064E04BC0833091F50115110591F168
:1032C000E091C607F091C707309761F14091A904DA
:1032D00050E024E0559547952A95E1F7440F551F96
:1032E000440F551FC70108974E5D5F4F8417950720
:1032F00008F4AC01C801840F951FE816F90620F404
:103300009701241B350B01C098018091A00460E057
:10331000829586958770099569E0C8010BC0853054
:1033200009F4B0CE20FF0CC0833009F4ABCE69E0C5
:10333000C80101960E94731586E08093DE07A2CE35
:103340000115110509F49ECE60E0C8010E947315B5
:1033500099CE811197CE8091A004803509F092CE4C
:10336000D090AA04D1FE3BC010928B048CE28093D3
:103370008C040E94B71382E18093AA0460E081E08C
:1033800090E00E9401131092A1041092A204809177
:1033900010018093A3041092A4048D5F8093100108
:1033A00082E08093B10484E08093B20485E080934E
:1033B000B3041092B40490E69093A9048093AB04F4
:1033C00088E78093AC0422E040E250E06AE182E3C7
:1033D0000E942E138AE390E00E94BB1453CED4FEC9
:1033E00051CE0E94E5128C019093C3078093C207CF
:1033F000892B91F00091A90410E084E015950795C0
:103400008A95E1F7000F111F000F111F0E5D1F4F6E
:10341000E016F10640F436CED0FE34CE60E080E017
:1034200090E00E947315C8010F900F900F900F90BD
:103430000F90DF91CF911F910F91FF90EF90DF9050
:10344000CF90BF90AF909F908F900895CF92DF92D2
:10345000EF92FF920F931F93CF93DF936C017A014A
:103460008B01C0E0D0E0CE15DF0589F0D8016D9169
:103470008D01D601ED91FC910190F081E02DC60106
:103480000995892B11F47E0102C02196ECCFC7016A
:10349000DF91CF911F910F91FF90EF90DF90CF9030
:1034A0000895CF93DF931F92CDB7DEB76983DC0118
:1034B000ED91FC910280F381E02D41E050E0BE01EE
:1034C0006F5F7F4F09950F90DF91CF91089583E053
:1034D0008093E9008091F200882319F08AE38093B9
:1034E000E8000895FC018485958597FD0BC09FB782
:1034F000F89482E08093E9008091F2009FBF90E011
:10350000019608959FB7F89482E08093E900809136
:10351000F2009FBF90E008954F925F926F927F926A
:10352000EF92FF920F931F93CF93DF93CDB7DEB748
:10353000A1970FB6F894DEBF0FBECDBF7C01FA0194
:10354000CB0119A2223008F42AE08E010F5D1F4F33
:10355000422E512C612C712CBF01A30192010E94BB
:103560004824F901CA01015011096A3014F4605D60
:1035700001C0695CD8016C93232B242B252B61F7A8
:103580000115110591F0F80101900020E9F731973C
:10359000AF01401B510BD701ED91FC910280F381EB
:1035A000E02DB801C701099502C080E090E0A19626
:1035B0000FB6F894DEBF0FBECDBFDF91CF911F9144
:1035C0000F91FF90EF907F906F905F904F900895D4
:1035D0008F929F92AF92BF92CF92DF92EF92FF9223
:1035E0000F931F93CF93DF937C01EB016C0182E07B
:1035F000C80ED11C4701E5E08E0E911C00E010E0E2
:10360000F60141916F0150E060E070E02AE0CE01E8
:103610000E948C1A5C01E881F9810190F081E02D13
:103620006EE2CE0109958A0D9B1D080F191FC81463
:10363000D90431F7F701458150E060E070E02AE0FD
:10364000CE010E948C1A800F911FDF91CF911F91A4
:103650000F91FF90EF90DF90CF90BF90AF909F9031
:103660008F9008950E94BA2090E008950F931F93C1
:10367000CF93DF931F92CDB7DEB78C01FC01848519
:10368000958597FF0EC0CE0101960E94902001976C
:1036900019F4298130E002C02FEF3FEFF8013587A0
:1036A0002487F801848595850F90DF91CF911F9134
:1036B0000F910895CF93DF931F92CDB7DEB7FC0132
:1036C0008485958597FD05C02FEF3FEF35872487CB
:1036D0000BC0CE0101960E949020019719F48981B8
:1036E00090E002C08FEF9FEF0F90DF91CF91089590
:1036F0004091E1015091E2012091DF013091E00120
:1037000042175307B4F49091E8009570E1F390915B
:10371000E80092FD19C08093F1008091E101909141
:10372000E20101968F739927892B19F48EEF80930C
:10373000E8008091E1019091E20101969093E2010D
:103740008093E10181E0089580E00895DF92EF9297
:10375000FF920F931F93CF93DF93D82E8A017B01A3
:10376000E40EF51EEB01CE15DF0571F0D7FE03C0A8
:10377000FE01849101C088810E94781B21968111ED
:10378000F2CF8FEF9FEF01C0C801DF91CF911F9162
:103790000F91FF90EF90DF900895615030F02091ED
:1037A000F100FC0120830196F8CF289884E68093ED
:1037B000EC070895362F90E0FC01E755FE4F449149
:1037C000FC01E657FE4F2491FC01E559FE4F849120
:1037D000882309F451C04423E1F150E0FA01319704
:1037E000EF30F105B0F5EA5AFF4F0C94892490911F
:1037F00080009F7707C0909180009F7D03C09091CB
:103800008000977F9093800024C094B59F7702C07A
:1038100094B59F7D94BD1DC0909190009F7707C087
:10382000909190009F7D03C090919000977F90931E
:1038300090000FC09091C0009F7703C09091C0008E
:103840009F7D9093C00005C09091C200977F909398
:10385000C200E82FF0E0EE0FFF1FE35AFE4FA591E4
:10386000B4918FB7F894EC91311103C020952E23B9
:1038700001C02E2B2C938FBF0895CF93DF9390E040
:10388000FC01E657FE4F2491FC01E559FE4F84915F
:10389000882361F190E0880F991FFC01E15BFE4FE6
:1038A000C591D491FC01E35AFE4FA591B4916111E9
:1038B00009C09FB7F8948881209582238883EC9172
:1038C0002E230BC0623061F49FB7F8943881822FA9
:1038D000809583238883EC912E2B2C939FBF06C069
:1038E0008FB7F894E8812E2B28838FBFDF91CF917B
:1038F00008953FB7F8948091E4079091E507A0916F
:10390000E607B091E70726B5A89B05C02F3F19F041
:103910000196A11DB11D3FBFBA2FA92F982F88274F
:10392000820F911DA11DB11DBC01CD0142E0660FAA
:10393000771F881F991F4A95D1F708958F929F92FC
:10394000AF92BF92CF92DF92EF92FF926B017C0118
:103950000E94791C4B015C01C114D104E104F10403
:10396000F1F00E94791CDC01CB0188199909AA09A0
:10397000BB09883E9340A105B10570F321E0C21A4E
:10398000D108E108F10888EE880E83E0981EA11C9A
:10399000B11CC114D104E104F10419F7DDCFFF908B
:1039A000EF90DF90CF90BF90AF909F908F90089551
:1039B0008F929F92AF92BF92CF92DF92EF92FF923F
:1039C0000F931F93CF93DF935C016B017A0180917A
:1039D0000B01882309F45BC08091ED07882309F46B
:1039E00056C08091E40180FF05C08091E0008260B4
:1039F0008093E000E70110E00AEF83E0882E9AE36D
:103A0000992E2097D9F10E94BA2081110AC0015045
:103A100009F43DC061E070E080E090E00E949E1CEF
:103A2000F0CF282F30E0C217D3070CF48C2F4FB7FC
:103A3000F8948092E9009091E80095FF1DC0282F2E
:103A400030E0C21BD30BF601982F915020F08191EA
:103A50008093F100FACFC20ED31E112319F0909279
:103A6000E80009C08091E80085FD06C09092E8005A
:103A700011E0209709F010E04FBFC3CF1111C3CF61
:103A80005D9884E68093E3011E141F0444F081E0F6
:103A900090E0F5019383828380E090E001C0C7014C
:103AA000DF91CF911F910F91FF90EF90DF90CF901A
:103AB000BF90AF909F908F9008952FB7F89460912A
:103AC000DF077091E0078091E1079091E2072FBF37
:103AD00008951F920F920FB60F9211242F933F93C8
:103AE0008F939F93AF93BF938091DF079091E007EF
:103AF000A091E107B091E2073091E30723E0230FA3
:103B00002D3720F40196A11DB11D05C026E8230F15
:103B10000296A11DB11D2093E3078093DF079093C8
:103B2000E007A093E107B093E2078091E40790914A
:103B3000E507A091E607B091E7070196A11DB11D29
:103B40008093E4079093E507A093E607B093E70717
:103B5000BF91AF919F918F913F912F910F900FBE89
:103B60000F901F901895DC0196E0FB0101900D92DB
:103B70009A95E1F70895FB0140815181628173813B
:103B8000FC0140835183628373830895E091E907C8
:103B9000F091EA079F012F5F3F4F3093EA07209390
:103BA000E90780830895EF92FF920F931F93CF93BD
:103BB000DF931F92CDB7DEB7062F142F59830E94D3
:103BC000C61D802F0E94C61DE12E5981F52E100FB3
:103BD0001E1531F0F70181917F010E94C61DF8CFBB
:103BE0000F90DF91CF911F910F91FF90EF9008956B
:103BF000089580E090E008958EBD0DB407FEFDCFDE
:103C0000089561E080913D040E94DA1B7894089544
:103C1000F89460E080913D040C94DA1B0F931F939D
:103C2000CF93DF93EC018B010E94081E2097B9F01F
:103C30008AE30E94FC1D1EBCF801CE01019739F0F9
:103C40000DB407FEFDCF2EB51EBC2193F7CF2197F3
:103C5000C00FD11F0DB407FEFDCF8EB58883DF9155
:103C6000CF911F910F910C94011ECF93DF9300D041
:103C70001F92CDB7DEB74B836A8389830E94081EEB
:103C80006A816F718981862B0E94FC1D4B81842F74
:103C90000E94FC1D0F900F900F90DF91CF910C941C
:103CA000011E1F93CF93DF93182F1076C12FD0E002
:103CB0002091EB0730E0C217D307A1F043E06FE19A
:103CC00080EA0E94351E1093EB07AE0185E0559502
:103CD00047958A95E1F76FE180E8DF91CF911F91D9
:103CE0000C94351EDF91CF911F9108951F93CF93B0
:103CF000DF931F92CDB7DEB7182F69830E94511E44
:103D00004981612F80E40F90DF91CF911F910C9436
:103D1000351E1F93CF93DF931F92CDB7DEB7182FB9
:103D20000E94511E0E94081E812F8F710E94FC1D4F
:103D300080E00E94FC1D17FF03C080E00E94FC1D74
:103D40008EB589830E94011E89810F90DF91CF91EA
:103D50001F910895CF92DF92EF92FF920F931F93DE
:103D60008634910568F120919E04233449F5C09072
:103D7000A904D090AA04E090AB04F090AC040091A8
:103D8000AD071091AE072091AF073091B007C01674
:103D9000D106E206F306A1F4E5E9F5E085589B4F6C
:103DA0009F012E5F3F4F41815081553319F452815D
:103DB000561741F0F901E40FF11DE817F90780F3F8
:103DC00080E001C081E01F910F91FF90EF90DF90A4
:103DD000CF900895FF920F931F93CF93DF938C01A1
:103DE00086E191E0EBE7F4E0DF019C011D922150B8
:103DF0003040E1F78091B107833019F062EB71E058
:103E000002C069EA77E043E450E084E490E00E9475
:103E1000E21362EB71E08BE794E00E94B31D81E056
:103E20008093A5048093A60486E08093A7048091E4
:103E3000AD079091AE07A091AF07B091B007809306
:103E4000A9049093AA04A093AB04B093AC0480910E
:103E5000B107833031F466EF77E081EB94E00E94A4
:103E6000BB1D60E474E081EC94E00E94B31D81E925
:103E700095E09093EA078093E907C7ECD1E0FC2E28
:103E800034E0F30EFE0184910E94C61D2196FC12BF
:103E9000F9CF85E30E94C61D81E00E94C61D809176
:103EA000B107882311F083E001C081E00E94C61DA4
:103EB0008DE30E94C61D87E00E94C61D81E00E941E
:103EC000C61DC0E4D4E0FC2E26E0F20EFC1621F064
:103ED00089910E94C61DFACF80911201882371F04A
:103EE000E2E1F1E001900020E9F73197BF01625172
:103EF000714042E151E08CE00E94D31D0115110593
:103F000059F0A80164E082E30E94D31D49EA57E01A
:103F100064E086E30E94D31D87E30E94C61D83E010
:103F20000E94C61D81E00E94C61D83E00E94C61D3E
:103F300086E00E94C61D8FEF0E94C61D8091E90792
:103F40009091EA07855A9440DF91CF911F910F918C
:103F5000FF900C945115EF92FF920F931F93CF9304
:103F6000DF93EC019091E8079F5F292F2770209342
:103F7000E80790FF02C090E801C090E021FD906446
:103F8000247009F0906220E1290FFE013C967E0129
:103F90008FE0E80EF11C00E011E06191662331F042
:103FA00070E0C8010E9434246F5F01C060E0DF014F
:103FB00014976C93322F369F030E30E0311D11247D
:103FC000CF010797311103C0EC01188203C03150B3
:103FD000EC013883662311F061506C93EE15FF05F8
:103FE000E1F6DF91CF911F910F91FF90EF9008952F
:103FF000CF93DF93EC010E94791C28813981621BE9
:10400000730B6A307105B8F3DF91CF910895CF93A8
:10401000DF932091F607222319F1FC01208122234E
:10402000F9F0A6EFB7E0BC01C2EFD7E04EEE57E0E3
:1040300090E03D91FB018191BF012991832782236B
:1040400079F4FA012191AF0181E0321301C080E0DF
:10405000982BF7E0AA3FBF0761F781E0892701C0ED
:1040600080E0DF91CF91089561E184ED0E94761E9A
:1040700061E082ED0E94761E8AEE0E94891E80FD1C
:10408000FBCF60E082ED0E94761E89ED0E94891EC2
:1040900090E008950F931F93CF93DF93EC018B0172
:1040A000E881F9810480F581E02D09951B830A835D
:1040B00082E390E09E878D87E881F9810284F38511
:1040C000E02DCE010995009729F19C0140E050E0D8
:1040D00060E472E48FE090E00E946A24722F632F04
:1040E0000091FD071091FE072091FF073091000815
:1040F000872F962FDA0180179107A207B30710F4D4
:10410000D901C8018093FD079093FE07A093FF0794
:10411000B0930008CE01DF91CF911F910F910895C8
:10412000FC018091ED07811103C08FEF9FEF08958F
:104130009FB7F89482E08093E9002091F20030E08C
:104140001216130614F421E030E02115310559F060
:10415000289884E68093EC078091F1008083809119
:10416000F200882319F09FBFC90108958BE6809360
:10417000E800F9CF2FB7F89483E08093E90090919D
:10418000E800892F807295FF04C09091F20080E4CE
:10419000891B2FBF089580910B0881110DC082E00B
:1041A0008093070884E08093080810920A08109210
:1041B000090881E080930B0887E098E0089580E982
:1041C00091E00895269A089580E991E00895259A4E
:1041D0000895CF92DF92EF92FF920F931F93CF93A8
:1041E000DF931F92CDB7DEB7182F062FE42E862F50
:1041F000880F8E5F99830E94781B83E00E94781B52
:10420000F12EC12E9981D92E8C2D8F19801798F4FB
:10421000F601E7FE02C0849101C080810E94781BF4
:10422000182F80E00E94781B8123FFEFCF1ADF0A4E
:104230008111EACF01C081E00F90DF91CF911F91F2
:104240000F91FF90EF90DF90CF900895789484B510
:10425000826084BD84B5816084BD85B5826085BD82
:1042600085B5816085BD80916E00816080936E0010
:104270001092810080918100826080938100809102
:1042800081008160809381008091800081608093B3
:1042900080008091910082608093910080919100D4
:1042A0008160809391008091900081608093900064
:1042B0008091C10084608093C1008091C1008260C0
:1042C0008093C1008091C10081608093C100809182
:1042D000C30081608093C3008091C000826080939E
:1042E000C0008091C20081608093C20080917A00FA
:1042F000846080937A0080917A00826080937A0053
:1043000080917A00816080937A0080917A00806841
:1043100080937A001092ED0710923D071092E4010D
:104320008091D70081608093D70080EA8093D80085
:1043300089B5806189BD89B5826089BD09B400FEF7
:10434000FDCF61E070E080E090E00E949E1C8091D3
:10435000D8008F7C80618093D8008091E000807FBE
:104360008093E0008091E1008E7E8093E1008DE0FB
:104370008093E200559A209AEEEFFFE785919491A1
:104380008B3F9C4D19F481E080933C0761E08AE00B
:104390000E943D1C80914F07811111C08EE397E070
:1043A0000E94330610924E0710924D078FE591E060
:1043B00090933F0780933E0781E080934F0765EE1F
:1043C00071E08EE397E00E944A2061E089E00E945C
:1043D0003D1C80916807811111C087E597E00E941C
:1043E0003306109267071092660781E791E0909379
:1043F00058078093570781E0809368076BE772E066
:1044000087E597E00E944A2061E086E00E943D1C1B
:1044100080918107811111C080E797E00E943306E7
:104420001092800710927F0783E891E090937107C4
:104430008093700781E08093810761E173E080E7FA
:1044400097E00E944A2061E085E00E943D1C809137
:104450009A07811111C089E897E00E9433061092F3
:1044600099071092980785E991E090938A078093C5
:10447000890781E080939A0767EA73E089E897E00B
:104480000E944A20C12CD12C7601C394CCEBD2E0FF
:1044900010E503E01092500487E390E00097C1F02C
:1044A000FC0123E0F595E7952A95E1F7EE55F84FE5
:1044B000282F2770B701A60104C0440F551F661F9F
:1044C000771F2A95D2F72081422B40830197E6CFB0
:1044D00067EA71E080E494E00E94B31DD0933F044A
:1044E000C0933E040CB406FC24C061E081E10E944C
:1044F0003D1C61E081E10E94DA1B61E080E10E94E5
:104500003D1C61E08FE00E943D1C60E08EE00E9457
:104510003D1C61E080E10E94DA1B60E080E10E94C6
:10452000DA1B60E08FE00E94DA1B1CBD8DB5816054
:104530008DBD00933D0461E083E00E943D1C0E941C
:10454000011E4FEF60E08FEF0E94351E62E070E0C9
:1045500080E090E00E949E1C0E94081E8DE10E9457
:10456000FC1D80E00E94FC1DBEB40E94011EBB2009
:1045700099F360E070E088E00E943D1460E070E034
:104580008CE00E943D146FEF7BE08AE00E943D14B6
:1045900060E07CE084E00E943D146FEF71E186E012
:1045A0000E943D1461EB88E30E94761E6FE370E386
:1045B00088E20E943D1469EF77EF80E30E943D148A
:1045C0006DE080EC0E94761E60E081EC0E94761E19
:1045D00042E362EC80E80E94351E62E17CE086ECFA
:1045E0000E943D1462E184EC0E94761E6CED75E041
:1045F0008AEC0E943D146091400484EE0E94761E75
:104600006091410485EE0E94761E6091420482EE24
:104610000E94761E6091430483EE0E94761E609194
:10462000440480EE0E94761E6091450481EE0E9453
:10463000761E60E184ED0E94761E60E071E086EDFA
:104640000E943D148AEE0E94891E80FDFBCF8FE1FF
:104650000E94511E40EC6BE180E80E94351E44E050
:104660006FE180E80E94351E82E70E94891E863035
:1046700008F08F5F811103C00E9464060BCF109277
:10468000500463EA71E086EF97E00E94BB1D81E071
:10469000809351046DEA71E08EEE97E00E94BB1D9D
:1046A000C2EFD7E0A6E4B4E0E6EFF7E024E02E0F97
:1046B000919189918095892B8D932E13F9CF10922A
:1046C0004B0410924A040E94342082FD03C00E94D1
:1046D0006406F9CF8091510481FD07C00E945114F6
:1046E0000E9497150E946406F5CF80917A04883065
:1046F00098F495E0899FF0011124EE5AFB4F21E0D8
:1047000035E0318320832FE134E13383228391E04C
:1047100094838F5F80937A04C0E0D0E00E945114AC
:104720000E9497150E945D1D00910C0110910D01D2
:1047300020910E0130910F016017710782079307D6
:1047400030F14FE154E16DEA71E08AEB93E10E94B0
:10475000E21380913B078093A50481E090E00E94E2
:10476000511510923B0780910C0190910D01A09181
:104770000E01B0910F018053984FAF4FBF4F809300
:104780000C0190930D01A0930E01B0930F010E94B4
:104790005D1D00913707109138072091390730913E
:1047A0003A07DC01CB01801B910BA20BB30B8436C3
:1047B0009105A105B10510F4289801C0289A5D98CB
:1047C000209709F4ABCF0E940000A8CFE3E1F8E006
:1047D0008EEC91E091838083128213821482158281
:1047E000E9E1F8E01382128248EE53E060E070E005
:1047F00044835583668377832CEB31E031832083B8
:104800002FEF3FEF35872487EAEFF7E0208312820E
:104810001182148613864FEF5FEFBA0147835087EA
:1048200061877287E9E6F8E09183808312821382C0
:10483000148215820895FB01DC0102C005900D92DF
:1048400041505040D8F70895DB018F939F930E9409
:104850009624BF91AF91A29F800D911DA39F900DB3
:10486000B29F900D1124089597FB072E16F4009423
:1048700007D077FD09D00E94A12407FC05D03EF4A3
:10488000909581959F4F0895709561957F4F0895FC
:10489000A1E21A2EAA1BBB1BFD010DC0AA1FBB1F44
:1048A000EE1FFF1FA217B307E407F50720F0A21BB6
:1048B000B30BE40BF50B661F771F881F991F1A9423
:1048C00069F760957095809590959B01AC01BD014D
:1048D000CF010895052E97FB1EF400940E948124B9
:1048E00057FD07D00E94482407FC03D04EF40C94D7
:1048F000812450954095309521953F4F4F4F5F4F04
:10490000089590958095709561957F4F8F4F9F4F3B
:104910000895EE0FFF1F0590F491E02D09940E9479
:10492000B524B7FF0895821B930B08950E94B52408
:10493000A59F900DB49F900DA49F800D911D1124F3
:104940000895AA1BBB1B51E107C0AA1FBB1FA617D6
:10495000B70710F0A61BB70B881F991F5A95A9F728
:1049600080959095BC01CD010895A29FB001B39FA1
:10497000C001A39F700D811D1124911DB29F700D68
:10498000811D1124911D089581E090E0F8940C940C
:10499000DF24FB01DC0104C08D910190801921F41A
:1049A00041505040C8F7881B990B0895FB01DC016A
:1049B00002C001900D9241505040D8F70895F894EC
:0249C000FFCF27
:1049C200FFFFFFFF00E1000000000000E80300001D
:1049D2000A0141726475696E6F2D454E4332386A21
:1049E20036302D30300000000000000000000000D2
:1049F2000000000000000F100F100F1022011E0116
:104A02001B01000000007A04BD040F1022011E01E8
:104A12001B010F1000C18081000000000000007A1D
:104A220004BD04E22022011E01DF20730600000003
:104A3200007A04BD04E72022011E01E420A7090038
:104A42000000007A04BD04140122011E011101DBE1
:104A52000C000000007A04BD04190122011E011697
:104A6200014601C0A8020A7469692D3010C0A8026B
:104A72000100FFFFFFFFFFFF00000000511AD81CDA
:104A8200321B671A721A5A1B361B00000000E81A02
:00000001FF
