:100000000C9436000C945E000C945E000C945E0020
:100010000C945E000C945E000C945E000C945E00E8
:100020000C945E000C945E000C945E000C945E00D8
:100030000C945E000C945E000C945E000C945E00C8
:100040000C9425050C945E000C94B3010C941706D7
:100050000C945E000C945E000C945E000C945E00A8
:100060000C945E000C945E002F0C8A0611241FBEB7
:10007000CFEFD8E0DEBFCDBF22E0A6E6B1E001C001
:100080001D92A73DB207E1F711E0A0E0B1E0EEE379
:10009000FFE102C005900D92A636B107D9F710E036
:1000A000C5E3D0E004C02197FE010E94800DC43357
:1000B000D107C9F70E94AB060C94920F0C94000074
:1000C000089580E090E00895FC01538D448D252F24
:1000D00030E0842F90E0821B930B541710F0CF96E2
:1000E000089501970895FC01918D828D981761F014
:1000F000828DDF01A80FB11D5D968C91928D9F5F5F
:100100009F73928F90E008958FEF9FEF0895FC0109
:10011000918D828D981731F0828DE80FF11D858DBC
:1001200090E008958FEF9FEF0895FC01918D228D4F
:10013000892F90E0805C9F4F821B91098F739927D4
:10014000089580E090E0892B29F00E940D0681112E
:100150000C9400000895EF92FF920F931F93CF939A
:10016000DF93EC01909167019F5F292F2770209307
:10017000670190FF02C090E801C090E021FD90640B
:10018000247009F0906220E1290FFE013C967E0167
:100190008FE0E80EF11C00E011E06191662331F080
:1001A00070E0C8010E94100D6F5F01C060E0DF01C8
:1001B00014976C93322F369F030E30E0311D1124BB
:1001C000CF010797311103C0EC01188203C03150F1
:1001D000EC013883662311F061506C93EE15FF0536
:1001E000E1F6DF91CF911F910F91FF90EF9008956D
:1001F00080E991E00895539A08950F931F93CF9348
:10020000DF93CDB7DEB762970FB6F894DEBF0FBEAF
:10021000CDBF8C01F901DC011C968C917A83698336
:100220005C834B835E834D8390819D8791819E8704
:1002300092819F87813029F4CE0101960E94AB0004
:1002400006C01C861B861A86198618861F8283E0C4
:10025000888B1A8A198AD801ED91FC910484F5855E
:10026000E02DBE016F5F7F4FC801099562960FB602
:10027000F894DEBF0FBECDBFDF91CF911F910F91DC
:1002800008950F931F93CF93DF93CDB7DEB7629797
:100290000FB6F894DEBF0FBECDBF8C01F901DC01B3
:1002A0001C968C917A8369835C834B835E834D8338
:1002B00090819D8791819E8792819F87813029F4CB
:1002C000CE0101960E94AB0006C01C861B861A86D2
:1002D000198618861F82188A1A8A198AD801ED9100
:1002E000FC910484F585E02DBE016F5F7F4FC8014E
:1002F000099562960FB6F894DEBF0FBECDBFDF91B1
:10030000CF911F910F91089580E090E00895FC0136
:10031000858596850895CF93DF9300D000D000D0D7
:10032000CDB7DEB7AB011C821D821E82DC01ED91D0
:10033000FC910190F081E02D19821A821B829E01AE
:100340002F5F3F4FBE016C5F7F4F099526960FB61A
:10035000F894DEBF0FBECDBFDF91CF9108950E940C
:100360007D0F0C941B0E1F920F920FB60F9211244B
:100370002F938F939F93EF93FF93E0913202F0912D
:1003800033028081E0913802F091390282FD12C07F
:10039000908180913B028F5F8F7320913C02821786
:1003A00051F0E0913B02F0E0EE5DFD4F958F8093C0
:1003B0003B0201C08081FF91EF919F918F912F911E
:1003C0000F900FBE0F901F901895FC01848DDF01D8
:1003D000A80FB11DA35ABF4F2C91848D90E00196B8
:1003E0008F739927848FA689B7892C93A089B189A7
:1003F0008C9180648C93938D848D981306C00288B1
:10040000F389E02D80818F7D80830895EF92FF92A4
:100410000F931F93CF93DF93EC0181E0888F9B8D27
:100420008C8D981305C0E889F989808185FD24C0E9
:10043000F62E0B8D10E00F5F1F4F0F731127E02E6C
:100440008C8DE8120CC00FB607FCFACFE889F98949
:10045000808185FFF5CFCE010E94E501F1CF8B8D24
:10046000FE01E80FF11DE35AFF4FF0820B8FEA897E
:10047000FB898081806207C0EE89FF896083E889FB
:10048000F98980818064808381E090E0DF91CF9161
:100490001F910F91FF90EF900895CF93DF93EC01A0
:1004A000888D8823C9F0EA89FB89808185FD05C094
:1004B000A889B9898C9186FD0FC00FB607FCF5CFCE
:1004C000808185FFF2CFA889B9898C9185FFEDCF16
:1004D000CE010E94E501E7CFDF91CF91089582E23E
:1004E00092E00C944D023FB7F8948091690190918D
:1004F0006A01A0916B01B0916C0126B5A89B05C063
:100500002F3F19F00196A11DB11D3FBFBA2FA92F92
:10051000982F8827820F911DA11DB11DBC01CD010F
:1005200042E0660F771F881F991F4A95D1F70895FB
:100530008F929F92AF92BF92CF92DF92EF92FF92F3
:100540006B017C010E9473024B015C01C114D10458
:10055000E104F104F1F00E947302DC01CB0188197F
:100560009909AA09BB09883E9340A105B10570F31A
:1005700021E0C21AD108E108F10888EE880E83E074
:10058000981EA11CB11CC114D104E104F10419F797
:10059000DDCFFF90EF90DF90CF90BF90AF909F9016
:1005A0008F9008954F925F926F927F928F92AF9249
:1005B000BF92CF92EF92FF920F931F93CF93DF934F
:1005C0003C01EB010E947302F30127853089621B15
:1005D000730B6A307105B0F3F894E881F9815BB16F
:1005E00058608BB1877F8BB969859E81262F291B27
:1005F000922F2E83BF844A805B807C85FD84EE84AD
:100600007F5FF394E3943F814885AA84CB84108173
:10061000D20120E0C32F022F322F3081112788947E
:100620003111390F08F43FEF9195889470FD130F45
:100630001795889471FD130F1795889472FD130F09
:100640001795889473FD130F1795889474FD130FF5
:100650001795889475FD130F1795889476FD130FE1
:100660001795889477FD130F17958894232F711190
:10067000212F960F122F002C5BB900C000C017FF6E
:100680008BB931812227889400C0002C8BB931119D
:100690003C0F00C0002C5BB900C000C016FF8BB936
:1006A00008F43FEFC195889400C0002C8BB9F0FC92
:1006B000230F00C0002C5BB900C000C015FF8BB930
:1006C00027958894F1FC230F00C0002C8BB9279547
:1006D000889400C0002C5BB900C000C014FF8BB927
:1006E000F2FC230F2795889400C0002C8BB9F3FCF3
:1006F000230F00C0002C5BB900C000C013FF8BB9F2
:1007000027958894F4FC230F00C0002C8BB9279503
:10071000889400C0002C5BB900C000C012FF8BB9E8
:10072000F5FC230F2795889400C0002C8BB9F6FCAC
:10073000230F00C0002C5BB900C000C011FF8BB9B3
:1007400027958894F7FC230F00C0002C8BB92795C0
:10075000889400C0002C5BB900C000C010FF8BB9AA
:10076000132FF110122FCA0D00C0002C8BB900C03E
:1007700000C0002C5BB900C000C017FF8BB93281EC
:100780002227889400C0002C8BB93111340F00C08F
:10079000002C5BB900C000C016FF8BB908F43FEF16
:1007A000EB0DF11D00C0002C8BB9E0FC230F00C045
:1007B000002C5BB900C000C015FF8BB92795889449
:1007C000E1FC230F00C0002C8BB92795889400C052
:1007D000002C5BB900C000C014FF8BB9E2FC230FF2
:1007E0002795889400C0002C8BB9E3FC230F00C030
:1007F000002C5BB900C000C013FF8BB9279588940B
:10080000E4FC230F00C0002C8BB92795889400C00E
:10081000002C5BB900C000C012FF8BB9E5FC230FB0
:100820002795889400C0002C8BB9E6FC230F00C0EC
:10083000002C5BB900C000C011FF8BB927958894CC
:10084000E7FC230F00C0002C8BB92795889400C0CB
:10085000002C5BB900C000C010FF8BB9132FE11052
:10086000122F419500C0002C8BB94C0D00C000C068
:100870005BB900C000C017FF8BB930812227889474
:1008800000C0002C8BB93111390F00C0002C5BB9AE
:1008900000C000C016FF8BB908F43FEF9195889413
:1008A00000C0002C8BB970FD230F00C0002C5BB979
:1008B00000C000C015FF8BB92795889471FD230FE8
:1008C00000C0002C8BB92795889400C0002C5BB920
:1008D00000C000C014FF8BB972FD230F27958894C8
:1008E00000C0002C8BB973FD230F00C0002C5BB936
:1008F00000C000C013FF8BB92795889474FD230FA7
:1009000000C0002C8BB92795889400C0002C5BB9DF
:1009100000C000C012FF8BB975FD230F2795889486
:1009200000C0002C8BB976FD230F00C0002C5BB9F2
:1009300000C000C011FF8BB92795889477FD230F65
:1009400000C0002C8BB92795889400C0002C5BB99F
:1009500000C000C010FF8BB9132F7111122F960F1A
:1009600000C0002C8BB9119709F086CE20EE31E043
:10097000D2010E94650DDC01CB01F4E0B695A7958C
:1009800097958795FA95D1F720E030E0A9016AE9BB
:10099000469E040C411D569E400D511D1124450DCF
:1009A000511D840F951FA11DB11D893E43E0940781
:1009B000A105B10508F434C0885E9340A109B109CE
:1009C00042E0B695A795979587954A95D1F747E068
:1009D000849F080E211D949F200D311D1124290F85
:1009E000311D6091660170E0860F971F820F931F83
:1009F00040916D0150916E0160916F017091700195
:100A0000292F3327420F531F611D711D40936D0124
:100A100050936E0160936F01709370018093660133
:100A200078940E947302F301708B6787DF91CF91F6
:100A30001F910F91FF90EF90CF90BF90AF908F904C
:100A40007F906F905F904F9008951F920F920FB616
:100A50000F9211242F933F938F939F93AF93BF9344
:100A600080916D0190916E01A0916F01B091700124
:100A70003091680123E0230F2D3720F40196A11D4A
:100A8000B11D05C026E8230F0296A11DB11D2093BC
:100A9000680180936D0190936E01A0936F01B093F4
:100AA00070018091690190916A01A0916B01B091F0
:100AB0006C010196A11DB11D8093690190936A019B
:100AC000A0936B01B0936C01BF91AF919F918F91F7
:100AD0003F912F910F900FBE0F901F901895FC0122
:100AE000DB01892B99F08C91808311968D919C91DB
:100AF00012979283818313968C9113978383149614
:100B00008C911497848315968C918583089508950C
:100B1000CF92DF92EF92FF920F931F93CF93DF93C9
:100B2000EC016B01FB01848195819D838C83089688
:100B30009B838A8326E0AC01249FC001259F900DF2
:100B400011240E94860D9983888300E010E0E12C37
:100B5000F12C8C819D81E816F90688F4F6016081FC
:100B60007181600F711F88819981800F911F0E9490
:100B70006F05FFEFEF1AFF0A0A5F1F4FEACFDF9101
:100B8000CF911F910F91FF90EF90DF90CF9008953C
:100B9000EF92FF920F931F93CF93DF93EC017B01B2
:100BA000FB01048115811D830C83C80108969B837A
:100BB0008A83880F991F0E94860D9983888340E05D
:100BC00050E040175107A9F0F701A081B1819A01C7
:100BD000220F331FA20FB31FE881F981E20FF31F29
:100BE000309721F08D919C91918380834F5F5F4F6F
:100BF000E8CFDF91CF911F910F91FF90EF90089573
:100C0000CF93DF93EC018F8198850E941B0E888122
:100C10009981DF91CF910C941B0E82E292E00E94A9
:100C2000950021E0892B09F420E0822F08951F927E
:100C30000F920FB60F9211242F933F934F935F9310
:100C40006F937F938F939F93AF93BF93EF93FF9394
:100C500082E292E00E94E501FF91EF91BF91AF9196
:100C60009F918F917F916F915F914F913F912F91C4
:100C70000F900FBE0F901F901895CF92DF92EF92BA
:100C8000FF920F931F93CF93DF936C017A018B0137
:100C9000C0E0D0E0CE15DF0589F0D8016D918D015F
:100CA000D601ED91FC910190F081E02DC6010995EE
:100CB000892B11F47E0102C02196ECCFC701DF9190
:100CC000CF911F910F91FF90EF90DF90CF900895FB
:100CD000CF93DF93009779F0FC0101900020E9F7B2
:100CE0003197AF01481B590BBC0182E292E00E9490
:100CF0003D06EC0102C0C0E0D0E042E050E062E618
:100D000071E082E292E00E943D068C0F9D1FDF9110
:100D1000CF9108950F931F93CF93DF9300E010E0DE
:100D2000C0E0D0E02091D0023091D1028091CC027D
:100D30009091CD02C217D30740F4800F911F0E94FB
:100D400000062196025F1F4FEDCFDF91CF911F91DB
:100D50000F910C941B0ECF93DF93CDB7DEB7E197C5
:100D60000FB6F894DEBF0FBECDBF789484B5826015
:100D700084BD84B5816084BD85B5826085BD85B53F
:100D8000816085BD80916E00816080936E001092BD
:100D90008100809181008260809381008091810038
:100DA00081608093810080918000816080938000C9
:100DB0008091B10084608093B1008091B000816027
:100DC0008093B00080917A00846080937A00809153
:100DD0007A00826080937A0080917A0081608093AB
:100DE0007A0080917A00806880937A001092C10026
:100DF000E0913202F091330282E08083E0912E0292
:100E0000F0912F021082E0913002F09131028FECCC
:100E1000808310923A02E0913602F091370286E028
:100E20008083E0913402F09135028081806180837B
:100E3000E0913402F0913502808188608083E091F6
:100E40003402F0913502808180688083E091340221
:100E5000F091350280818F7D80838EE491E00E9445
:100E6000680668EE73E080E090E00E94980280914E
:100E70008401811145C010927601109275018FEFA7
:100E80008093790180937A0180937B0180937C0128
:100E900080937D0180937E0181E080937F01109299
:100EA0008101109280011092780110927701809157
:100EB0001C0290911D02892B31F483E791E09093FD
:100EC0001D0280931C02E0917101F0917201309734
:100ED00021F083E791E09583848383E791E0909309
:100EE00072018093710110928301109282018AE154
:100EF00091E0909374018093730181E08093840169
:100F0000E0917301F09174010480F581E02D83E795
:100F100091E009958CE891E09093760180937501BA
:100F200087E190E09093810180938001E0917301CB
:100F3000F09174010284F385E02D83E791E0099537
:100F4000009729F19C0140E050E060E472E48FE0FA
:100F500090E00E94460D722F632F0091C202109103
:100F6000C3022091C4023091C502872F962FDA0167
:100F700080179107A207B30710F4D901C801809325
:100F8000C2029093C302A093C402B093C50208E0CA
:100F900010E01C830B831E821D8280E190E00E9482
:100FA000860D9A8389831B870A871D861C8680E3AA
:100FB00090E00E94860D99878887E7E1CE2ED12C9C
:100FC000F6E09F2E1AA21DA21EA21FA28EE290E0A2
:100FD0000E94860D9CA38BA38C859D858C010F5F41
:100FE0001F4F8017910708F052C04A855B85401754
:100FF000510770F509964817590750F5A884B98428
:101000009B878A879C01929EC001939E900D11241C
:101010000E94860D99878887E12CF12C612C712C18
:101020008C859D856816790680F4B5016E0D7F1D4F
:10103000888599858E0D9F1D0E946F053FEF631A6D
:10104000730A46E0E40EF11CEBCFC5010E941B0EB3
:10105000EC84FD849E9C30019F9C700C1124A12C7B
:10106000B12CE016F106B0F4C501860D971D288558
:101070003985BE016E5D7F4F820F931F0E946F0501
:101080005FEFE51AF50A86E0A80EB11CEACF081753
:10109000190710F41D870C8791E0C91AD10809F0CF
:1010A00091CF88E090E00E94860D8C0188E0D80105
:1010B0001D928A95E9F78CE291E0F8019183808393
:1010C0008FEF8283838384838AE090E09683858395
:1010D000CD80DE807601FFEFEF1AFF0ACE14DF0429
:1010E00008F045C08B819C818E159F0560F59601A7
:1010F000275F3F4F8217930730F5A980BA803C8362
:101100002B83C901880F991F0E94860D9A838983BA
:10111000D50140E050E04C155D0591F0E981FA8180
:101120009A01220F331FE20FF31F309729F08D91A0
:101130009C911197918380834F5F5F4F1296EBCF05
:10114000C5010E941B0E8D819E819C01220F331FC1
:101150008E159F0578F4E981FA81E20FF31F30972D
:1011600011F01183008301962E5F3F4FF1CFEC14F5
:10117000FD0410F4FE82ED828091D0029091D102A4
:101180008C010F5F1F4F8017910708F082C04091BC
:10119000CE025091CF024017510708F04AC09C017F
:1011A000275F3F4F4217530708F043C0C090CC025F
:1011B000D090CD023093CF022093CE028EE0482F04
:1011C000429FC001439F900D11240E94860D909371
:1011D000CD028093CC025601812C912C8091D002BB
:1011E0009091D1028816990608F5E090CC02F09013
:1011F000CD0295012C193D09E20EF31EE114F10414
:1012000059F0B501C7010E94C805B501695F7F4F5C
:10121000C70107960E948805C5010E9400065FEF7E
:10122000851A950A8EE0A80EB11CD8CFC6010E947F
:101230001B0EC090D002D090D1028EE08C9D400158
:101240008D9D900C1124A12CB12CC016D10608F054
:1012500048C0E090CC02F090CD02C501880D991DE8
:10126000E80EF91EE114F10469F0BE016F5F7F4FD3
:10127000C7010E94C805BE01685F7F4FC70107967E
:101280000E9488059FEFC91AD90AAEE0AA0EB11CC8
:10129000DCCF0817190748F52EE0289F5001299F39
:1012A000B00C1124C12CD12C7801BEE0AB0EB11CC6
:1012B0008091D0029091D102E816F90690F4C50110
:1012C0008C0D9D1D2091CC023091CD02820F931F79
:1012D0000E940006EFEFEE1AFE0AFEE0CF0ED11CD0
:1012E000E7CF1093D1020093D00268EE73E080E064
:1012F00090E00E94980283E591E00E94680682E2F5
:1013000092E00E944D029E012F5F3F4F5901C9019B
:101310000E9400060E94730268A779A78AA79BA76C
:101320008091CC029091CD024091D0025091D10297
:101330006EE0649F9001659F300D1124AC01420F57
:10134000531F59AB48AB1C0128A939A922163306F3
:1013500009F452C1B101C5010E94C805B101695F1C
:101360007F4FCE0108960E94880509811A81ED8081
:10137000FE80EE0CFF1CE00EF11E0E151F05C1F0E5
:10138000D8018D919D918D01DC01ED91FC9104803E
:10139000F581E02D2FB7F89440916D0150916E01C9
:1013A00060916F01709170012FBF95010995E5CF94
:1013B000E885F9859F012B5F3F4F4F01BAE88B0EFF
:1013C000911C5BEABAEACB2EE12CF12CC901029701
:1013D0009DA78CA7290191E0491A51088081082E08
:1013E000000C990BE816F9060CF0D2C061817281ED
:1013F000C701880F991FDB01A80FB91F6C90062C3D
:10140000000C77081196AC918A2FAA0F990BACA506
:10141000BDA50C91D2011C91D901DC90602F6F7198
:10142000660F660F660F762F45E5749F070E70E016
:10143000711D1124A02FA074B02FB07207FD22C01F
:10144000A1110BC0B11104C0672F6095072F12C006
:1014500005E5070F60E07BEA36C0B1110EC04C2DE8
:10146000649F060E60E0611D1124A52FA61B6A2F44
:101470000AEA070F762F60E026C0B0E0072F00953C
:10148000672F0DC0A11110C0B1110BC04C2D649F6E
:10149000060E60E0611D1124052F061B6B5A70E0DB
:1014A00012C0672F60950EC0B11106C005E5070F89
:1014B000652F671B702F06C0BAEAB70FA0E065E57D
:1014C000671B7B2F00E01F3F09F424C01123F9F0B4
:1014D000772321F0719F070E70E0711D002321F02A
:1014E000019F000E00E0011D662321F0619F060EA2
:1014F00060E0611D1124A12FA0951A2F119F010EEC
:1015000010E0111D1124710F010F610F03C06FEF67
:101510000FEF7FEFBFEFDB1609F421C010E04D2D78
:10152000442321F0449F112D09F01F5F1123A1F0E6
:10153000772321F0719F070E70E0711D002321F0C9
:10154000019F000E00E0011D662321F0619F060E41
:1015500060E0611D112403C060E000E070E0DC0188
:10156000AA0FBB1FA80FB91F45E4469DC001479DA8
:10157000900D1124A80FB91FA457BE4F7C9311964C
:101580000C93119712966C938FEFE81AF80A26CFF6
:1015900036962A5F3F4FE815F90509F015CFF09010
:1015A000BF028091C2029091C302A091C402B09187
:1015B000C502892B8A2B8B2B09F464C00E9473020D
:1015C00000911E0210911F022091200230912102F1
:1015D000DC01CB01801B910BA20BB30B0091C2026B
:1015E0001091C3022091C4023091C5028017910767
:1015F000A207B307B0F246C00E94730228A539A51E
:101600004AA55BA5621B730B840B950B2AE0A50111
:101610000E947D0CF50101900020E9F731978F01C0
:101620000A191B09B8016F5F7F4F80E090E00E94AC
:10163000B30E7C01009731F0DC011C92B5010E94D1
:101640008B0F02C000E010E0A801B70182E292E037
:101650000E943D0642E050E062E671E082E292E0E4
:101660000E943D06C7010E941B0E82E292E00E948A
:101670004D026EE170E080E090E00E9498020E94CE
:10168000A10048CE0E94730260931E0270931F0255
:101690008093200290932102E091CA02F091CB0244
:1016A000309759F04091C6025091C7026091C8022C
:1016B0007091C9028F2D0995F82E00911C0210918E
:1016C0001D024F2C512C612C712C0115110509F4B0
:1016D0006AC0D8011C96BC91BCA78091C0029091B1
:1016E000C1028436910510F4F8011486D801ED91F9
:1016F000FC91228133813FA72EA71AA21BA21CA214
:10170000F1101AC0D8011D964D915C911E9712964A
:101710006D917C9113979E012E5D3F4FC801EEA500
:10172000FFA50995ECA5D8011C96EC931C9714967F
:101730000D911C911597C9CFF80139969E012E5D28
:101740003F4F690148013CE0830E911CDF01139774
:10175000EC902191EE2001F12223F1F0822F90E014
:10176000A0E0B0E09C01AD012F5F3F4F4F4F5F4FB6
:10177000C301B2010E94000D9B01AC018E2D90E0CF
:10178000A0E0B0E0BC01CD016F5F7F4F8F4F9F4F56
:101790000E94000DD6018C93BFEFCB1ADB0AE8152F
:1017A000F905A1F6AFCF80911A0290911B029C011E
:1017B0002F5F3F4F30931B0220931A0249970CF47E
:1017C00047C08FB7F89400916D0110916E01209180
:1017D0006F01309170018FBF80911A0290911B02AE
:1017E000E8EEF3E08E9FB0018F9F700D9E9F700D0D
:1017F0001124072E000C880B990BC0901602D09074
:101800001702E0901802F0901902A90198012C1912
:101810003D094E095F090E94240D3093C1022093B7
:10182000C00210921B0210921A022FB7F8948091F6
:101830006D0190916E01A0916F01B09170012FBF69
:101840008093160290931702A0931802B093190286
:10185000C5010E940006FEE02F0E311C75CDCF930E
:10186000DF93E2E2F2E01382128288EE93E0A0E0DE
:10187000B0E084839583A683B78380E491E091836D
:10188000808385EC90E09587848784EC90E097874F
:10189000868780EC90E0918B808B81EC90E0938B3D
:1018A000828B82EC90E0958B848B86EC90E0978B1A
:1018B000868B118E128E138E148EEFEBF2E08FEF6B
:1018C000808312821182148613868FEF9FEFDC01D2
:1018D00087839087A187B287CCECD2E088E090E044
:1018E0009B838A831D821C8280E790E00E94860D84
:1018F00099838883DF91CF910895BB27FA01A62FA2
:101900006217710581059105330B30FB66F0AA273C
:10191000660F771F881F991FAA1FA21710F0A21B1E
:1019200063953850A9F7A05DAA3308F0A95DA1938B
:1019300036F7B111B1931082CA010C949F0CDC01EF
:10194000FC01672F71917723E1F7329704C07C91F6
:101950006D9370836291AE17BF07C8F308950E941C
:10196000F10CA59F900DB49F900DA49F800D911D2B
:10197000112408952F923F924F925F926F927F921F
:101980008F929F92AF92BF92CF92DF92EF92FF928F
:101990000F931F93CF93DF93CDB7DEB7CA1BDB0B3B
:1019A0000FB6F894DEBF0FBECDBF09942A883988E0
:1019B00048885F846E847D848C849B84AA84B984E7
:1019C000C884DF80EE80FD800C811B81AA81B981F3
:1019D000CE0FD11D0FB6F894DEBF0FBECDBFED0107
:1019E0000895A29FB001B39FC001A39F700D811DF8
:1019F0001124911DB29F700D811D1124911D089518
:101A0000DB018F939F930E94AF0CBF91AF91A29F78
:101A1000800D911DA39F900DB29F900D11240895EC
:101A200097FB072E16F4009407D077FD09D00E948B
:101A30006C0D07FC05D03EF4909581959F4F08955D
:101A4000709561957F4F0895A1E21A2EAA1BBB1BCA
:101A5000FD010DC0AA1FBB1FEE1FFF1FA217B3077A
:101A6000E407F50720F0A21BB30BE40BF50B661F90
:101A7000771F881F991F1A9469F760957095809554
:101A800090959B01AC01BD01CF010895052E97FBF8
:101A90001EF400940E945D0D57FD07D00E94240D96
:101AA00007FC03D04EF40C945D0D50954095309595
:101AB00021953F4F4F4F5F4F0895909580957095BA
:101AC00061957F4F8F4F9F4F08950E94F10CB7FF94
:101AD0000895821B930B0895AA1BBB1B51E107C0FD
:101AE000AA1FBB1FA617B70710F0A61BB70B881FAE
:101AF000991F5A95A9F780959095BC01CD0108953D
:101B0000EE0FFF1F0590F491E02D0994CF93DF9322
:101B10008230910510F482E090E0E091D502F091DE
:101B2000D60220E030E0C0E0D0E0309711F14081F3
:101B3000518148175907C0F04817590761F482814D
:101B40009381209719F09B838A832BC09093D602B0
:101B50008093D50226C02115310519F0421753078D
:101B600018F49A01BE01DF01EF010280F381E02D3C
:101B7000DCCF2115310509F1281B390B2430310543
:101B800090F412968D919C9113976115710521F037
:101B9000FB019383828304C09093D6028093D50285
:101BA000FD01329644C0FD01E20FF31F8193919332
:101BB000225031092D933C933AC02091D3023091A9
:101BC000D402232B41F42091020130910301309380
:101BD000D4022093D30220910001309101012115FC
:101BE000310541F42DB73EB74091040150910501F4
:101BF000241B350BE091D302F091D402E217F307D6
:101C0000A0F42E1B3F0B2817390778F0AC014E5F6C
:101C10005F4F2417350748F04E0F5F1F5093D402D3
:101C20004093D3028193919302C0E0E0F0E0CF01B2
:101C3000DF91CF9108950F931F93CF93DF93009778
:101C400009F48CC0FC013297138212820091D502F4
:101C50001091D6020115110581F420813181820F86
:101C6000931F2091D3023091D4022817390779F5B8
:101C7000F093D402E093D30271C0D80140E050E069
:101C8000AE17BF0750F412962D913C911397AD01FA
:101C90002115310509F1D901F3CF9D01DA01338313
:101CA000228360817181860F971F8217930769F4E1
:101CB000EC0128813981260F371F2E5F3F4F31837A
:101CC00020838A819B8193838283452B29F4F0931F
:101CD000D602E093D50242C01396FC93EE9312977E
:101CE000ED01499159919E01240F351FE217F30729
:101CF00071F480819181840F951F029611969C93B7
:101D00008E938281938113969C938E931297E0E039
:101D1000F0E0D80112968D919C911397009719F0DD
:101D2000F8018C01F6CF8D919C9198012E5F3F4F69
:101D3000820F931F2091D3023091D40228173907C4
:101D400069F4309729F41092D6021092D50202C09D
:101D5000138212821093D4020093D302DF91CF91A9
:101D60001F910F910895A0E0B0E0E9EBFEE00C9424
:101D7000BE0CEC01009721F4CB010E94860DB8C087
:101D8000FC01E60FF71F9C0122503109E217F3070F
:101D900008F4ACC0D9010D911C91119706171707D3
:101DA000B0F00530110508F49FC0C80104978617EC
:101DB000970708F499C002501109061B170B0193ED
:101DC00011936D937C93CF010E941B0E8DC05B011C
:101DD000A01AB10A4C01800E911EA091D502B091BB
:101DE000D60240E050E0E12CF12C109709F44AC0F3
:101DF000A815B905D1F56D907C901197630182E02B
:101E0000C80ED11CCA14DB0480F1A3014A195B0976
:101E10006A0182E0C80ED11C1296BC9012971396EC
:101E2000AC91B5E0CB16D10440F0B282A3835183CC
:101E30004083D9016D937C930AC00E5F1F4FC3018D
:101E4000800F911FF90191838083EB2DFA2FE1140C
:101E5000F10431F0D7011396FC93EE93129744C02E
:101E6000F093D602E093D5023FC08D919C911197DB
:101E70004817590708F4AC017D0112960D90BC91EA
:101E8000A02DB3CF8091D3029091D40288159905EB
:101E9000E1F446175707C8F48091000190910101C1
:101EA000009741F48DB79EB7409104015091050110
:101EB000841B950BE817F907C8F4F093D402E0935C
:101EC000D302F901718360830FC0CB010E94860D9C
:101ED0007C01009759F0A801BE010E94820FCE013B
:101EE0000E941B0EC70104C0CE0102C080E090E03A
:101EF000CDB7DEB7EEE00C94DA0C81E090E0F89418
:101F00000C94920FFB01DC0102C001900D92415034
:101F10005040D8F70895FB01DC0101900D9200209C
:101F2000E1F7089510E0C5E3D0E004C0FE010E948F
:0E1F3000800D2196C633D107C9F7F894FFCF74
:101F3E000000D702800000000000AF01AF01AF012A
:101F4E008B0187018401000000004101FD00FB00B0
:101F5E008B018701F800D202000000008705B10155
:101F6E006F020000000000000000AF010000000042
:101F7E0006023D0664004D02950073008700626FF5
:101F8E006F740066696E6973686564207365747535
:061F9E0070000D0A0000B6
:00000001FF
